:020000040800F2
:1000000000000320752F00082F1000083D10000885
:1000100043100008491000084F10000800000000BD
:100020000000000000000000000000005510000863
:100030006310000800000000711000087F10000825
:10004000C52F0008C52F0008C52F0008C52F0008C0
:10005000C52F0008C52F0008C52F0008C52F0008B0
:10006000C52F0008C52F0008C52F0008C52F0008A0
:10007000C52F0008C52F0008C52F0008C52F000890
:10008000C52F0008C52F0008C52F0008C52F000880
:10009000C52F0008C52F0008C52F0008C52F000870
:1000A000C52F0008C52F0008C52F0008C52F000860
:1000B000C52F0008C52F0008C52F0008C52F000850
:1000C000C52F0008C52F0008C52F0008C52F000840
:1000D000C52F0008C52F0008C52F0008C52F000830
:1000E000C52F0008512F0008C52F0008C52F000894
:1000F000C52F0008C52F0008C52F0008C52F000810
:10010000C52F0008C52F0008C52F0008C52F0008FF
:10011000C52F0008C52F0008C52F0008C52F0008EF
:10012000C52F0008C52F0008C52F0008C52F0008DF
:10013000C52F0008C52F0008C52F0008C52F0008CF
:10014000C52F0008C52F0008C52F0008C52F0008BF
:10015000C52F0008C52F0008C52F0008C52F0008AF
:10016000C52F0008C52F0008C52F0008C52F00089F
:10017000C52F0008C52F0008C52F0008000000008B
:10018000C52F0008C52F0008C52F0008C52F00087F
:10019000C52F0008C52F0008C52F0008C52F00086F
:0C01A000C52F0008C52F0008C52F00085F
:1001B00010B5054C237833B9044B13B10448AFF3A1
:1001C00000800123237010BDD80100200000000032
:1001D000545B000808B5034B1BB103490348AFF358
:1001E000008008BD00000000DC010020545B000816
:1001F000034613F8012B002AFBD1181A0138704767
:1002000001F0FF01102A2BDB10F0070F08D010F8C7
:10021000013B013A8B422DD010F0070F42B3F6D1CB
:10022000F0B441EA012141EA014122F007047FF0E4
:1002300000070023F0E80256083C85EA010586EA3B
:10024000010685FA47F5A3FA87F586FA47F6A5FA77
:1002500087F68EB9EED1F0BC01F0FF0102F0070283
:1002600032B110F8013B013A83EA010313B1F8D12E
:100270000020704701387047002D06BF354603380F
:10028000073815F0010F07D1013015F4807F02BF48
:10029000013015F4C03F0130F0BC0138704700BF99
:1002A00081F0004102E000BF83F0004330B54FEA27
:1002B00041044FEA430594EA050F08BF90EA020F94
:1002C0001FBF54EA000C55EA020C7FEA645C7FEA27
:1002D000655C00F0E2804FEA5454D4EB5555B8BF4A
:1002E0006D420CDD2C4480EA020281EA030382EABB
:1002F000000083EA010180EA020281EA0303362D4D
:1003000088BF30BD11F0004F4FEA01314FF4801C1F
:100310004CEA113102D0404261EB410113F0004F31
:100320004FEA03334CEA133302D0524263EB4303E8
:1003300094EA050F00F0A780A4F10104D5F1200E86
:100340000DDB02FA0EFC22FA05F2801841F10001E1
:1003500003FA0EF2801843FA05F359410EE0A5F1B5
:1003600020050EF1200E012A03FA0EFC28BF4CF0E6
:10037000020C43FA05F3C01851EBE37101F000459C
:1003800007D54FF0000EDCF1000C7EEB00006EEBA9
:100390000101B1F5801F1BD3B1F5001F0CD3490833
:1003A0005FEA30004FEA3C0C04F101044FEA44528A
:1003B00012F5800F80F09A80BCF1004F08BF5FEA11
:1003C000500C50F1000041EB045141EA050130BDF1
:1003D0005FEA4C0C404141EB0101013C28BFB1F503
:1003E000801FE9D291F0000F04BF01460020B1FA4E
:1003F00081F308BF2033A3F10B03B3F120020CDA21
:100400000C3208DD02F1140CC2F10C0201FA0CF0FE
:1004100021FA02F10CE002F11402D8BFC2F1200C63
:1004200001FA02F120FA0CFCDCBF41EA0C01904019
:10043000E41AA2BF01EB0451294330BD6FEA040462
:100440001F3C1CDA0C340EDC04F11404C4F120024D
:1004500020FA04F001FA02F340EA030021FA04F35F
:1004600045EA030130BDC4F10C04C4F1200220FAB6
:1004700002F001FA04F340EA0300294630BD21FAF4
:1004800004F0294630BD94F0000F83F4801306BFBA
:1004900081F480110134013D4EE77FEA645C18BFAE
:1004A0007FEA655C29D094EA050F08BF90EA020F45
:1004B00005D054EA000C04BF1946104630BD91EA3D
:1004C000030F1EBF0021002030BD5FEA545C05D140
:1004D0004000494128BF41F0004130BD14F580047F
:1004E0003CBF01F5801130BD01F0004545F0FE41F3
:1004F00041F470014FF0000030BD7FEA645C1ABF28
:10050000194610467FEA655C1CBF0B46024650EA5E
:10051000013406BF52EA033591EA030F41F400218A
:1005200030BD00BF90F0000F04BF0021704730B510
:100530004FF4806404F132044FF000054FF00001E5
:1005400050E700BF90F0000F04BF0021704730B5A6
:100550004FF4806404F1320410F0004548BF40427B
:100560004FF000013EE700BF42004FEAE2014FEAD0
:1005700031014FEA02701FBF12F07F4393F07F4FAB
:1005800081F06051704732F07F4208BF704793F0AE
:100590007F4F04BF41F40021704730B54FF46074C1
:1005A00001F0004521F000411CE700BF50EA0102C4
:1005B00008BF704730B54FF000050AE050EA01026D
:1005C00008BF704730B511F0004502D5404261EBDD
:1005D00041014FF4806404F132045FEA915C3FF41E
:1005E000D8AE4FF003025FEADC0C18BF03325FEABB
:1005F000DC0C18BF033202EBDC02C2F1200300FA6C
:1006000003FC20FA02F001FA03FE40EA0E0021FA90
:1006100002F11444BDE600BF70B54FF0FF0C4CF47E
:10062000E06C1CEA11541DBF1CEA135594EA0C0F30
:1006300095EA0C0F00F0DEF82C4481EA030621EA6B
:100640004C5123EA4C5350EA013518BF52EA0335A6
:1006500041F4801143F4801338D0A0FB02CE4FF058
:100660000005E1FB02E506F00042E0FB03E54FF088
:100670000006E1FB03569CF0000F18BF4EF0010E80
:10068000A4F1FF04B6F5007F64F5407404D25FEA7C
:100690004E0E6D4146EB060642EAC62141EA55512F
:1006A0004FEAC52040EA5E504FEACE2EB4F1FD0C71
:1006B00088BFBCF5E06F1ED8BEF1004F08BF5FEAEF
:1006C000500E50F1000041EB045170BD06F00046A1
:1006D00046EA010140EA020081EA0301B4EB5C044E
:1006E000C2BFD4EB0C0541EA045170BD41F4801146
:1006F0004FF0000E013C00F3AB8014F1360FDEBF6B
:10070000002001F0004170BDC4F10004203C35DA46
:100710000C341BDC04F11404C4F1200500FA05F3C9
:1007200020FA04F001FA05F240EA020001F000426A
:1007300021F0004110EBD37021FA04F642EB0601E0
:100740005EEA430E08BF20EAD37070BDC4F10C040A
:10075000C4F1200500FA04F320FA05F001FA04F2CE
:1007600040EA020001F0004110EBD37041F10001BA
:100770005EEA430E08BF20EAD37070BDC4F12005C5
:1007800000FA05F24EEA020E20FA04F301FA05F22D
:1007900043EA020321FA04F001F0004121FA04F2D5
:1007A00020EA020000EBD3705EEA430E08BF20EAA5
:1007B000D37070BD94F0000F0FD101F000464000DF
:1007C00041EB010111F4801F08BF013CF7D041EA61
:1007D000060195F0000F18BF704703F00046520065
:1007E00043EB030313F4801F08BF013DF7D043EA36
:1007F0000603704794EA0C0F0CEA135518BF95EAEC
:100800000C0F0CD050EA410618BF52EA4306D1D172
:1008100081EA030101F000414FF0000070BD50EA91
:10082000410606BF1046194652EA430619D094EA1B
:100830000C0F02D150EA013613D195EA0C0F05D105
:1008400052EA03361CBF104619460AD181EA030159
:1008500001F0004141F0FE4141F470014FF0000011
:1008600070BD41F0FE4141F4780170BD70B54FF0AC
:10087000FF0C4CF4E06C1CEA11541DBF1CEA13552C
:1008800094EA0C0F95EA0C0F00F0A7F8A4EB05040E
:1008900081EA030E52EA03354FEA013100F0888005
:1008A0004FEA03334FF0805545EA131343EA1263CE
:1008B0004FEA022245EA111545EA10654FEA002683
:1008C0000EF000419D4208BF964244F1FD0404F53C
:1008D000407402D25B084FEA3202B61A65EB030598
:1008E0005B084FEA32024FF480104FF4002CB6EB55
:1008F000020E75EB030E22BFB61A754640EA0C00D5
:100900005B084FEA3202B6EB020E75EB030E22BF14
:10091000B61A754640EA5C005B084FEA3202B6EB55
:10092000020E75EB030E22BFB61A754640EA9C0014
:100930005B084FEA3202B6EB020E75EB030E22BFE4
:10094000B61A754640EADC0055EA060E18D04FEAA2
:10095000051545EA16754FEA06164FEAC30343EA42
:1009600052734FEAC2025FEA1C1CC0D111F4801F0F
:100970000BD141EA00014FF000004FF0004CB6E708
:1009800011F4801F04BF01430020B4F1FD0C88BFA7
:10099000BCF5E06F3FF6AFAEB5EB030C04BFB6EBB2
:1009A000020C5FEA500C50F1000041EB045170BDA5
:1009B0000EF0004E4EEA113114EB5C04C2BFD4EBD2
:1009C0000C0541EA045170BD41F480114FF0000E56
:1009D000013C90E645EA060E8DE60CEA135594EAD2
:1009E0000C0F08BF95EA0C0F3FF43BAF94EA0C0FD5
:1009F0000AD150EA01347FF434AF95EA0C0F7FF44A
:100A000025AF104619462CE795EA0C0F06D152EA9D
:100A100003353FF4FDAE1046194622E750EA410681
:100A200018BF52EA43067FF4C5AE50EA41047FF492
:100A30000DAF52EA43057FF4EBAE12E74FF0FF3CF7
:100A400006E000BF4FF0010C02E000BF4FF0010CC8
:100A50004DF804CD4FEA410C7FEA6C5C4FEA430C41
:100A600018BF7FEA6C5C1BD001B050EA410C0CBF90
:100A700052EA430C91EA030F02BF90EA020F0020F2
:100A8000704710F1000F91EA030F58BF994208BF59
:100A900090422CBFD8176FEAE37040F00100704716
:100AA0004FEA410C7FEA6C5C02D150EA013C07D16D
:100AB0004FEA430C7FEA6C5CD6D152EA033CD3D0B8
:100AC0005DF8040B704700BF8446104662468C46B2
:100AD0001946634600E000BF01B5FFF7B7FF0028E5
:100AE00048BF10F1000F01BD4DF808EDFFF7F4FF0E
:100AF0000CBF012000205DF808FB00BF4DF808ED99
:100B0000FFF7EAFF34BF012000205DF808FB00BFBB
:100B10004DF808EDFFF7E0FF94BF012000205DF8DD
:100B200008FB00BF4DF808EDFFF7CEFF94BF012092
:100B300000205DF808FB00BF4DF808EDFFF7C4FF8B
:100B400034BF012000205DF808FB00BF4FEA410CD4
:100B50007FEA6C5C02D150EA013C0AD14FEA430CB7
:100B60007FEA6C5C02D152EA033C02D14FF00000F4
:100B700070474FF0010070474FEA410212F5001232
:100B800015D211D56FF47873B3EB625212D94FEAD4
:100B9000C12343F0004343EA505311F0004F23FABE
:100BA00002F018BF404270474FF00000704750EA13
:100BB000013005D111F0004008BF6FF000407047D0
:100BC0004FF00000704700BF53B94AB9002908BF71
:100BD00000281CBF4FF0FF314FF0FF3000F074B918
:100BE000ADF1080C6DE904CE00F006F8DDF804E084
:100BF000DDE9022304B070472DE9F047089D044663
:100C00008E46002B4DD18A42944669D9B2FA82F2BF
:100C100052B101FA02F3C2F1200120FA01F10CFAFB
:100C200002FC41EA030E94404FEA1C48210CBEFB33
:100C3000F8F61FFA8CF708FB16E341EA034306FBBC
:100C400007F199420AD91CEB030306F1FF3080F04B
:100C50001F81994240F21C81023E63445B1AA4B298
:100C6000B3FBF8F008FB103344EA034400FB07F73A
:100C7000A7420AD91CEB040400F1FF3380F00A817B
:100C8000A74240F207816444023840EA0640E41B70
:100C900000261DB1D4400023C5E900433146BDE81C
:100CA000F0878B4209D9002D00F0EF800026C5E9BE
:100CB000000130463146BDE8F087B3FA83F6002ED6
:100CC0004AD18B4202D3824200F2F980841A61EB4E
:100CD000030301209E46002DE0D0C5E9004EDDE76C
:100CE00002B9FFDEB2FA82F2002A40F09280A1EB54
:100CF0000C014FEA1C471FFA8CFE0126200CB1FBA9
:100D0000F7F307FB131140EA01410EFB03F08842A1
:100D100008D91CEB010103F1FF3802D2884200F22E
:100D2000CB804346091AA4B2B1FBF7F007FB1011C0
:100D300044EA01440EFB00FEA64508D91CEB04045E
:100D400000F1FF3102D2A64500F2BB800846A4EBB9
:100D50000E0440EA03409CE7C6F12007B34022FAA4
:100D600007FC4CEA030C20FA07F401FA06F31C43D3
:100D7000F9404FEA1C4900FA06F3B1FBF9F8200CE0
:100D80001FFA8CFE09FB181140EA014108FB0EF026
:100D9000884202FA06F20BD91CEB010108F1FF3A76
:100DA00080F08880884240F28580A8F10208614482
:100DB000091AA4B2B1FBF9F009FB101144EA014190
:100DC00000FB0EFE8E4508D91CEB010100F1FF343B
:100DD0006CD28E456AD90238614440EA0840A0FBD3
:100DE0000294A1EB0E01A142C846A64656D353D0A9
:100DF0005DB1B3EB080261EB0E0101FA07F722FACD
:100E000006F3F1401F43C5E9007100263146BDE8F5
:100E1000F087C2F12003D8400CFA02FC21FA03F358
:100E2000914001434FEA1C471FFA8CFEB3FBF7F0D9
:100E300007FB10360B0C43EA064300FB0EF69E42FE
:100E400004FA02F408D91CEB030300F1FF382FD297
:100E50009E422DD9023863449B1B89B2B3FBF7F63F
:100E600007FB163341EA034106FB0EF38B4208D918
:100E70001CEB010106F1FF3816D28B4214D9023E59
:100E80006144C91A46EA004638E72E46284605E777
:100E90000646E3E61846F8E64B45A9D2B9EB020848
:100EA00064EB0C0E0138A3E74646EAE7204694E7D8
:100EB0004046D1E7D0467BE7023B614432E730460B
:100EC00009E76444023842E7704700BF80B485B048
:100ED00000AF78607B6803F00703FB600C4BDB68B6
:100EE000BB60BA684FF6FF031340BB60FB681A0291
:100EF000BB68134343F0BF6343F40033BB60044A51
:100F0000BB68D36000BF1437BD465DF8047B7047F3
:100F100000ED00E080B500AF0420FFF7D7FF01F03F
:100F200061FB00F00FF800F0B1F800BF80BD0000D9
:100F300080B500AFFFF7EEFF014802F04FFDFEE77E
:100F4000705B000880B594B000AF07F12003302239
:100F50000021184602F062F807F10C0300221A6023
:100F60005A609A60DA601A610023BB602B4B1B6CDD
:100F70002A4A43F080531364284B1B6C03F08053C0
:100F8000BB60BB6800237B60254B1B68244A43F48D
:100F900040431360224B1B6803F440437B607B6833
:100FA00001233B624FF480337B620223BB634FF427
:100FB0008003FB630F233B64D8237B640223BB6461
:100FC0000423FB6407F12003184600F067FC034686
:100FD000002B01D000F026F800F010FC0346002B97
:100FE00001D000F01FF80F23FB6002233B610023B8
:100FF0007B614FF4A053BB614FF48053FB6107F159
:101000000C030521184600F087FE0346002B01D093
:1010100000F008F800BF5037BD4680BD00380240E0
:101020000070004080B400AF72B600BFFEE780B42D
:1010300000AF00BFBD465DF8047B704780B400AFD1
:10104000FEE780B400AFFEE780B400AFFEE780B4F7
:1010500000AFFEE780B400AF00BFBD465DF8047B83
:10106000704780B400AF00BFBD465DF8047B704799
:1010700080B400AF00BFBD465DF8047B704780B40C
:1010800000AF00BFBD465DF8047B704780B500AF80
:101090000D4B0E4A1A600C4B4FF4E1325A600A4B6A
:1010A00000229A60084B0022DA60074B00221A6186
:1010B000054B00229A61044B0C225A61024801F050
:1010C000D3FA00BF80BD00BFF40100200010014032
:1010D00080B58AB000AF786000233B61234B5B6C26
:1010E000224A43F010035364204B5B6C03F010035F
:1010F0003B613B690023FB601C4B1B6B1B4A43F0AD
:1011000001031363194B1B6B03F00103FB60FB68C6
:101110000023BB60154B1B6B144A43F001031363A0
:10112000124B1B6B03F00103BB60BB684FF40073F1
:101130007B610223BB610123FB6103233B62072325
:101140007B6207F114031946094801F09FF84FF438
:1011500080637B6107237B6207F11403194604480F
:1011600001F094F800BF2837BD4680BD003802402A
:101170000000024080B586B000AFF860B9607A60C8
:10118000FB68012B0AD0FB68022B07D001F01CFF83
:10119000034609221A604FF0FF330FE07B689AB2D2
:1011A0004FF47A73B968074801F0ABFA0346FB7550
:1011B000FB7D002B01D17B6800E000231846183727
:1011C000BD4680BDF401002080B400AF164BD3F8BB
:1011D0008830154A43F47003C2F88830134B1B68FB
:1011E000124A43F001031360104B00229A600F4B28
:1011F0001B680E4A23F0847323F4803313600B4B77
:101200000B4A5A60094B1B68084A23F48023136079
:10121000064B0022DA60044B4FF000629A6000BF78
:10122000BD465DF8047B704700ED00E000380240E9
:101230001030002480B483B000AF786000BF0C375A
:10124000BD465DF8047B704780B586B000AF78601E
:1012500000237B6100233B617B681B6803F0010373
:10126000002B05D17B681B6803F00203002B61D0C3
:10127000A34B00221A6001F0EBF9786108E001F05D
:10128000E7F902467B69D31A022B01D9032377E1E0
:101290009C4B1B6803F00063002BF0D17B681B683C
:1012A00003F00103002B09D07B685B689A017B681F
:1012B0009B681B0793491343C1F884307B681B6804
:1012C00003F00203002B1FD08E4BD3F884301B0F8A
:1012D00003F007033B617B685B689A017B68DB680E
:1012E0001B061A433B691B0786491343C1F8843028
:1012F000844BD3F88C3023F01F027B68DB69013B01
:1013000080491343C1F88C307D4B01221A6001F0F3
:101310009FF9786108E001F09BF902467B69D31AD6
:10132000022B01D903232BE1764B1B6803F00063EA
:10133000002BF0D07B681B6803F00403002B05D161
:101340007B681B6803F00803002B79D06E4B0022EA
:101350001A6001F07DF9786108E001F079F9024640
:101360007B69D31A022B01D9032309E1654B1B6862
:1013700003F00053B3F1005FEFD07B681B6803F00C
:101380000403002B20D05F4BD3F888301B0F03F0F1
:1013900007033B617B681B699A017B685B691B06DD
:1013A0001A433B691B0757491343C1F88830554B13
:1013B000D3F88C3023F4F8527B681B6A013B1B0284
:1013C00050491343C1F88C307B681B6803F0080355
:1013D000002B1ED04B4BD3F888301B0E03F00F03AD
:1013E0003B617B681B699A013B691B061A437B685A
:1013F0009B691B0743491343C1F88830414BD3F81D
:101400008C3023F440327B685B6A3E491343C1F859
:101410008C303D4B01221A6001F01AF9786108E026
:1014200001F016F902467B69D31A022B01D9032376
:10143000A6E0344B1B6803F00053B3F1005FEFD11B
:101440007B681B6803F02003002B00F08D800023D5
:10145000FB602C4B1B6C2B4A43F080531364294BCD
:101460001B6C03F08053FB60FB68284B1B68274A0A
:1014700043F48073136001F0EBF8786108E001F049
:10148000E7F802467B69D31A022B01D9032377E0E0
:101490001E4B1B6803F48073002BF0D0194B1B6F9D
:1014A00003F440733B613B69002B39D07B689B6A36
:1014B00003F440733A699A4232D0124B1B6F23F403
:1014C00040733B61124B01221A60114B00221A60DB
:1014D0000C4A3B6913670B4B1B6F03F00103002B96
:1014E0001ED001F0B5F8786114E001F0B1F80246C1
:1014F0007B69D31A41F2883293420BD903233FE030
:1015000068004742003802407000474200700040C7
:10151000400E47421C4B1B6F03F00203002BE4D02C
:101520007B689B6A03F44073B3F5407F0DD1164B83
:101530009B6823F4F8127B689B6A23F0704323F4C2
:101540004073114913438B6005E00F4B9B680E4AB3
:1015500023F4F81393600C4B1A6F7B689B6AC3F3F8
:101560000B03094913430B677B681B6803F01003E7
:10157000002B04D07B6893F82C20044B1A600023C6
:1015800018461837BD4680BD00380240E01147427A
:1015900080B582B000AF78607B68002B01D1012359
:1015A00083E07B685B7FDBB2002B05D17B68002288
:1015B0001A77786800F07DF87B6802225A777B689A
:1015C0001B68CA225A627B681B6853225A62786879
:1015D00000F0E8F80346002B08D07B681B68FF2268
:1015E0005A627B6804225A7701235EE07B681B689D
:1015F0009B687A68126823F4E00323F04003936049
:101600007B681B6899687B685A687B681B691A430A
:101610007B685B691A437B681B680A439A607B6836
:101620001B687A68D2681A617B681B6819697B68D5
:101630009B681A047B681B680A431A617B681B68F5
:10164000DA687B681B6822F08002DA607B681B68BE
:101650009B6803F02003002B0ED1786800F07AF825
:101660000346002B08D07B681B68FF225A627B6808
:1016700004225A77012318E07B681B681A6C7B6888
:101680001B6822F480221A647B681B68196C7B68D3
:101690009A697B681B680A431A647B681B68FF228F
:1016A0005A627B6801225A77002318460837BD46E4
:1016B00080BD80B483B000AF786000BF0C37BD46FA
:1016C0005DF8047B7047000080B582B000AF7860A1
:1016D0007B681B68DB6803F48073002B12D07B6887
:1016E0001B689B6803F48053002B0BD0786801F0D3
:1016F000E9FB7B681B68DB68DAB27B681B6862F415
:10170000C072DA607B681B68DB6803F40073002B2F
:1017100012D07B681B689B6803F40053002B0BD02E
:101720007868FFF787FD7B681B68DB68DAB27B6847
:101730001B6862F42072DA60054B4FF400325A6184
:101740007B6801225A7700BF0837BD4680BD00BFC5
:10175000003C014080B584B000AF78600023FB609E
:101760007B681B68DA687B681B6822F0A002DA607D
:1017700000F06EFFF86009E000F06AFF0246FB68C7
:10178000D31AB3F57A7F01D9032307E07B681B687E
:10179000DB6803F02003002BEED00023184610373F
:1017A000BD4680BD80B584B000AF78600023FB608B
:1017B0007B681B68DB6803F04003002B19D17B6852
:1017C0001B684FF0FF32DA6000F042FFF86009E07A
:1017D00000F03EFF0246FB68D31AB3F57A7F01D9C9
:1017E000032307E07B681B68DB6803F04003002BE2
:1017F000EED0002318461037BD4680BD80B582B0BC
:1018000000AF00237B6000233B60204B1B6C1F4A12
:1018100043F0805313641D4B1B6C03F080533B60FB
:101820003B681B4B01221A6000F012FF786009E050
:1018300000F00EFF02467B68D31AB3F57A7F01D918
:1018400003231FE0134B5B6803F48033B3F5803F41
:10185000EED1114B01221A6000F0FAFE786009E027
:1018600000F0F6FE02467B68D31AB3F57A7F01D901
:10187000032307E0074B5B6803F40033B3F5003F35
:10188000EED1002318460837BD4680BD003802401F
:1018900040000E420070004044000E4280B586B009
:1018A00000AF78607B68002B01D101232AE27B68BE
:1018B0001B6803F00103002B75D0884B9B6803F075
:1018C0000C03042B0CD0854B9B6803F00C03082BF6
:1018D00012D1824B5B6803F48003B3F5800F0BD108
:1018E0007E4B1B6803F40033002B5BD07B685B6886
:1018F000002B57D1012305E27B685B68B3F5803F7D
:1019000006D1764B1B68754A43F4803313601DE0A3
:101910007B685B68B3F5A02F0CD1704B1B686F4AD6
:1019200043F4802313606D4B1B686C4A43F480338F
:1019300013600BE0694B1B68684A23F48033136023
:10194000664B1B68654A23F4802313607B685B68E1
:10195000002B13D000F07CFE386108E000F078FE28
:1019600002463B69D31A642B01D90323CAE15B4BBE
:101970001B6803F40033002BF0D014E000F068FE85
:10198000386108E000F064FE02463B69D31A642B1C
:1019900001D90323B6E1514B1B6803F40033002B3C
:1019A000F0D100E000BF7B681B6803F00203002B4E
:1019B00063D04A4B9B6803F00C03002B0BD0474BC2
:1019C0009B6803F00C03082B1CD1444B5B6803F4A9
:1019D0008003002B16D1414B1B6803F00203002B40
:1019E00005D07B68DB68012B01D001238AE13B4BEA
:1019F0001B6823F0F8027B681B69DB00374913433F
:101A00000B603AE07B68DB68002B20D0344B01226E
:101A10001A6000F01DFE386108E000F019FE024671
:101A20003B69D31A022B01D903236BE12B4B1B68B3
:101A300003F00203002BF0D0284B1B6823F0F802C0
:101A40007B681B69DB00254913430B6015E0244BC1
:101A500000221A6000F0FCFD386108E000F0F8FD9B
:101A600002463B69D31A022B01D903234AE11B4BDF
:101A70001B6803F00203002BF0D17B681B6803F0A6
:101A80000803002B36D07B685B69002B16D0154B02
:101A900001221A6000F0DCFD386108E000F0D8FD9A
:101AA00002463B69D31A022B01D903232AE10B4BCF
:101AB0005B6F03F00203002BF0D01BE0094B002208
:101AC0001A6000F0C5FD38610EE000F0C1FD02466D
:101AD0003B69D31A022B07D9032313E100380240D4
:101AE00000004742800E4742884B5B6F03F00203C1
:101AF000002BEAD17B681B6803F00403002B00F085
:101B000097800023FB75814B1B6C03F08053002BE7
:101B10000FD10023FB607D4B1B6C7C4A43F080534C
:101B200013647A4B1B6C03F08053FB60FB6801234A
:101B3000FB75774B1B6803F48073002B18D1744B33
:101B40001B68734A43F48073136000F081FD3861B1
:101B500008E000F07DFD02463B69D31A022B01D953
:101B60000323CFE06A4B1B6803F48073002BF0D093
:101B70007B689B68012B06D1644B1B6F634A43F063
:101B8000010313671CE07B689B68052B0CD15F4B3E
:101B90001B6F5E4A43F0040313675C4B1B6F5B4A89
:101BA00043F0010313670BE0584B1B6F574A23F0B8
:101BB00001031367554B1B6F544A23F0040313674B
:101BC0007B689B68002B15D000F042FD38610AE06D
:101BD00000F03EFD02463B69D31A41F2883293423F
:101BE00001D903238EE0494B1B6F03F00203002B46
:101BF000EED014E000F02CFD38610AE000F028FD82
:101C000002463B69D31A41F28832934201D9032339
:101C100078E03E4B1B6F03F00203002BEED1FB7DFF
:101C2000012B05D1394B1B6C384A23F080531364C8
:101C30007B689B69002B64D0344B9B6803F00C03DA
:101C4000082B5CD07B689B69022B41D1314B002271
:101C50001A6000F0FDFC386108E000F0F9FC024673
:101C60003B69D31A022B01D903234BE0274B1B6896
:101C700003F00073002BF0D17B68DA697B681B6A84
:101C80001A437B685B6A9B011A437B689B6A5B080B
:101C9000013B1B041A437B68DB6A1B061B49134389
:101CA0004B601C4B01221A6000F0D2FC386108E046
:101CB00000F0CEFC02463B69D31A022B01D9032364
:101CC00020E0124B1B6803F00073002BF0D018E0EB
:101CD000104B00221A6000F0BBFC386108E000F0F5
:101CE000B7FC02463B69D31A022B01D9032309E052
:101CF000064B1B6803F00073002BF0D101E00123B9
:101D000000E0002318461837BD4680BD0038024069
:101D1000007000406000474280B584B000AF78603A
:101D200039607B68002B01D10123CAE0674B1B6837
:101D300003F00F033A689A420CD9644B3A68D2B266
:101D40001A70624B1B6803F00F033A689A4201D085
:101D50000123B6E07B681B6803F00203002B20D050
:101D60007B681B6803F00403002B05D0584B9B686D
:101D7000574A43F4E05393607B681B6803F0080301
:101D8000002B05D0524B9B68514A43F4604393604B
:101D90004F4B9B6823F0F0027B689B684C491343D0
:101DA0008B607B681B6803F00103002B44D07B68C9
:101DB0005B68012B07D1464B1B6803F40033002BF3
:101DC00019D101237DE07B685B68022B03D07B681F
:101DD0005B68032B07D13E4B1B6803F00073002B9D
:101DE00009D101236DE03A4B1B6803F00203002B7D
:101DF00001D1012365E0364B9B6823F003027B6829
:101E00005B68334913438B6000F022FCF8600AE002
:101E100000F01EFC0246FB68D31A41F2883293425E
:101E200001D903234DE02A4B9B6803F00C027B6829
:101E30005B689B009A42EBD1244B1B6803F00F03B5
:101E40003A689A420CD2214B3A68D2B21A701F4BB0
:101E50001B6803F00F033A689A4201D0012330E077
:101E60007B681B6803F00403002B08D0184B9B68A9
:101E700023F4E0527B68DB68154913438B607B6871
:101E80001B6803F00803002B09D0114B9B6823F457
:101E900060427B681B69DB000D4913438B6000F0D7
:101EA0001DF802460A4B9B681B0903F00F03094902
:101EB000CB5C22FA03F3084A13600F2000F020FFE6
:101EC000002318461037BD4680BD00BF003C0240CD
:101ED00000380240805B0008000000202DE9B04F70
:101EE00090B000AF00237B630023FB6300233B63C0
:101EF0000023BB63594B9B6803F00C03082B0DD0E8
:101F0000082B00F2A180002B02D0042B03D09BE011
:101F1000534BBB639BE0534BBB6398E04F4B5B68F9
:101F200003F03F037B634D4B5B6803F48003002B9E
:101F300028D04A4B5B689B0900223B627A623B6A6D
:101F4000C3F308000021474B03FB01F2002300FB11
:101F500003F31344434AA0FB0212FA620A46BA6230
:101F6000FA6A1344FB627B6B0022BB61FA61D7E91A
:101F70000623D7E90A01FEF727FE02460B46134661
:101F8000FB6353E0354B5B689B0900223B617A6140
:101F90003B69C3F3080A4FF0000B52465B464FF013
:101FA00000004FF00001590141EAD26150010246A0
:101FB0000B46B2EB0A0863EB0B094FF000024FF03F
:101FC00000034FEA891343EA98634FEA8812B2EBA1
:101FD000080463EB09054FF000024FF00003EB002B
:101FE00043EA5473E20014461D4614EB0A033B60B7
:101FF00045EB0B037B604FF000024FF00003D7E985
:10200000004529468B02214643EA915321468A0224
:10201000104619467B6B0022BB60FA60D7E90223A9
:10202000FEF7D2FD02460B461346FB630B4B5B6883
:102030001B0C03F0030301335B003B63FA6B3B6B48
:10204000B2FBF3F3BB6302E0054BBB6300BFBB6BAA
:1020500018464037BD46BDE8B08F00BF003802408B
:102060000024F40040787D0180B400AF034B1B686E
:102070001846BD465DF8047B704700BF0000002095
:1020800080B500AFFFF7F0FF0246054B9B689B0A47
:1020900003F007030349CB5C22FA03F3184680BD23
:1020A00000380240905B000880B500AFFFF7DCFF0E
:1020B0000246054B9B685B0B03F007030349CB5CAF
:1020C00022FA03F3184680BD00380240905B0008F6
:1020D00080B485B000AF78607B6803F00703FB60D5
:1020E0000C4BDB68BB60BA684FF6FF031340BB6064
:1020F000FB681A02BB68134343F0BF6343F4003329
:10210000BB60044ABB68D36000BF1437BD465DF8AE
:10211000047B704700ED00E080B400AF044BDB6847
:102120001B0A03F007031846BD465DF8047B7047A1
:1021300000ED00E080B483B000AF0346FB71FB7993
:1021400003F01F02074997F907305B09012000FAE5
:1021500002F241F8232000BF0C37BD465DF8047B36
:10216000704700BF00E100E080B483B000AF0346D9
:102170003960FB7197F90730002B0BDA3B68DAB254
:102180000C49FB7903F00F03043B1201D2B20B445C
:102190001A7609E03B68DAB2074997F9073012016D
:1021A000D2B20B4483F8002300BF0C37BD465DF864
:1021B000047B704700ED00E000E100E080B489B0EE
:1021C00000AFF860B9607A60FB6803F00703FB6159
:1021D000FB69C3F10703042B28BF0423BB61FB6920
:1021E0000433062B02D9FB69033B00E000237B612B
:1021F0004FF0FF32BB6902FA03F3DA43BB681A40BF
:102200007B699A404FF0FF317B6901FA03F3D943B0
:102210007B680B40134318462437BD465DF8047BAA
:10222000704780B582B000AF78607868FFF750FFE4
:1022300000BF0837BD4680BD80B586B000AF0346FD
:10224000B9607A60FB7300237B61FFF765FF7861FB
:102250007A68B9687869FFF7B1FF024697F90F30DD
:1022600011461846FFF780FF00BF1837BD4680BDF6
:1022700080B582B000AF0346FB7197F9073018466E
:10228000FFF758FF00BF0837BD4680BD80B489B056
:1022900000AF7860396000237B6100233B6100233D
:1022A000BB610023FB6177E10122FB6902FA03F3C2
:1022B0007B613B681B687A6913403B613A697B69C3
:1022C0009A4240F066813B685B68022B03D03B6812
:1022D0005B68122B23D1FB69DA087B68083253F85C
:1022E0002230BB61FB6903F007039B000F2202FA57
:1022F00003F3DB43BA691340BB613B681A69FB69AE
:1023000003F007039B0002FA03F3BA691343BB61AE
:10231000FB69DA087B680832B96943F822107B68E8
:102320001B68BB61FB695B00032202FA03F3DB431A
:10233000BA691340BB613B685B6803F00302FB6949
:102340005B0002FA03F3BA691343BB617B68BA69A5
:102350001A603B685B68012B0BD03B685B68022B03
:1023600007D03B685B68112B03D03B685B68122B7E
:1023700030D17B689B68BB61FB695B00032202FA7A
:1023800003F3DB43BA691340BB613B68DA68FB695E
:102390005B0002FA03F3BA691343BB617B68BA6955
:1023A0009A607B685B68BB610122FB6902FA03F3F8
:1023B000DB43BA691340BB613B685B681B0903F0F0
:1023C0000102FB6902FA03F3BA691343BB617B683C
:1023D000BA695A607B68DB68BB61FB695B000322FA
:1023E00002FA03F3DB43BA691340BB613B689A68A6
:1023F000FB695B0002FA03F3BA691343BB617B68B4
:10240000BA69DA603B685B6803F08053002B00F028
:10241000C0800023FB60664B5B6C654A43F48043DD
:102420005364634B5B6C03F48043FB60FB68614A5D
:10243000FB699B08023352F82330BB61FB6903F050
:1024400003039B000F2202FA03F3DB43BA69134034
:10245000BB617B68584A934237D07B68574A9342A6
:1024600031D07B68564A93422BD07B68554A9342C1
:1024700025D07B68544A93421FD07B68534A9342CD
:1024800019D07B68524A934213D07B68514A9342D9
:102490000DD07B68504A934207D07B684F4A9342E5
:1024A00001D1092312E00A2310E008230EE00723DC
:1024B0000CE006230AE0052308E0042306E00323DA
:1024C00004E0022302E0012300E00023FA6902F0A5
:1024D000030292009340BA691343BB613549FB691B
:1024E0009B080233BA6941F823203D4B1B68BB614E
:1024F0003B69DB43BA691340BB613B685B6803F42B
:102500008033002B03D0BA693B691343BB61344A63
:10251000BB691360324B5B68BB613B69DB43BA69E3
:102520001340BB613B685B6803F40033002B03D0AE
:10253000BA693B691343BB61294ABB695360284BA5
:102540009B68BB613B69DB43BA691340BB613B6875
:102550005B6803F48013002B03D0BA693B69134313
:10256000BB611F4ABB6993601D4BDB68BB613B6964
:10257000DB43BA691340BB613B685B6803F400133B
:10258000002B03D0BA693B691343BB61144ABB6992
:10259000D360FB690133FB61FB690F2B7FF684AECF
:1025A00000BF00BF2437BD465DF8047B704700BF05
:1025B00000380240003801400000024000040240A0
:1025C00000080240000C02400010024000140240CB
:1025D00000180240001C024000200240002402407B
:1025E000003C014080B500AF0E4B1B680D4A43F420
:1025F000007313600B4B1B680A4A43F4806313603B
:10260000084B1B68074A43F4807313600320FFF7ED
:1026100008FE0F2000F074FB00F0A4FC0023184615
:1026200080BD00BF003C024080B400AF064B1B7869
:102630001A46064B1B681344044A136000BFBD468C
:102640005DF8047B704700BF0400002034020020C6
:1026500080B400AF034B1B681846BD465DF8047B91
:10266000704700BF3402002080B582B000AF7860B0
:102670007B68002B01D101233FE07B6893F8393060
:10268000DBB2002B06D17B68002283F83820786803
:10269000FEF71EFD7B68242283F839207B681B68C7
:1026A000DA687B681B6822F40052DA60786800F010
:1026B0000BF97B681B681A697B681B6822F49042DF
:1026C0001A617B681B685A697B681B6822F02A02C2
:1026D0005A617B681B68DA687B681B6842F40052A9
:1026E000DA607B680022DA637B68202283F8392075
:1026F0007B68202283F83A20002318460837BD461D
:1027000080BD80B588B002AFF860B9603B60134609
:10271000FB8000237B61FB6893F83930DBB2202B10
:1027200040F08380BB68002B02D0FB88002B01D1D6
:1027300001237BE0FB6893F83830012B01D10223A1
:1027400074E0FB68012283F83820FB680022DA631A
:10275000FB68212283F83920FFF77AFF7861FB6854
:10276000FA889A84FB68FA88DA8442E0FB68DB8C9A
:102770009BB2013B9AB2FB68DA84FB689B68B3F5B5
:10278000805F22D13B6800937B6900228021F8683A
:1027900000F050F80346002B01D0032346E0BB684D
:1027A0003B613B691B881A46FB681B68C2F3080241
:1027B0005A60FB681B69002B03D1BB680233BB6006
:1027C00017E0BB680133BB6013E03B6800937B6993
:1027D00000228021F86800F02DF80346002B01D07C
:1027E000032323E0BB685A1CBA601A78FB681B6895
:1027F0005A60FB68DB8C9BB2002BB7D13B6800931F
:102800007B6900224021F86800F014F80346002B91
:1028100001D003230AE0FB68202283F83920FB68FB
:10282000002283F83820002300E0022318461837DE
:10283000BD4680BD80B584B000AFF860B9603B6034
:102840001346FB712CE0BB69B3F1FF3F28D0BB6995
:10285000002B07D0FFF7FCFE02463B68D31ABA698B
:102860009A421DD2FB681B68DA68FB681B6822F479
:10287000D072DA60FB681B685A69FB681B6822F03B
:1028800001025A61FB68202283F83920FB6820226C
:1028900083F83A20FB68002283F8382003230FE0F6
:1028A000FB681B681A68BB681340BA689A420CBF81
:1028B00001230023DBB21A46FB799A42C3D00023DE
:1028C00018461037BD4680BDB0B584B000AF786003
:1028D0000023FB607B681B681B69FB60FB6823F4BB
:1028E0004053FB607B68DB68FA681343FB607B68DE
:1028F0001B68FA681A617B681B68DB68FB60FB6811
:1029000023F4164323F00C03FB607B689A687B6812
:102910001B691A437B685B691A437B68DB69134355
:10292000FA681343FB607B681B68FA68DA607B68AF
:102930001B685B69FB60FB6823F44073FB607B688A
:102940009B69FA681343FB607B681B68FA685A61ED
:102950007B68DB69B3F5004F40F0E4807B681B685F
:10296000AB4A934204D07B681B68AA4A93426CD15D
:10297000FFF79AFB024613469B0013449A001A4441
:102980007B685B685B00B2FBF3F3A34AA2FB032303
:102990005B091C01FFF788FB024613469B001344AA
:1029A0009A001A447B685B685B00B2FBF3F5FFF7A3
:1029B0007BFB024613469B0013449A001A447B6833
:1029C0005B685B00B2FBF3F3934AA2FB03235B0952
:1029D000642202FB03F3EB1ADB0032338E4AA2FBC4
:1029E00003235B095B0003F4F8731C44FFF75CFBF3
:1029F000024613469B0013449A001A447B685B68A6
:102A00005B00B2FBF3F5FFF74FFB024613469B005A
:102A100013449A001A447B685B685B00B2FBF3F3D3
:102A20007D4AA2FB03235B09642202FB03F3EB1A3A
:102A3000DB003233784AA2FB03235B0903F0070271
:102A40007B681B6822449A6054E1FFF719FB024639
:102A500013469B0013449A001A447B685B685B0032
:102A6000B2FBF3F36C4AA2FB03235B091C01FFF7E3
:102A700007FB024613469B0013449A001A447B68E6
:102A80005B685B00B2FBF3F5FFF7FAFA0246134608
:102A90009B0013449A001A447B685B685B00B2FB9E
:102AA000F3F35D4AA2FB03235B09642202FB03F3F9
:102AB000EB1ADB003233584AA2FB03235B095B00AD
:102AC00003F4F8731C44FFF7DBFA024613469B003D
:102AD00013449A001A447B685B685B00B2FBF3F511
:102AE000FFF7CEFA024613469B0013449A001A449D
:102AF0007B685B685B00B2FBF3F3474AA2FB0323EE
:102B00005B09642202FB03F3EB1ADB003233424A17
:102B1000A2FB03235B0903F007027B681B682244C6
:102B20009A60E7E07B681B68394A934204D07B686F
:102B30001B68384A934271D1FFF7B6FA0246134632
:102B40009B0013449A001A447B685B689B00B2FBAD
:102B5000F3F3314AA2FB03235B091C01FFF7A4FA3C
:102B6000024613469B0013449A001A447B685B6834
:102B70009B00B2FBF3F5FFF797FA024613469B0062
:102B800013449A001A447B685B689B00B2FBF3F322
:102B9000214AA2FB03235B09642202FB03F3EB1A25
:102BA0001B0132331C4AA2FB03235B0903F0F00331
:102BB0001C44FFF779FA024613469B0013449A001F
:102BC0001A447B685B689B00B2FBF3F5FFF76CFA75
:102BD000024613469B0013449A001A447B685B68C4
:102BE0009B00B2FBF3F30C4AA2FB03235B096422B4
:102BF00002FB03F3EB1A1B013233074AA2FB032348
:102C00005B0903F00F027B681B6822449A6071E045
:102C100000100140001401401F85EB51FFF730FA0E
:102C2000024613469B0013449A001A447B685B6873
:102C30009B00B2FBF3F3314AA2FB03235B091C01A7
:102C4000FFF71EFA024613469B0013449A001A44EB
:102C50007B685B689B00B2FBF3F5FFF711FA024655
:102C600013469B0013449A001A447B685B689B00E0
:102C7000B2FBF3F3214AA2FB03235B09642202FBAC
:102C800003F3EB1A1B0132331C4AA2FB03235B093B
:102C900003F0F0031C44FFF7F3F9024613469B00D0
:102CA00013449A001A447B685B689B00B2FBF3F5FF
:102CB000FFF7E6F9024613469B0013449A001A44B4
:102CC0007B685B689B00B2FBF3F30C4AA2FB032317
:102CD0005B09642202FB03F3EB1A1B013233074A40
:102CE000A2FB03235B0903F00F027B681B682244ED
:102CF0009A60FFE700BF1037BD46B0BD1F85EB519E
:102D000080B59CB000AF78600023FB660123FB63B5
:102D100000237B654FF480333B64634B7B6307F197
:102D20003C031846FEF7BAFD0346002B40F0B7807F
:102D30002023FB6007F10C031846FEF785FA0346D3
:102D4000002B40F0AC80594B01221A60584B594A75
:102D50001A60574B00225A60554B63229A60544BBD
:102D60000922DA60524B00221A61514B00225A614B
:102D70004F4B00229A614E48FEF70AFC4C4B1B68F1
:102D8000CA225A624A4B1B6853225A62484B1B683C
:102D90009A68474B1B6822F480729A60444B1B6808
:102DA000DB68DAB2424B1B6862F4C072DA6000235F
:102DB000FB660CE0FB6E5A1CFA663F4A12683F49FC
:102DC000A1FB02125209934201D1012368E0384B62
:102DD0001B68DB6803F00103002BEBD0344B1B684E
:102DE0000122DA61324B1B689A68314B1B6842F44E
:102DF00080729A602E4B1B689A682D4B1B6842F4B8
:102E000080529A602E4B1B682D4A43F400331360A6
:102E10002B4B9B682A4A43F400339360244B1B6876
:102E2000DB6803F04003002B1BD1214B1B684FF0E4
:102E3000FF32DA600023FB660CE0FB6E5A1CFA6678
:102E40001D4A12681D49A1FB02125209934201D189
:102E5000012325E0164B1B68DB6803F04003002BC1
:102E6000EBD0134B1B6800225A60114B1B680022E9
:102E70001A600F4B1B68DA680D4B1B6822F080024A
:102E8000DA600B4B1B68FF225A6200227968292006
:102E9000FFF7D2F92920FFF7EBF9002300E0012327
:102EA00018467037BD4680BD000319003C0E4742EE
:102EB000380200200028004000000020ABAAAAAA87
:102EC000003C014080B584B000AF78600023FB6017
:102ED000FFF7AAFB7B681B68CA225A627B681B68E3
:102EE00053225A627B681B684FF0FF32DA600AE0B7
:102EF000FB685A1CFA60144A12681449A1FB0212BA
:102F00005209934207D07B681B68DB6803F04003DB
:102F1000002BEDD000E000BF7B681B6800225A60E8
:102F20007B681B6800221A607B681B68DA687B6814
:102F30001B6822F08002DA607B681B68FF225A62FD
:102F400000BF1037BD4680BD00000020ABAAAAAA72
:102F500080B500AF0248FEF7B7FB00BF80BD00BFE1
:102F60003802002080B400AF00BFBD465DF8047B8E
:102F700070470000DFF834D0002103E00C4B5B58B1
:102F8000435004310B480C4B42189A42F6D30B4A7B
:102F900002E0002342F8043B094B9A42F9D3FEF7C2
:102FA00013F900F017F8FDF7C3FF70470000032086
:102FB000CC5F000800000020D8010020D8010020CC
:102FC0006C020020FEE70000014B1868704700BF4C
:102FD0000800002070B50D4D0D4C641BA410002698
:102FE000A64209D10B4D0C4C02F0B4FD641BA41099
:102FF0000026A64205D170BD55F8043B984701361E
:10300000EEE755F8043B98470136F2E7C45F000845
:10301000C45F0008C45F0008C85F0008024403469C
:10302000934200D1704703F8011BF9E72DE9FF47F0
:1030300055EC104B002D0E4619462B46BBBF05F133
:1030400000431D4600232D230B700D9BDDF830A09F
:10305000914623F02008BCBF22461446B8F1460F23
:1030600005D0B8F1450F00D10136022100E003215F
:1030700003AB019302AB009345EC104B5346324631
:1030800000F002FEB8F1470F074602D119F0010F18
:1030900022D0B8F1460F07EB060910D13B78302B50
:1030A0000AD10022002320462946FDF71DFD18B94C
:1030B000C6F10106CAF80060DAF80030994400222F
:1030C000002320462946FDF70FFD08B1CDF80C90EE
:1030D0003022039B4B4507D3039B0E9ADB1B3846DC
:1030E000136004B0BDE8F087591C03911A70F0E733
:1030F000F7B503460029B8BF494203F8022BB4BF15
:103100002D222B22092942702ADD0DF10704A44645
:103110000A27A6460A4691FBF7F607FB1615303537
:10312000632A04F1FF340EF8015C3146F1DC3031E2
:10313000AEF1020504F8011C441C294661450AD37E
:103140000DF10902A2EB0E02654588BF002213446F
:10315000181A03B0F0BD11F8012B04F8012FEDE7A8
:10316000302330318370C170031DF1E72DE9F04F3A
:103170002DED028B8DB00C46DDF8608016461F46A3
:10318000054601F027FDD0F800A05046FDF730F8C5
:1031900000230A9323680593D8F8003094F818B0F8
:1031A000073323F0070303F10802C8F80020D3E92E
:1031B0000023C4E91223D4E9128929F000430793BC
:1031C000CDF8188008EE100A9F4BDDE906014FF09C
:1031D000FF32FDF7BBFC88BBDDE906019A4B4FF0DF
:1031E000FF32FDF795FC48BB0022002340464946CC
:1031F000FDF784FC10B12D2384F84330934B9448A1
:10320000BBF1470F94BF9846804603232361059B7B
:1032100023F0040222604FF00009009733460BAA06
:103220002146284600F0D8F9013040F090804FF058
:10323000FF300DB0BDEC028BBDE8F08F42464B462F
:1032400040464946FDF782FC40B14B46002BBCBFCF
:103250002D2384F843307F487F4BD1E763680BF020
:10326000DF0206925A1C3FD106236360059B61680A
:1032700043F48062002303930AABCDE901B309ABA9
:1032800049EC108B009322600DF123032846FFF7D1
:10329000CDFE069B0999472B804608D1C81C02DB4E
:1032A0006368994241DDABF1020B5FFA8BFBBBF126
:1032B000650F20D801395A4604F150000991FFF7F3
:1032C00017FF0A9A1318012A8146236102DC22683B
:1032D000D20701D5013323619DF82330002B9CD008
:1032E0002D2384F8433098E7069A472ABED1002B55
:1032F000BCD10123B9E7BBF1660F18D1002963687F
:103300000BDD216113B92268D00702D501330B44CC
:103310002361A1654FF00009DEE713B92268D207E7
:1033200001D50233F4E70123F2E74FF0670B0A9B64
:10333000994205DB23682161D807EAD54B1CE7E7F2
:103340000029D4BFC1F1020201221344E0E723683F
:103350005A0507D42369424631462846B84701300A
:103360002CD164E7BBF1650F40F2E080D4E9120193
:1033700000220023FDF7B8FB002834D0374A012390
:1033800031462846B84701303FF451AFDDE9092303
:103390009A4202DB2368D80710D518EE103A52463D
:1033A00031462846B84701303FF441AF4FF000089E
:1033B00004F11A090A9B013B434509DC23689B077A
:1033C00000F10581E0680B9B9842B8BF184630E7D2
:1033D00001234A4631462846B84701303FF427AF1B
:1033E00008F10108E6E7099B002B39DC1B4A0123A1
:1033F00031462846B84701303FF419AFDDE90923CB
:10340000134302D12368D907D8D518EE103A524693
:1034100031462846B84701303FF409AF4FF0000964
:1034200004F11A0A099B5B424B4501DC0A9B92E7B7
:103430000123524631462846B84701303FF4F7AEE3
:1034400009F10109EEE700BFFFFFEF7F9C5B000879
:10345000A05B0008A85B0008A45B0008AC5B000848
:103460000A9AA36D9A42A8BF1A46002A914637DCF1
:103470004FF0000B29EAE97904F11A02A36D0593D4
:10348000A3EB09035B4533DCDDE909239A423BDB0F
:103490002368DA0738D40A9B059A09999A1AA3EB8C
:1034A00001099145A8BF9146B9F1000F35DC4FF0F5
:1034B000000829EAE97904F11A0ADDE909239B1ACF
:1034C000A3EB090343457FF779AF01235246314609
:1034D0002846B84701303FF4AAAE08F10108ECE7EE
:1034E0001346314642462846B8470130C0D19EE6D1
:1034F0000123314628460592B84701303FF497AE84
:10350000059A0BF1010BB9E718EE103A5246314615
:103510002846B8470130BED189E6059A4B46424459
:1035200031462846B8470130C1D180E60A9A012ABF
:1035300001DCDB0738D50123424631462846B8472F
:1035400001303FF474AE18EE103A52463146284628
:10355000B84701303FF46BAED4E9120100220023DA
:10356000FDF7C2FAD8B90A9B08F10102013B3146C6
:103570002846B84701300ED159E60123524631465C
:103580002846B84701303FF452AE08F101080A9BC3
:10359000013B4345F1DC4B4604F15002DCE64FF0C1
:1035A000000804F11A0AF2E701234246DFE701238B
:1035B0004A4631462846B84701303FF438AE08F154
:1035C0000108E3680B995B1A4345F0DCFAE64FF01B
:1035D000000804F11909F4E72DE9F0471646994669
:1035E0008A680B69DDF820809342B8BF13463360C8
:1035F00091F8432007460C460AB101333360236833
:10360000990642BF336802333360256815F006051A
:1036100006D104F1190AE36832689B1AAB4226DC32
:1036200094F84320131E226818BF012392062BD45E
:1036300004F1430249463846C04701301ED0236892
:10364000E568326803F00603042B08BFAD1AA368CF
:1036500022690CBF25EAE57500259342C4BF9B1A79
:10366000ED1800261A34B5421AD1002008E00123D3
:10367000524649463846C047013003D14FF0FF302B
:10368000BDE8F0870135C6E7E1185A1C302081F803
:103690004300224494F8451082F843100233C7E7F0
:1036A0000123224649463846C0470130E6D001365C
:1036B000D9E700002DE9FF470F7E0C9D782F91463A
:1036C00080460C469A4601F1430207D8622F0AD879
:1036D000002F00F0D880582F00F0A38004F142059D
:1036E00084F842703AE0A7F16303152BF6D801A1E4
:1036F00051F823F04D37000861370008DD36000827
:10370000DD360008DD360008DD36000861370008C8
:10371000DD360008DD360008DD360008DD3600083D
:103720006D380008913700084F380008DD36000872
:10373000DD3600088F380008DD36000891370008B4
:10374000DD360008DD360008573800082B681A1DE2
:103750001B682A6004F1420584F842300123A3E08B
:1037600020682968060601F104030AD50E682B605B
:10377000002E03DA2D23764284F843305E480A2374
:1037800019E00E682B6010F0400F18BF36B2EFE75B
:103790002B682068191D2960010601D51E6802E00A
:1037A0004606FBD51E8854486F2F0CBF08230A23FA
:1037B000002184F843106568A560002DA2BF216830
:1037C00021F0040121600EB9002D4DD01546B6FB45
:1037D000F3F103FB1167C75D05F8017D3746BB4276
:1037E0000E46F4D9082B0BD12368DE0708D52369D0
:1037F00061689942DEBF302305F8013C05F1FF35D1
:10380000521B2261CDF800A04B4603AA2146404638
:10381000FFF7E2FE01304CD14FF0FF3004B0BDE8BD
:10382000F087354881F845702968236851F8046BA2
:1038300029601D0614D5DF0744BF43F02003236031
:103840001EB9236823F0200323601023B0E7236808
:1038500043F0200323607823284884F84530E3E7C9
:10386000590648BFB6B2E6E71546BBE72B6826689F
:103870006169181D286035061B6801D5196002E0D2
:103880007006FBD51980002323611546BAE72B6823
:103890001A1D2A601D68626800212846FCF7B0FCEA
:1038A00008B1401B606063682361002384F84330E3
:1038B000A8E723692A4649464046D0470130ABD0A5
:1038C00023689B0713D4E068039B9842B8BF18464F
:1038D000A4E70123324649464046D04701309BD0F9
:1038E0000135E36803995B1AAB42F2DCEBE7002594
:1038F00004F11906F5E700BFAE5B0008BF5B0008E6
:1039000070B50E46054618B183690BB901F0C4F8CD
:10391000AB69AC6813B9284601F0BEF82C4B9C4249
:1039200020D16C68636EDB0705D4A389980502D4A7
:10393000A06D01F054F9A38919071DD52369DBB1E6
:10394000013EA36816F8011F013BA36039BB002BA1
:1039500038DA22460A21284600F048F8013011D012
:103960000A2511E01B4B9C4201D1AC68DAE71A4BE7
:103970009C4208BFEC68D5E72146284600F088F84D
:103980000028DDD04FF0FF35636EDA0705D4A38938
:103990009B0502D4A06D01F023F9284670BD002BD1
:1039A00004DAA2699A4206DC0A2904D023685A1C68
:1039B00022601970C5E72246284600F017F801304A
:1039C000BFD1DFE723680A255A1C22601D70DBE7A0
:1039D000A45C0008C45C0008845C0008024B01463B
:1039E0001868FFF78DBF00BF08000020F8B50E462D
:1039F0001446054618B183690BB901F04DF8214B07
:103A00009C422BD16C68A369A360A3891A072FD5A8
:103A100023696BB323692068C01A6369F6B28342D5
:103A2000374604DC2146284600F0A2FF30BBA368DD
:103A3000013BA36023685A1C22601E706369013039
:103A4000834204D0A389DB0706D50A2E04D1214680
:103A5000284600F08DFF88B93846F8BD0A4B9C42D5
:103A600001D1AC68CFE7094B9C4208BFEC68CAE7BC
:103A70002146284600F00CF80028CBD04FF0FF3745
:103A8000EAE700BFA45C0008C45C0008845C00088E
:103A9000324B70B51D6806460C4625B1AB6913B9AB
:103AA000284600F0F9FF2E4B9C420FD16C68A38989
:103AB000B4F90C2019072CD4DD0611D40923336086
:103AC00042F04003A3814FF0FF303EE0254B9C4283
:103AD00001D1AC68EBE7244B9C4208BFEC68E6E7F9
:103AE000580712D5616B41B104F14403994202D0E9
:103AF000304601F085FC00236363A38923F024038F
:103B0000A3810023636023692360A38943F0080332
:103B1000A38123694BB9A38903F42073B3F5007F14
:103B200003D02146304601F081F8A089B4F90C2079
:103B300010F001030AD00023A36063695B42A36114
:103B4000236943B910F08000BAD170BD810758BF16
:103B50006369A360F4E70020F7E700BF08000020D6
:103B6000A45C0008C45C0008845C00082DE9F74FE1
:103B700003690C69A3420746C0F28180013C01F150
:103B8000140800F1140505EB8403019358F8243060
:103B900055F8242001339A424FEA840B08EB84093C
:103BA000B2FBF3F631D34FF0000E4046AC46F2467E
:103BB00050F8042B93B206FB03E34FEA134E9BB27B
:103BC000AAEB0303120CDCF800A006FB02E213FAD6
:103BD0008AF34FEA124E1FFA82FADCF80020CAEB91
:103BE000124202EB23429BB243EA024381454CF866
:103BF000043B4FEA224ADBD255F80B302BB9019B2C
:103C0000043B9D421A462ED33C61384601F0E6FA49
:103C1000002824DB013628464FF0000C58F8042B0E
:103C2000D0F800E093B2ACEB0303120C13FA8EF35E
:103C3000C2EB1E4202EB23429BB243EA0243C14560
:103C400040F8043B4FEA224CE8D255F8242005EB1B
:103C5000840322B9043B9D421A460AD33C61304694
:103C600003B0BDE8F08F1268043B002ACCD1013CC0
:103C7000C7E71268043B002AF0D1013CEBE70020C3
:103C8000EEE70000000000002DE9F04F2DED048B61
:103C900057EC106B93B0456ADDF88080069110EE0A
:103CA00010AA044609920C93BB4675B9102000F087
:103CB000FDFF0246606220B9A74BEA21A74801F048
:103CC000ABFCC0E901550560C560636A196851B174
:103CD0005A684A60012393408B60204601F03CF80B
:103CE000636A00221A603B1EAABF002323F0004B28
:103CF000C8F800309A4BBCBF0122C8F8002033EA54
:103D00000B031BD10C9A42F20F731360CBF3130316
:103D1000334300F09285219B63B9924B22E0924B92
:103D200001930833219A1360019813B0BDEC048B02
:103D3000BDE8F08F8B4B01930333F3E700220023A0
:103D400050465946FCF7D0FE4BEC19AB804658B1B3
:103D50000C9A01231360219B002B00F06B85834894
:103D60001860431E0193DFE74BEC10AB10AA11A9BA
:103D7000204601F0D9FACBF30A5508EE100A002DBF
:103D800000F0848019EE903AC3F3130343F07F5799
:103D9000564647F44017A5F2FF35CDF83880744BEE
:103DA000002230463946FCF77FFA65A3D3E90023A9
:103DB000FCF732FC64A3D3E90023FCF777FA06464C
:103DC00028460F46FCF7BEFB61A3D3E90023FCF7AE
:103DD00023FC02460B4630463946FCF767FA064696
:103DE0000F46FCF7C9FE00220090002330463946FA
:103DF000FCF784FE50B10098FCF7A4FB32463B462A
:103E0000FCF772FE10B9009B013B0093009B162B40
:103E10005AD8009A574B03EBC203D3E9002351EC65
:103E2000190BFCF76BFE002850D0009B013B009360
:103E300000230B93109B5D1B6B1E059345BFC5F1C3
:103E400001030493002300234CBF05930493009BBC
:103E5000002B3DDB059B009A0A9213440593002337
:103E60000793069B092B00F28980052BC4BF043BF6
:103E70000693069BA3F10203CCBF00250125032B6B
:103E800000F28780DFE803F02D3A3859DDE910535E
:103E90001D4405F23243202BC1BFC3F1400305F29C
:103EA00012400BFA03F326FA00F0DABFC3F1200345
:103EB00006FA03F01843FCF735FB01230646A1F18F
:103EC000F877013D0E936AE70123B2E70B90B1E763
:103ED000049B009A9B1A04935342079300230A936E
:103EE000BFE700230893099B002B55DC0123CDE994
:103EF00002331A4609920CE00123F3E70023099AE2
:103F00000893009B134402930133012B0393B8BF22
:103F10000123606A00224260042202F114069E42DC
:103F200041683DD9204600F0D7FE019000283BD1E2
:103F3000114B02464FF4D571C0E60123DFE700BF05
:103F400061436F63A787D23FB3C8608B288AC63F9F
:103F5000FB799F501344D33FDD5B0008F45B0008FE
:103F60000000F07FD95B0008D05B0008AD5B000863
:103F70000000F83F905D0008715C000801250023F7
:103F8000069308954FF0FF33CDE902330022122348
:103F9000B0E701230893F5E7099BCDE90233B8E7C1
:103FA000013141605200B8E7636A019A1A60039BCD
:103FB0000E2B00F29D80002D00F09A80009B002BBC
:103FC00032DDB74A03F00F0302EBC303D3E90089E4
:103FD000009BD8054FEA231716D5B24B51EC190BAD
:103FE000D3E90823FCF742FC07F00F0782468B4613
:103FF0000325AC4E57B942464B4650465946FCF74E
:1040000035FC82468B4628E00225F2E7F90708D501
:1040100040464946D6E90023FCF7FEFA01358046C2
:1040200089467F100836E5E700F09B80009B9D4F96
:104030005E429B4B06F00F0203EBC203D3E9002361
:1040400051EC190BFCF7E8FA361182468B46002337
:104050000225002E7AD1002BD3D10B9B002B00F030
:104060008280914B002250465946FCF747FD0028BC
:1040700079D0039B002B76D0029B002B36DD009B72
:10408000504659465F1E0022884BFCF7C5FA029E37
:1040900082468B4601352846FCF754FA52465B4669
:1040A000FCF7BAFA824B0022FCF700F9D046D94659
:1040B0008246A1F1507B002E58D17E4B0022404613
:1040C0004946FCF7F1F852465B4680468946FCF7C4
:1040D00033FD002840F0958252460BF100434046E4
:1040E0004946FCF70BFD002840F089825BEC19ABD8
:1040F000119B002BC0F24881009A0E2A00F34481E4
:10410000674B03EBC203D3E90089099B002B80F2C4
:10411000D580039B002B00F3D18040F06F82654B6C
:10412000002240464946FCF777FA52465B46FCF7C8
:10413000F9FC039E3746002840F04582019D31235B
:1041400005F8013B009B0133009340E2F20705D5DF
:10415000D7E90023FCF760FA013501237610083710
:1041600077E7022579E7009F039E94E701994C4B7E
:1041700031440D91089903EBC60353E9022300294A
:1041800043D04D490020FCF771FB52465B46FCF7DB
:104190008BF8019D82468B4649464046FCF7ECFC75
:1041A0000646FCF7CFF902460B4640464946FCF767
:1041B0007BF8303605F8016B52465B4680468946EF
:1041C000FCF79CFC002863D142464B463649002050
:1041D000FCF76AF852465B46FCF790FC002840F07A
:1041E000B5800D9B9D4281D0304B002250465946F0
:1041F000FCF712FA2D4B82468B4640464946002278
:10420000FCF70AFA80468946C6E750465946FCF74D
:1042100003FA0D9B019D0F9382468B46494640460B
:10422000FCF7AAFC0646FCF78DF9303602460B4631
:1042300040464946FCF738F805F8016B0D9B9D4256
:10424000804689464FF0000224D11B4B5046594608
:10425000FCF72CF802460B4640464946FCF76CFC3E
:10426000002873D152465B4613490020FCF71CF826
:1042700002460B4640464946FCF740FC00283FF406
:1042800035AF0F9D6B1E0F9315F8013C302BF8D006
:10429000009749E0054BFCF7BFF980468946BDE72A
:1042A000905D0008685D00080000F03F00002440B9
:1042B00000001C40000014400000E03F019D5646F5
:1042C0005F4642464B4630463946FCF7CFFAFCF78C
:1042D00053FC8246FCF736F942464B46FCF79CF904
:1042E00002460B46304639460AF13006FBF7DCFF42
:1042F00005F8016B019E039FAE1BB74202460B46B9
:1043000035D1FBF7D3FF42464B4606460F46FCF736
:1043100013FCD0B942464B4630463946FCF7E4FB25
:1043200010B11AF0010F10D1204618EE101A00F04B
:1043300013FD002300982B700C9B01301860219B0B
:10434000002B3FF4F1AC1D60EEE4009F2B461D46B0
:1043500013F8012D392A06D1019A9A42F7D1019911
:10436000302201370A701A7801321A7090E7A64B92
:104370000022FCF751F90022002306460F46FCF705
:10438000B3FB00289DD0CFE7089A002A00F0D78021
:10439000069A012A00F3BA800E9A002A00F0B28031
:1043A00003F23343079E049D049A1A440492059A2B
:1043B00001211A442046059200F086FD0746002D93
:1043C0000CDD059B002B09DDAB42049AA8BF2B46F0
:1043D000D21A0492059AED1AD31A0593079B1BB3C0
:1043E000089B002B00F0AF80002E13DD39463246CB
:1043F000204600F029FE18EE102A01460746204606
:1044000000F078FD18EE101A8046204600F0A4FC5B
:1044100008EE108A079B9A1B06D018EE101A204649
:1044200000F012FE08EE100A0121204600F04CFDBB
:104430000A9B002B064640F388801A460146204618
:1044400000F002FE069B012B064640F381804FF0F0
:104450000008336906EB8303186900F0E5FCC0F13E
:104460002000059B184410F01F0000F09280C0F15E
:104470002003042B40F38A80C0F11C00049B0344FA
:104480000493059B034405440593049B002B07DD1F
:1044900018EE101A1A46204600F030FE08EE100AF8
:1044A000059B002B05DD31461A46204600F026FE0E
:1044B00006460B9B002B6ED018EE100A314600F01A
:1044C0008DFE002867DA009B013B18EE101A00935E
:1044D0000A220023204600F061FC089B08EE100A27
:1044E000002B00F0B181002339460A22204600F05B
:1044F00055FC029B002B074600F38E80069B022B87
:1045000051DC89E0109BC3F136034BE7039B5E1E31
:10451000079BB342BFBF079B0796F21A0A9BB6BF21
:104520009B189E1B0A93039BB8BF0026002BB7BFA6
:10453000DDE90323DDE903359D1A002334E7079EF7
:10454000049D089F3BE7079A67E7069B012B18DC51
:10455000BAF1000F15D1CBF3130393B92BF000433D
:104560001B0D1B0583B1049B01330493059B013391
:1045700005934FF001080A9B002B7FF46AAF0120DE
:104580006FE74FF00008F6E79846F4E73FF47DAF99
:1045900018461C3072E7039B002B37DC069B022B6E
:1045A00034DD039B0293029B6BB931460522204602
:1045B00000F0F4FB0146064618EE100A00F00EFE6D
:1045C00000283FF7BBAD099B019DDB4300934FF0F3
:1045D00000083146204600F0BFFB002F3FF4A4AE98
:1045E000B8F1000F05D0B84503D04146204600F091
:1045F000B3FB3946204600F0AFFB95E60026374670
:10460000E1E70097374699E500002440089B002B1E
:1046100000F0CA80039B0293002D05DD39462A462F
:10462000204600F06BFD0746B8F1000F5BD07968BB
:10463000204600F051FB054628B9874B024640F260
:10464000EA21FFF73BBB3A690232920007F10C0105
:104650000C3000F033FB01222946204600F04EFDCD
:10466000019B03F10109DDE90123134405930AF0DD
:104670000103B84604930746314618EE100AFFF7C7
:1046800075FA4146029000F1300A18EE100A00F067
:10469000A5FD3A4603903146204600F0BBFDC268B6
:1046A00009F1FF3B054602BB014618EE100A00F077
:1046B00095FD024629462046079200F04DFBDDE9B4
:1046C000063243EA0201049B0B434D460FD1BAF177
:1046D000390F2AD0039B002B02DD029B03F1310A24
:1046E0008BF800A075E73846BAE70122E2E7039BA2
:1046F000002B04DB06990B4304990B4322D1002ABB
:10470000EEDD18EE101A0122204600F0F7FC3146CB
:1047100008EE100A00F062FD002803DCE0D11AF078
:10472000010FDDD0BAF1390FD7D139238BF8003022
:104730002B461D46013B15F8012C392A71D0013258
:104740001A7046E7002A07DDBAF1390FEDD00AF1F9
:1047500001038BF800303CE7059B09F801AC994553
:1047600047D018EE101A00230A22204600F016FB4C
:10477000B84508EE100A4FF000034FF00A02414618
:10478000204606D100F00AFB8046074609F10109E0
:1047900072E700F003FB3946804600230A222046D8
:1047A00000F0FCFA0746F1E7039B0293019D18EE27
:1047B000100A3146FFF7DAF900F1300A019B05F8DB
:1047C00001ABEA1A029B934209DD18EE101A00238E
:1047D0000A22204600F0E2FA08EE100AE7E7029B00
:1047E000002BC8BF1D46019BD8BF01251D444FF0BB
:1047F000000818EE101A0122204600F07FFC314616
:1048000008EE100A00F0EAFC002891DC02D11AF050
:10481000010F8DD12B461D4613F8012D302AFAD0F9
:10482000D7E6019A9A4284D1009B01330093312349
:104830001370CEE6094BFFF795BA219B002B7FF44E
:104840006EAA074BFFF78EBA029B002BAEDC069BCD
:10485000022B3FF7A8AEA9E7715C0008AC5B00082B
:10486000D05B00088A892DE9F041054610070C4607
:1048700058D44B68002B05DC0B6C002B02DC0020AD
:10488000BDE8F081E66A002EF9D0002312F48052D0
:104890002F682B6032D0606DA3895A0705D56368F5
:1048A000C01A636B0BB1236CC01A00230246E66A80
:1048B000216A2846B047431CA38906D129681D29CF
:1048C0002CD82A4ACA40D60728D500226260D904CB
:1048D0002269226004D5421C01D12B6803B96065AE
:1048E000616B2F600029CAD004F14403994202D0C1
:1048F000284600F085FD00206063C1E7216A01239E
:104900002846B047411CC7D12B68002BC4D01D2BB3
:1049100001D0162B01D12F60B1E7A38943F04003EA
:10492000A381ADE70F69002FA9D093070E6808BFD8
:104930004B690F6018BF0023A6EB07088B60B8F126
:10494000000F9CDD216AA66A43463A462846B047D6
:10495000002806DCA38943F04003A3814FF0FF3019
:104960008EE70744A8EB0008E9E700BF01004020FC
:1049700038B50B6905460C4613B90025284638BDE5
:1049800018B183690BB900F087F8144B9C421BD116
:104990006C68B4F90C30002BEFD0626ED00704D4F1
:1049A000990502D4A06D00F01AF928462146FFF7B8
:1049B00059FF636EDA070546E0D4A3899B05DDD471
:1049C000A06D00F00DF9D9E7054B9C4201D1AC6810
:1049D000DFE7044B9C4208BFEC68DAE7A45C000800
:1049E000C45C0008845C0008002310B50446C0E9DC
:1049F0000033C0E90433836081814366C2818361EF
:104A0000194608225C30FEF709FB054B6362054B33
:104A1000A362054BE362054B2462236310BD00BF14
:104A20006D5500088F550008C7550008EB55000864
:104A3000014900F0AFB800BF7149000870B56822A5
:104A40004D1E55430E4605F1740100F025FD044648
:104A500040B10021C0E900160C30A06005F16802E9
:104A6000FEF7DCFA204670BD014800F0B8B800BF80
:104A700059020020014800F0B3B800BF59020020DD
:104A8000014800F0ACB800BF5A020020014800F015
:104A9000A7B800BF5A02002010B50446FFF7F0FF88
:104AA000A3691BB1BDE81040FFF7F0BFC4E91233A2
:104AB0002365134B134A1B68A262A34204BF012360
:104AC000A361204600F020F86060204600F01CF84A
:104AD000A060204600F018F80022E0600421606821
:104AE000FFF782FFA06801220921FFF77DFFE06840
:104AF00002221221FFF778FF0123A361D2E700BF52
:104B0000985B0008314A0008F8B50746FFF7ACFF8C
:104B10001E4B1E68B36913B93046FFF7BDFF483618
:104B2000D6E90134013B03D533680BB33668F7E7A8
:104B3000B4F90C50D5B9164BE36004F15800656622
:104B400000F04CF8FFF796FFC4E90155C4E904559D
:104B50002560A5610822294604F15C00FEF75EFA93
:104B6000C4E90D55C4E912552046F8BD6834D9E7AB
:104B700004213846FFF762FF044630600028D5D193
:104B8000FFF778FF0C233B60EEE700BF985B00085F
:104B90000100FFFF2DE9F8430646884600F148046E
:104BA0000027D4E90195B9F1010905D52468002C45
:104BB000F7D13846BDE8F883AB89012B07D9B5F9A1
:104BC0000E30013303D029463046C04707436835CD
:104BD000E9E70000004870475C010020704770471B
:104BE000704770B50E46B1F90E10002996B0144604
:104BF0001D4608DAB6F90C3000222A601A0610D4D5
:104C00004FF480630EE06A4600F046FD0028F1DBB9
:104C1000019A02F47042A2F500535A425A412A60A6
:104C2000EEE740230020236016B070BD8B8973B57A
:104C30009D0706460C4607D504F147032360236110
:104C40000123636102B070BD01AB6A46FFF7C9FF83
:104C500000990546304600F01FFC48B9B4F90C3005
:104C60009A05EFD423F0030343F00203A381E3E7A3
:104C70000D4BB362A389206043F08003A381009BA6
:104C80006361019B20615BB1B4F90E10304600F006
:104C900015FD28B1A38923F0030343F00103A38189
:104CA000A0890543A581CDE7314A0008024B0146A2
:104CB000186800F0F1BB00BF080000200A449142D0
:104CC00000F1FF3300D1704710B511F8014B03F824
:104CD000014F9142F9D110BD70B5466A04460D46A8
:104CE00076B91020FFF7E2FF0246606220B9184B48
:104CF0001848662100F090FCC0E901660660C660B5
:104D0000666AF36883B1636ADB6853F82500B8B953
:104D1000012101FA05F6721D9200204600F060FBA9
:104D200060B1C0E901560EE021220421204600F0C6
:104D300057FB636AF060DB68002BE4D1002070BD94
:104D4000026843F825200023C0E90333F7E700BFDA
:104D5000DD5B0008E45C000870B5466A05460C4659
:104D600076B91020FFF7A2FF0246686220B9094B0E
:104D700009488A2100F050FCC0E901660660C6605F
:104D80003CB16B6A6268DB6853F82210216043F81B
:104D9000224070BDDD5B0008E45C00082DE9F041B5
:104DA0000D6907460C461E4601F1140C0020DCF884
:104DB000003099B202FB01611E0C0B0C02FB0633A2
:104DC00089B2013001EB034185424CF8041B4FEAE4
:104DD0001346ECDC0EB3A368AB4219DC61683846BD
:104DE0000131FFF779FF804628B902460C4B0D4888
:104DF000B52100F011FC2269023204F10C0192008D
:104E00000C30FFF75BFF21463846FFF7A5FF44460D
:104E100004EB850301355E6125612046BDE8F08124
:104E2000715C0008E45C0008030C1B04D3B90004A7
:104E3000102310F07F4F04BF0002083310F0704FB2
:104E400004BF0001043310F0404F04BF8000023360
:104E5000002805DB10F0804F03F1010308BF202379
:104E6000184670470023E4E7036813F00702014681
:104E70000BD0DA0723D4980749BF5B089B080120B1
:104E80000B605CBF0B600220704798B2A8B91B0C86
:104E90001020DAB20AB908301B0A1A0704BF1B092E
:104EA00004309A0704BF9B080230DA0703D45B087A
:104EB00000F1010005D00B6070471046E9E70020C3
:104EC000704720207047000010B50C460121FFF705
:104ED00003FF024628B9054B05484FF4A07100F0C6
:104EE0009BFB01234461036110BD00BF715C00089E
:104EF000E45C00082DE9F04F91460A69D9F81030BA
:104F00009A42B8BF0B460C46BCBF4C46994627692F
:104F1000D9F810A0A368616807EB0A06B34285B010
:104F2000B8BF0131FFF7D8FE30B90246444B4548BF
:104F300040F25D1100F070FB00F1140505EB8608EE
:104F40002B460022434521D304F1140303EB8707CA
:104F500009F1140303EB8A0202923A1B153A22F07C
:104F60000302043204F115018F4238BF042201927A
:104F7000029A03939A420CD8002E03DD58F8043DA0
:104F8000002B5AD0066105B0BDE8F08F43F8042B22
:104F9000D8E7B3F800A0BAF1000F24D004F1140E42
:104FA000A9464FF0000C5EF8042BD9F800101FFA48
:104FB00082FB89B20AFB0B114FEA124BD9F8002091
:104FC00061444FEA124C0AFB0BC202EB114289B258
:104FD00041EA0241774549F8041B4FEA124CE2D8F6
:104FE000019A45F802C0039AB2F802900433B9F16D
:104FF000000F20D0296804F1140CAE464FF0000ACF
:10500000BCF800B0BEF8022009FB0B22924489B222
:1050100041EA0A414EF8041B5CF8042BBEF800106C
:10502000120C09FB021101EB1A4167454FEA114AC4
:10503000E6D8019AA95004359AE7013E9CE700BFE3
:10504000715C0008E45C00082DE9F843154612F095
:10505000030206460F4607D0254C013A002354F8B8
:105060002220FFF79BFE0746AD103DD0746A7CB945
:105070001020FFF71BFE0246706228B91D4B1E4828
:105080004FF4D77100F0C8FAC0E901440460C4606D
:10509000D6F82480D8F808404CB940F27121304647
:1050A000FFF712FF0023C8F80800044603604FF022
:1050B0000009EB070AD5394622463046FFF71AFFAA
:1050C000394680463046FFF747FE47466D100BD005
:1050D000206838B9224621463046FFF70BFF206092
:1050E000C0F800900446E4E73846BDE8F88300BF06
:1050F000585E0008DD5B0008E45C00082DE9F0471D
:105100000C464968236903EB6218A3680746914679
:105110004FEA621A08F10106B3420BDB3846FFF78B
:10512000DBFD054648B902462A4B2B4840F2D9110F
:1051300000F072FA01315B00EEE7002300F1140188
:1051400000F110021846534537DB20692AEAEA7A53
:1051500004F1140319F01F0901EB8A0103EB80002D
:105160002FD0C9F1200E8A464FF0000C1A6802FABF
:1051700009F242EA0C024AF8042B53F8042B984235
:1051800022FA0EFCF2D8031B153B23F00303043371
:1051900004F11502904238BF042341F803C0BCF16A
:1051A000000F01D008F10206013E38462E6121466B
:1051B000FFF7D2FD2846BDE8F08742F8040F01331F
:1051C000C1E7043953F8042B41F8042F9842F9D869
:1051D000EAE700BF715C0008E45C000830B50269D2
:1051E0000C69121B0ED100F11403143103EB84007F
:1051F00001EB840150F8045D51F8044DA54203D041
:1052000005D30122104630BD8342F3D3FAE74FF0B5
:10521000FF32F7E72DE9F84F0C46064611462046C7
:105220009046FFF7DBFF051E10D129463046FFF7F9
:1052300053FD30B93A4B024640F23221394800F072
:10524000EBF90123C0E90435BDE8F88FA4BF43465C
:10525000A0463046D8F80410A6BF1C4600250125FC
:10526000FFF73AFD20B92E4B02464FF41071E5E7E7
:10527000D8F810702669C56004F1140908F1140506
:1052800000F1140E05EB870C09EB860608F11002FD
:10529000F246002159F8043B52F804BF1FFA83F884
:1052A00011FA8BF11B0CA1EB0808C3EB1B4303EBBA
:1052B00028431FFA88F819144E4548EA03434AF870
:1052C000043BE7D8331B153B23F0030304331534A9
:1052D000A64238BF04231D4473449E462E466645AD
:1052E0000ED30CF10302521B22F00302033DAC4526
:1052F00038BF00221A4452F8043D7BB10761A3E78E
:1053000056F8048B11FA88F2141404EB184492B284
:1053100042EA04424EF8042B2114E0E7013FEAE799
:10532000715C0008E45C00082DE9F743894601211F
:1053300057EC106B9046FFF7CFFC044630B902469D
:10534000254B264840F20A3100F066F9C7F30A55AA
:10535000C7F3130335BB002E019328D0684600968F
:10536000FFF782FD009900B3019AC0F1200302FA11
:1053700003F30B43C24063610192019BA361002BC5
:1053800014BF022201222261D5B1A5F233450544A2
:10539000C9F80050C0F13500C8F80000204603B03D
:1053A000BDE8F08343F48013D5E76161E5E701A828
:1053B000FFF75AFD019B6361012222612030E3E780
:1053C00004EB8203A0F23240C9F800001869FFF72D
:1053D0002BFDC0EB4210DFE7715C0008E45C0008C5
:1053E00013B54A431146019200F056F8044618B12D
:1053F000019A0021FDF712FE204602B010BD000008
:1054000037B5002944D051F8043C0190002BA1F19C
:105410000404B8BFE41800F085F91E4A0198136827
:1054200033B96360146003B0BDE8304000F080B968
:10543000A34208D9256861198B4201BF19685B68CE
:1054400049192160EDE71A465B680BB1A342FAD90E
:1054500011685518A5420BD1246821445418A34261
:105460001160E0D11C685B68536021441160DAE789
:1054700002D90C230360D6E7256861198B4204BF6B
:1054800019685B68636004BF491921605460CAE70A
:1054900003B030BD5C020020F8B5CD1C25F003053B
:1054A00008350C2D38BF0C25002D064601DBA9421E
:1054B00003D90C2333600020F8BD00F033F92149F3
:1054C0000A6814469CB9204F3B6823B921463046F0
:1054D00000F03CF838602946304600F037F8431CAD
:1054E00023D10C233360304600F022F9E3E7236830
:1054F0005B1B17D40B2B03D923601C44256004E0ED
:105500006368A2420CBF0B605360304600F010F994
:1055100004F10B00231D20F00700C21ACCD01B1A87
:10552000A350C9E722466468CCE7C41C24F00304F6
:10553000A042E3D0211A304600F008F80130DDD156
:10554000CFE700BF5C0200206002002038B5064DA6
:105550000023044608462B6000F0ECFA431C02D1FD
:105560002B6803B1236038BD6402002010B50C46DF
:10557000B1F90E1000F03CFA0028ABBF636DA389AF
:105580001B1823F48053ACBF6365A38110BD2DE9C4
:10559000F0411F468B89DB0505460C46164605D5AE
:1055A000B1F90E100223002200F098F8A389B4F993
:1055B0000E1023F48053A38132463B462846BDE8B3
:1055C000F04100F017B810B50C46B1F90E1000F01C
:1055D00085F8431CA38915BF606523F4805343F409
:1055E0008053A38118BFA38110BDB1F90E1000F044
:1055F00031B8000038B5074D044608461146002270
:105600002A601A46FBF7B6FD431C02D12B6803B192
:10561000236038BD640200201FB514461A46094BAA
:105620001B680546D8684CB1074B0091CDE90134A1
:1056300006492B4600F01EF800F0F9F9044B1C4611
:10564000F3E700BF08000020645E0008715E0008F8
:105650009F5E000838B5064D0023044608462B60BF
:1056600000F030FA431C02D12B6803B1236038BD2F
:10567000640200200EB403B5014603AB054853F89D
:10568000042B0068019300F083F802B05DF804EB8E
:1056900003B070470800002038B5074D00230446CA
:1056A000084611462B6000F015FA431C02D12B6806
:1056B00003B1236038BD00BF6402002038B5064D39
:1056C0000023044608462B6000F014FA431C02D164
:1056D0002B6803B1236038BD6402002038B5074D44
:1056E00004460846114600222A601A4600F012FAC3
:1056F000431C02D12B6803B1236038BD6402002033
:1057000082B001B901A942B14BB113780B60127894
:10571000101E18BF012002B070471046FBE76FF063
:105720000100F8E70148FFF75ABA00BF580200200D
:105730000148FFF755BA00BF580200209368013BAB
:10574000002B10B4936008DA9469A34201DB0A29A4
:1057500003D15DF8044BFEF749B91368581C10607B
:10576000197008465DF8044B7047F8B506460F46B9
:105770001446D518AC4201D1002007E014F8011BF3
:105780003A463046FFF7DAFF431CF3D1F8BD00007C
:105790002DE9F04F0D469DB014469846064618B1C7
:1057A00083690BB9FFF778F9894B9D421BD1756866
:1057B0006B6ED90705D4AB899A0502D4A86DFFF7A3
:1057C0000EFAAB891B0701D52B69EBB92946304688
:1057D000FEF75EF9C0B16B6EDC070ED54FF0FF30FF
:1057E0001DB0BDE8F08F7B4B9D4201D1B568DFE76E
:1057F000794B9D4208BFF568DAE7AB899805EDD48F
:10580000A86DFFF7EDF9E9E70023099320238DF850
:105810002930CDF80C803023DFF8C0818DF82A3094
:105820004FF0010923469A4613F8012B0AB1252AA5
:10583000F9D1BAEB040B0BD05B4622462946304621
:10584000FFF793FF013000F0AA80099A5A440992A9
:105850009AF80030002B00F0A28000234FF0FF32B6
:10586000CDE905230AF1010A049307938DF853301B
:105870001A935446052214F8011B5848FAF7C0FC45
:10588000049AD8B9D10644BF20238DF853301307AA
:1058900044BF2B238DF853309AF800302A2B15D0B3
:1058A000079A544600204FF00A0C214611F8013B9C
:1058B000303B092B4ED9B0B1079214E0A0EB08039E
:1058C00009FA03F313430493A246D2E7039B191D7D
:1058D0001B680391002BBBBF5B4242F0020207939F
:1058E0000793B8BF049223782E2B0CD163782A2B10
:1058F00035D1039B1A1D1B680392002BB8BF4FF0D4
:10590000FF3302340593DFF8E4A0217803225046E8
:10591000FAF776FC40B14023A0EB0A0003FA00F04E
:10592000049B03430134049314F8011B2C488DF8A5
:1059300028100622FAF764FC00283FD0294B1BBB35
:10594000039B073323F0070308330393099B3B446E
:10595000099367E70CFB02320C460120A5E7002300
:105960000134059319464FF00A0C204610F8012B1C
:10597000303A092A03D9002BC5D00591C3E70CFBA7
:10598000012104460123F0E703AB00932A46164B9E
:1059900004A93046FDF7EAFB0746781CD6D16B6EAA
:1059A000D90705D4AB899A0502D4A86DFFF718F979
:1059B000AB895B063FF512AF099811E703AB009383
:1059C0002A46094B04A93046FDF774FEE4E700BF00
:1059D000A45C0008C45C0008845C0008AA5E00089F
:1059E000B45E00086D3100086B570008B05E000817
:1059F00038B5074D04460846114600222A601A466B
:105A000000F090F8431C02D12B6803B1236038BD2D
:105A10006402002049B1FF2A85BF8A2303600A700F
:105A20004FF0FF3098BF012070470846704708B517
:105A3000062000F02BF8012000F08AF81F2938B565
:105A400004460D4604D9162303604FF0FF3038BDDD
:105A5000426C12B152F821304BB9204600F030F8B8
:105A60002A4601462046BDE8384000F017B8012B11
:105A70000AD0591C03D1162303600120E7E7002454
:105A800042F82540284698470020E0E7024B0146AF
:105A90001868FFF7D3BF00BF0800002038B5074DD6
:105AA00000230446084611462B6000F02BF8431CE7
:105AB00002D12B6803B1236038BD00BF640200200F
:105AC00000F010B8024B58221A604FF0FF307047B8
:105AD00064020020024B58221A604FF0FF307047DA
