:020000040800F2
:1000000000000320E9270008C50F0008C70F0008FB
:10001000C90F0008CB0F0008CD0F0008000000003A
:1000200000000000000000000000000001130008B4
:10003000CF0F00080000000031130008D10F0008A6
:10004000392800083928000839280008392800080C
:1000500039280008392800083928000839280008FC
:1000600039280008392800083928000839280008EC
:1000700039280008392800083928000839280008DC
:1000800039280008392800083928000839280008CC
:1000900039280008392800083928000839280008BC
:1000A00039280008392800083928000839280008AC
:1000B000392800083928000839280008392800089C
:1000C000392800083928000839280008392800088C
:1000D000392800083928000839280008392800087C
:1000E00039280008D52700083928000839280008D1
:1000F000392800083928000839280008392800085C
:10010000392800083928000839280008392800084B
:10011000392800083928000839280008392800083B
:10012000392800083928000839280008392800082B
:10013000392800083928000839280008392800081B
:10014000392800083928000839280008392800080B
:1001500039280008392800083928000839280008FB
:1001600039280008392800083928000839280008EB
:100170003928000839280008392800080000000044
:1001800039280008392800083928000839280008CB
:1001900039280008392800083928000839280008BB
:0C01A00039280008392800083928000818
:1001B00010B5054C237833B9044B13B10448AFF3A1
:1001C00000800123237010BDD80100200000000032
:1001D000F853000808B5034B1BB103490348AFF3BC
:1001E000008008BD00000000DC010020F85300087A
:1001F000034613F8012B002AFBD1181A0138704767
:1002000001F0FF01102A2BDB10F0070F08D010F8C7
:10021000013B013A8B422DD010F0070F42B3F6D1CB
:10022000F0B441EA012141EA014122F007047FF0E4
:1002300000070023F0E80256083C85EA010586EA3B
:10024000010685FA47F5A3FA87F586FA47F6A5FA77
:1002500087F68EB9EED1F0BC01F0FF0102F0070283
:1002600032B110F8013B013A83EA010313B1F8D12E
:100270000020704701387047002D06BF354603380F
:10028000073815F0010F07D1013015F4807F02BF48
:10029000013015F4C03F0130F0BC0138704700BF99
:1002A00081F0004102E000BF83F0004330B54FEA27
:1002B00041044FEA430594EA050F08BF90EA020F94
:1002C0001FBF54EA000C55EA020C7FEA645C7FEA27
:1002D000655C00F0E2804FEA5454D4EB5555B8BF4A
:1002E0006D420CDD2C4480EA020281EA030382EABB
:1002F000000083EA010180EA020281EA0303362D4D
:1003000088BF30BD11F0004F4FEA01314FF4801C1F
:100310004CEA113102D0404261EB410113F0004F31
:100320004FEA03334CEA133302D0524263EB4303E8
:1003300094EA050F00F0A780A4F10104D5F1200E86
:100340000DDB02FA0EFC22FA05F2801841F10001E1
:1003500003FA0EF2801843FA05F359410EE0A5F1B5
:1003600020050EF1200E012A03FA0EFC28BF4CF0E6
:10037000020C43FA05F3C01851EBE37101F000459C
:1003800007D54FF0000EDCF1000C7EEB00006EEBA9
:100390000101B1F5801F1BD3B1F5001F0CD3490833
:1003A0005FEA30004FEA3C0C04F101044FEA44528A
:1003B00012F5800F80F09A80BCF1004F08BF5FEA11
:1003C000500C50F1000041EB045141EA050130BDF1
:1003D0005FEA4C0C404141EB0101013C28BFB1F503
:1003E000801FE9D291F0000F04BF01460020B1FA4E
:1003F00081F308BF2033A3F10B03B3F120020CDA21
:100400000C3208DD02F1140CC2F10C0201FA0CF0FE
:1004100021FA02F10CE002F11402D8BFC2F1200C63
:1004200001FA02F120FA0CFCDCBF41EA0C01904019
:10043000E41AA2BF01EB0451294330BD6FEA040462
:100440001F3C1CDA0C340EDC04F11404C4F120024D
:1004500020FA04F001FA02F340EA030021FA04F35F
:1004600045EA030130BDC4F10C04C4F1200220FAB6
:1004700002F001FA04F340EA0300294630BD21FAF4
:1004800004F0294630BD94F0000F83F4801306BFBA
:1004900081F480110134013D4EE77FEA645C18BFAE
:1004A0007FEA655C29D094EA050F08BF90EA020F45
:1004B00005D054EA000C04BF1946104630BD91EA3D
:1004C000030F1EBF0021002030BD5FEA545C05D140
:1004D0004000494128BF41F0004130BD14F580047F
:1004E0003CBF01F5801130BD01F0004545F0FE41F3
:1004F00041F470014FF0000030BD7FEA645C1ABF28
:10050000194610467FEA655C1CBF0B46024650EA5E
:10051000013406BF52EA033591EA030F41F400218A
:1005200030BD00BF90F0000F04BF0021704730B510
:100530004FF4806404F132044FF000054FF00001E5
:1005400050E700BF90F0000F04BF0021704730B5A6
:100550004FF4806404F1320410F0004548BF40427B
:100560004FF000013EE700BF42004FEAE2014FEAD0
:1005700031014FEA02701FBF12F07F4393F07F4FAB
:1005800081F06051704732F07F4208BF704793F0AE
:100590007F4F04BF41F40021704730B54FF46074C1
:1005A00001F0004521F000411CE700BF50EA0102C4
:1005B00008BF704730B54FF000050AE050EA01026D
:1005C00008BF704730B511F0004502D5404261EBDD
:1005D00041014FF4806404F132045FEA915C3FF41E
:1005E000D8AE4FF003025FEADC0C18BF03325FEABB
:1005F000DC0C18BF033202EBDC02C2F1200300FA6C
:1006000003FC20FA02F001FA03FE40EA0E0021FA90
:1006100002F11444BDE600BF70B54FF0FF0C4CF47E
:10062000E06C1CEA11541DBF1CEA135594EA0C0F30
:1006300095EA0C0F00F0DEF82C4481EA030621EA6B
:100640004C5123EA4C5350EA013518BF52EA0335A6
:1006500041F4801143F4801338D0A0FB02CE4FF058
:100660000005E1FB02E506F00042E0FB03E54FF088
:100670000006E1FB03569CF0000F18BF4EF0010E80
:10068000A4F1FF04B6F5007F64F5407404D25FEA7C
:100690004E0E6D4146EB060642EAC62141EA55512F
:1006A0004FEAC52040EA5E504FEACE2EB4F1FD0C71
:1006B00088BFBCF5E06F1ED8BEF1004F08BF5FEAEF
:1006C000500E50F1000041EB045170BD06F00046A1
:1006D00046EA010140EA020081EA0301B4EB5C044E
:1006E000C2BFD4EB0C0541EA045170BD41F4801146
:1006F0004FF0000E013C00F3AB8014F1360FDEBF6B
:10070000002001F0004170BDC4F10004203C35DA46
:100710000C341BDC04F11404C4F1200500FA05F3C9
:1007200020FA04F001FA05F240EA020001F000426A
:1007300021F0004110EBD37021FA04F642EB0601E0
:100740005EEA430E08BF20EAD37070BDC4F10C040A
:10075000C4F1200500FA04F320FA05F001FA04F2CE
:1007600040EA020001F0004110EBD37041F10001BA
:100770005EEA430E08BF20EAD37070BDC4F12005C5
:1007800000FA05F24EEA020E20FA04F301FA05F22D
:1007900043EA020321FA04F001F0004121FA04F2D5
:1007A00020EA020000EBD3705EEA430E08BF20EAA5
:1007B000D37070BD94F0000F0FD101F000464000DF
:1007C00041EB010111F4801F08BF013CF7D041EA61
:1007D000060195F0000F18BF704703F00046520065
:1007E00043EB030313F4801F08BF013DF7D043EA36
:1007F0000603704794EA0C0F0CEA135518BF95EAEC
:100800000C0F0CD050EA410618BF52EA4306D1D172
:1008100081EA030101F000414FF0000070BD50EA91
:10082000410606BF1046194652EA430619D094EA1B
:100830000C0F02D150EA013613D195EA0C0F05D105
:1008400052EA03361CBF104619460AD181EA030159
:1008500001F0004141F0FE4141F470014FF0000011
:1008600070BD41F0FE4141F4780170BD70B54FF0AC
:10087000FF0C4CF4E06C1CEA11541DBF1CEA13552C
:1008800094EA0C0F95EA0C0F00F0A7F8A4EB05040E
:1008900081EA030E52EA03354FEA013100F0888005
:1008A0004FEA03334FF0805545EA131343EA1263CE
:1008B0004FEA022245EA111545EA10654FEA002683
:1008C0000EF000419D4208BF964244F1FD0404F53C
:1008D000407402D25B084FEA3202B61A65EB030598
:1008E0005B084FEA32024FF480104FF4002CB6EB55
:1008F000020E75EB030E22BFB61A754640EA0C00D5
:100900005B084FEA3202B6EB020E75EB030E22BF14
:10091000B61A754640EA5C005B084FEA3202B6EB55
:10092000020E75EB030E22BFB61A754640EA9C0014
:100930005B084FEA3202B6EB020E75EB030E22BFE4
:10094000B61A754640EADC0055EA060E18D04FEAA2
:10095000051545EA16754FEA06164FEAC30343EA42
:1009600052734FEAC2025FEA1C1CC0D111F4801F0F
:100970000BD141EA00014FF000004FF0004CB6E708
:1009800011F4801F04BF01430020B4F1FD0C88BFA7
:10099000BCF5E06F3FF6AFAEB5EB030C04BFB6EBB2
:1009A000020C5FEA500C50F1000041EB045170BDA5
:1009B0000EF0004E4EEA113114EB5C04C2BFD4EBD2
:1009C0000C0541EA045170BD41F480114FF0000E56
:1009D000013C90E645EA060E8DE60CEA135594EAD2
:1009E0000C0F08BF95EA0C0F3FF43BAF94EA0C0FD5
:1009F0000AD150EA01347FF434AF95EA0C0F7FF44A
:100A000025AF104619462CE795EA0C0F06D152EA9D
:100A100003353FF4FDAE1046194622E750EA410681
:100A200018BF52EA43067FF4C5AE50EA41047FF492
:100A30000DAF52EA43057FF4EBAE12E74FF0FF3CF7
:100A400006E000BF4FF0010C02E000BF4FF0010CC8
:100A50004DF804CD4FEA410C7FEA6C5C4FEA430C41
:100A600018BF7FEA6C5C1BD001B050EA410C0CBF90
:100A700052EA430C91EA030F02BF90EA020F0020F2
:100A8000704710F1000F91EA030F58BF994208BF59
:100A900090422CBFD8176FEAE37040F00100704716
:100AA0004FEA410C7FEA6C5C02D150EA013C07D16D
:100AB0004FEA430C7FEA6C5CD6D152EA033CD3D0B8
:100AC0005DF8040B704700BF8446104662468C46B2
:100AD0001946634600E000BF01B5FFF7B7FF0028E5
:100AE00048BF10F1000F01BD4DF808EDFFF7F4FF0E
:100AF0000CBF012000205DF808FB00BF4DF808ED99
:100B0000FFF7EAFF34BF012000205DF808FB00BFBB
:100B10004DF808EDFFF7E0FF94BF012000205DF8DD
:100B200008FB00BF4DF808EDFFF7CEFF94BF012092
:100B300000205DF808FB00BF4DF808EDFFF7C4FF8B
:100B400034BF012000205DF808FB00BF4FEA410CD4
:100B50007FEA6C5C02D150EA013C0AD14FEA430CB7
:100B60007FEA6C5C02D152EA033C02D14FF00000F4
:100B700070474FF0010070474FEA410212F5001232
:100B800015D211D56FF47873B3EB625212D94FEAD4
:100B9000C12343F0004343EA505311F0004F23FABE
:100BA00002F018BF404270474FF00000704750EA13
:100BB000013005D111F0004008BF6FF000407047D0
:100BC0004FF00000704700BF53B94AB9002908BF71
:100BD00000281CBF4FF0FF314FF0FF3000F074B918
:100BE000ADF1080C6DE904CE00F006F8DDF804E084
:100BF000DDE9022304B070472DE9F047089D044663
:100C00008E46002B4DD18A42944669D9B2FA82F2BF
:100C100052B101FA02F3C2F1200120FA01F10CFAFB
:100C200002FC41EA030E94404FEA1C48210CBEFB33
:100C3000F8F61FFA8CF708FB16E341EA034306FBBC
:100C400007F199420AD91CEB030306F1FF3080F04B
:100C50001F81994240F21C81023E63445B1AA4B298
:100C6000B3FBF8F008FB103344EA034400FB07F73A
:100C7000A7420AD91CEB040400F1FF3380F00A817B
:100C8000A74240F207816444023840EA0640E41B70
:100C900000261DB1D4400023C5E900433146BDE81C
:100CA000F0878B4209D9002D00F0EF800026C5E9BE
:100CB000000130463146BDE8F087B3FA83F6002ED6
:100CC0004AD18B4202D3824200F2F980841A61EB4E
:100CD000030301209E46002DE0D0C5E9004EDDE76C
:100CE00002B9FFDEB2FA82F2002A40F09280A1EB54
:100CF0000C014FEA1C471FFA8CFE0126200CB1FBA9
:100D0000F7F307FB131140EA01410EFB03F08842A1
:100D100008D91CEB010103F1FF3802D2884200F22E
:100D2000CB804346091AA4B2B1FBF7F007FB1011C0
:100D300044EA01440EFB00FEA64508D91CEB04045E
:100D400000F1FF3102D2A64500F2BB800846A4EBB9
:100D50000E0440EA03409CE7C6F12007B34022FAA4
:100D600007FC4CEA030C20FA07F401FA06F31C43D3
:100D7000F9404FEA1C4900FA06F3B1FBF9F8200CE0
:100D80001FFA8CFE09FB181140EA014108FB0EF026
:100D9000884202FA06F20BD91CEB010108F1FF3A76
:100DA00080F08880884240F28580A8F10208614482
:100DB000091AA4B2B1FBF9F009FB101144EA014190
:100DC00000FB0EFE8E4508D91CEB010100F1FF343B
:100DD0006CD28E456AD90238614440EA0840A0FBD3
:100DE0000294A1EB0E01A142C846A64656D353D0A9
:100DF0005DB1B3EB080261EB0E0101FA07F722FACD
:100E000006F3F1401F43C5E9007100263146BDE8F5
:100E1000F087C2F12003D8400CFA02FC21FA03F358
:100E2000914001434FEA1C471FFA8CFEB3FBF7F0D9
:100E300007FB10360B0C43EA064300FB0EF69E42FE
:100E400004FA02F408D91CEB030300F1FF382FD297
:100E50009E422DD9023863449B1B89B2B3FBF7F63F
:100E600007FB163341EA034106FB0EF38B4208D918
:100E70001CEB010106F1FF3816D28B4214D9023E59
:100E80006144C91A46EA004638E72E46284605E777
:100E90000646E3E61846F8E64B45A9D2B9EB020848
:100EA00064EB0C0E0138A3E74646EAE7204694E7D8
:100EB0004046D1E7D0467BE7023B614432E730460B
:100EC00009E76444023842E7704700BF72B6FEE7A4
:100ED00000B595B03022002108A801F0E7FC0023FE
:100EE000039304930593069307930193234A116C8C
:100EF00041F080511164126C02F080520192019A0B
:100F000002931F4B1A6842F440421A601B6803F4B4
:100F100040430293029B012308934FF480330993CB
:100F200002230E934FF480020F920F221092D822C8
:100F3000119212930423139308A800F0A7FCB0B9F0
:100F400000F066FCA8B90F23039302230493002347
:100F500005934FF4A05306934FF480530793052154
:100F600003A800F0B1FE30B915B05DF804FBFFF73F
:100F7000ADFFFFF7ABFFFFF7A9FF00BF003802404E
:100F80000070004008B5094AD36823F4E0631B04ED
:100F90001B0C43F0BF6343F40133D36001F0B0F89E
:100FA000FFF796FF00F01EF808BD00BF00ED00E05F
:100FB00008B5FFF7E7FF024802F070F9FEE700BF4F
:100FC00010540008FEE7FEE7FEE7FEE7FEE7704785
:100FD00008B500F085F9012800D108BD00F0DAF964
:100FE000FBE7000008B50848084B03604FF4E13305
:100FF000436000238360C360036183610C2343610A
:1010000001F074FA08BD00BFF40100200010014097
:1010100030B589B0002200921B4B596C41F0100191
:101020005964596C01F01001009100990192196BFB
:1010300041F001011963196B01F00101019101995E
:1010400002921A6B42F001021A631B6B03F0010358
:101050000293029B4FF40073039302230493012332
:1010600005930323069307250795084C03A92046FB
:1010700000F054FF4FF480630393079503A92046C3
:1010800000F04CFF09B030BD0038024000000240C3
:1010900010B50138012809D814464FF47A7392B27A
:1010A000074801F052FA40B9204610BD01F0C6FBD6
:1010B000092303604FF0FF30F7E70020F5E700BF9A
:1010C000F401002043684B609A688A60516099601F
:1010D00008610368013303607047036941688268EF
:1010E0008A60416851605A68824205D000220261DC
:1010F000186801381860704782685A60F6E7000087
:10110000084B1B681B6823B9074B4FF0FF321A606E
:101110007047044B1B68DB68DB685A68024B1A6037
:10112000704700BF38020020CC040020F8B5394BCE
:101130001B68002B62D1384B1E6801361E607EB9D9
:10114000364B1B681B68E3B9344A1168344B186886
:1011500010601960334A136801331360FFF7D0FF42
:10116000314B1B68B3423FD90027304B1B68DB6A09
:1011700003EB83039A002E4B9B58012B43D9012785
:1011800041E040F6D9122B492B4802F001F8DBE789
:101190000127224B1B681B6843B3204B1B68DB688D
:1011A000DC6863689E4226D3251D2846FFF795FF1D
:1011B000A36A1BB104F11800FFF78FFFE36A012255
:1011C0009A401E49086802430A6003EB83039A00B1
:1011D000294617481044FFF775FFE26A134B1B6856
:1011E000DB6A9A42D4D2D4E70027D2E70E4B4FF005
:1011F000FF321A60B9E70C4A1360B6E7104A136869
:101200000133136000270F4B1B6803B101273846D9
:10121000F8BD00BFC4040020D8040020380200201C
:101220003C020020D0040020CC0400203402002026
:10123000400200202054000838540008C804002050
:10124000C0040020DC0400201E4B1B681BB11E4B99
:1012500001221A60704710B51B4B00221A601B4B0D
:101260001C68B4FA84F4E4B2C4F11F0404EB8402F1
:101270009300174AD358C3B1154A04EB84018B007D
:10128000134459684968596004EB840083000833AB
:101290001A44914210D004EB8404A2000C4B134476
:1012A0005B68DA680B4B1A6010BD40F6F6220A49FB
:1012B0000A4801F06DFFDFE749688200044B1344E0
:1012C0005960E8E7C4040020DC040020C8040020C2
:1012D0004002002034020020205400083854000846
:1012E000054B1B6833B1054B1B680BB100207047E1
:1012F0000220704701207047D4040020C40400205D
:10130000074B19680868B0E8F04F80F30988BFF30D
:101310006F8F4FF0000080F311887047AFF30080AB
:101320003402002000000000000000000000000067
:10133000EFF30980BFF36F8F154B1A681EF0100F83
:1013400008BF20ED108A20E9F04F10602DE9090058
:101350004FF0500080F31188BFF34F8FBFF36F8FB2
:10136000FFF772FF4FF0000080F3118809BC196885
:101370000868B0E8F04F1EF0100F08BFB0EC108AFC
:1013800080F30988BFF36F8F704700BFAFF3008011
:101390003402002008B54FF0500383F31188BFF3E7
:1013A0006F8FBFF34F8FFFF7C1FE28B14FF0E023DF
:1013B0004FF08052C3F8042D002383F3118808BD39
:1013C0000F49D1F8883043F47003C1F888300D4BD1
:1013D0001A6842F001021A60002098601A6822F030
:1013E000847222F480321A60074A5A601A6822F422
:1013F00080221A60D8604FF000638B60704700BF96
:1014000000ED00E00038024010300024704700007A
:1014100030B583B00446036813F0030F15D1236879
:1014200013F00C0F5BD1236813F0200F40F0B08055
:10143000236813F0100F00F0148194F82C208A4BCD
:10144000C3F8E021002003B030BD884B00229A662B
:1014500000F07CFE0546864B1B6813F0006F06D03B
:1014600000F074FE431B022BF5D90320EBE7236841
:1014700013F0010F07D06268A3681B0743EA8213C9
:101480007B4AC2F88430236813F0020F15D0784AE3
:10149000D2F884106068E3681B0643EA801301F009
:1014A000E0410B43C2F88430D2F88C3023F01F03A4
:1014B000E16901390B43C2F88C306C4B01229A660A
:1014C00000F044FE05466A4B1B6813F0006FA6D17E
:1014D00000F03CFE401B0228F5D90320B3E7634B24
:1014E00000221A6700F032FE0546614B1B6813F0BC
:1014F000005F06D000F02AFE431B022BF5D9032023
:10150000A1E7236813F0040F16D0594AD2F88810C7
:10151000206963691B0643EA801301F0E0410B4335
:10152000C2F88830D2F88C3023F4F853216A01399C
:1015300043EA0123C2F88C30236813F0080F14D05B
:101540004B4AD2F88830216903F0706343EA811373
:10155000A16943EA0173C2F88830D2F88C3023F4D1
:101560004033616A0B43C2F88C30404B01221A674A
:1015700000F0ECFD05463E4B1B6813F0005F7FF466
:1015800052AF00F0E3FD401B0228F4D903205AE7D4
:1015900000230193364B1A6C42F080521A641B6C84
:1015A00003F080530193019B324A136843F4807324
:1015B000136000F0CBFD05462E4B1B6813F4807FB3
:1015C00006D100F0C3FD401B0228F5D903203AE7FD
:1015D000274B1B6F13F4407314D0A26A02F44072BD
:1015E0009A420FD0224B1A6F22F440721F490120F9
:1015F000C1F8400E0020C1F8400E1A671B6F13F0AF
:10160000010F12D1A36A03F44072B2F5407F1DD0DE
:10161000174A936823F4F813936015490B6FA26A75
:10162000C2F30B0213430B6702E700F08FFD054680
:101630000F4B1B6F13F0020FE4D100F087FD401B2E
:1016400041F288339842F3D90320FCE608498A68BE
:1016500022F4F81223F0704323F4407313438B6099
:10166000DBE70020EFE600BF0010474200004742E2
:1016700000380240007000407047000010B504467A
:101680000368DA6812F4807F03D09B6813F4805FEC
:101690000FD12368DA6812F4007F03D09B6813F43B
:1016A000005F0FD10C4B4FF400325A610123637776
:1016B00010BD01F05BF82268D368DBB263F4C0733D
:1016C000D360E6E72046FFF7A1FE2268D368DBB2CD
:1016D00063F42073D360E5E7003C014038B504466D
:1016E0000268D36823F0A003D36000F02FFD054605
:1016F0002368DB6813F0200F07D100F027FD401BA3
:10170000B0F57A7FF4D9032000E0002038BD38B569
:101710000368DA6812F0400F01D0002038BD04469B
:101720004FF0FF32DA6000F011FD05462368DB68F8
:1017300013F0400F07D100F009FD431BB3F57A7F8A
:10174000F4D90320EAE70020E8E738B500285CD0A8
:101750000446437F002B41D0022363772368CA22CB
:101760005A62236853225A622046FFF7D0FF05468B
:10177000002837D12268936823F4E00323F0400364
:10178000936021688A686368206903436069034342
:1017900013438B602368E2681A6122681369A168A9
:1017A00043EA014313612268D36823F08003D360C6
:1017B00023689B6813F0200F1BD02268136C23F45E
:1017C000802313642268136CA1690B43136423689C
:1017D000FF225A6201236377284638BD0377FFF75B
:1017E0004BFFB9E72368FF225A6204236377012580
:1017F000F2E72046FFF772FF0028DED02368FF22C1
:101800005A62042363770125E6E70125E4E7000037
:1018100010B582B000230193194B1A6C42F080522C
:101820001A641B6C03F080530193019B154B01223A
:101830001A6400F08BFC0446134B5B6813F4803F82
:1018400008D100F083FC001BB0F57A7FF4D90320A7
:1018500002B010BD0B4B01225A6400F077FC044625
:10186000094B5B6813F4003F07D100F06FFC001BCD
:10187000B0F57A7FF4D90320EAE70020E8E700BF5B
:101880000038024000000E4200700040002800F0C6
:10189000BA8170B582B00446036813F0010F3BD0E3
:1018A0009F4B9B6803F00C03042B2CD09C4B9B6834
:1018B00003F00C03082B21D06368B3F5803F4FD0B1
:1018C000B3F5A02F52D0964B1A6822F480321A60DA
:1018D0001A6822F480221A606368002B50D000F04E
:1018E00035FC05468E4B1B6813F4003F14D100F005
:1018F0002DFC401B6428F5D903208BE1884B5B68E5
:1019000013F4800FD8D0864B1B6813F4003F03D02C
:101910006368002B00F07981236813F0020F54D024
:101920007F4B9B6813F00C0F3ED07D4B9B6803F000
:101930000C03082B33D0E368002B68D0794B0122CD
:101940001A6000F003FC0546754B1B6813F0020F8C
:1019500054D100F0FBFB401B0228F5D9032059E1CC
:101960006F4A136843F480331360B5E76C4B1A6811
:1019700042F480221A601A6842F480321A60ABE79F
:1019800000F0E4FB0546664B1B6813F4003FC3D030
:1019900000F0DCFB401B6428F5D903203AE1604BE2
:1019A0005B6813F4800FC6D15D4B1B6813F0020F08
:1019B00003D0E368012B40F02A81594A136823F0D1
:1019C000F803216943EAC1031360236813F0080F89
:1019D00042D063696BB3534B0122C3F8802E00F0F1
:1019E000B5FB05464E4B5B6F13F0020F34D100F090
:1019F000ADFB401B0228F5D903200BE1484A1368D0
:101A000023F0F803216943EAC1031360DDE7454B86
:101A100000221A6000F09AFB0546414B1B6813F048
:101A2000020FD2D000F092FB401B0228F5D9032010
:101A3000F0E03C4B0022C3F8802E00F087FB054607
:101A4000374B5B6F13F0020F06D000F07FFB401B9B
:101A50000228F5D90320DDE0236813F0040F77D0C6
:101A60002F4B1B6C13F0805F33D1002301932C4B61
:101A70001A6C42F080521A641B6C03F0805301937D
:101A8000019B0125284B1B6813F4807F23D0A3689A
:101A9000012B34D0052B38D0214B1A6F22F00102D4
:101AA0001A671A6F22F004021A67A368002B3DD050
:101AB00000F04CFB06461A4B1B6F13F0020F46D189
:101AC00000F044FB801B41F288339842F3D9032095
:101AD000A0E00025D6E7144A136843F4807313602E
:101AE00000F034FB0646104B1B6813F4807FCED108
:101AF00000F02CFB801B0228F5D903208AE0084A5D
:101B0000136F43F001031367CFE7054B1A6F42F0E1
:101B100004021A671A6F42F001021A67C5E700BF94
:101B200000380240000047420070004000F00EFB09
:101B300006463A4B1B6F13F0020F08D000F006FB6D
:101B4000801B41F288339842F3D9032062E0E5B963
:101B5000A369002B5DD0314A926802F00C02082A7A
:101B60005AD0022B17D02E4B00221A6600F0EEFA44
:101B700004462A4B1B6813F0007F42D000F0E6FABF
:101B8000001B0228F5D9032044E0244A136C23F0FB
:101B900080531364DCE7224B00221A6600F0D6FA69
:101BA00005461E4B1B6813F0007F06D000F0CEFAEE
:101BB000401B0228F5D903202CE0E369226A134375
:101BC000626A43EA8213A26A5208013A43EA024374
:101BD000E26A43EA0263114A5360114B01221A661A
:101BE00000F0B4FA04460D4B1B6813F0007F06D1D9
:101BF00000F0ACFA001B0228F5D903200AE000200F
:101C000008E0002006E001207047012002E00120EA
:101C100000E0002002B070BD0120FBE70038024068
:101C20000000474208B5254B9B6803F00C03042BCA
:101C30003FD0082B3FD1214B5A6802F03F025B682E
:101C400013F4800F12D01D4B5968C1F388111C4842
:101C50000023A1FB0001FEF7B7FF184B5B68C3F33D
:101C6000014301335B00B0FBF3F025E0134B5968EF
:101C7000C1F3881C4FEA4C11B1EB0C006EEB0E0E59
:101C80004FEA8E1343EA90638101091A63EB0E0356
:101C9000DB0043EA5173C90011EB0C0C43F1000364
:101CA000990200234FEA8C2041EA9C51FEF78CFFF9
:101CB000D3E7034800E0034808BD00BF00380240F6
:101CC00040787D010024F400002800F09A8070B56F
:101CD0000D4604464F4B1B6803F00F038B4208D29E
:101CE000CBB24C4A1370136803F00F038B4240F0E1
:101CF0008A80236813F0020F17D013F0040F04D06A
:101D0000454A936843F4E0539360236813F0080F47
:101D100004D0414A936843F4604393603E4A936819
:101D200023F0F003A1680B439360236813F0010FC5
:101D300032D06368012B21D09A1E012A25D9364A58
:101D4000126812F0020F60D033498A6822F0030251
:101D500013438B6000F0FAF906462F4B9B6803F0A3
:101D60000C036268B3EB820F16D000F0EFF9801B12
:101D700041F288339842F0D9032041E0264A1268A4
:101D800012F4003FE0D101203AE0234A126812F039
:101D9000007FD9D1012033E01E4B1B6803F00F03F5
:101DA000AB4207D9EAB21B4B1A701B6803F00F0352
:101DB000AB422CD1236813F0040F06D0164A936867
:101DC00023F4E053E1680B439360236813F0080F9A
:101DD00007D0114A936823F46043216943EAC103A1
:101DE0009360FFF71FFF0C4B9B68C3F303130B4A71
:101DF000D35CD8400A4B18600F2000F015FC00207F
:101E000070BD012070470120FAE70120F8E70120AA
:101E1000F6E700BF003C024000380240485400088A
:101E200000000020014B1868704700BF0000002030
:101E300008B5FFF7F7FF044B9B68C3F38223034AFF
:101E4000D35CD84008BD00BF003802405854000899
:101E500008B5FFF7E7FF044B9B68C3F34233034A1F
:101E6000D35CD84008BD00BF003802405854000879
:101E7000074AD36823F4E0631B041B0C000200F440
:101E8000E060034343F0BF6343F40033D360704723
:101E900000ED00E000B5194BDB68C3F30223C3F18A
:101EA000070CBCF1040F28BF4FF0040C03F1040E23
:101EB000BEF1060F18D9033B4FF0FF3E0EFA0CFCA3
:101EC00021EA0C0199400EFA03F322EA03031943B5
:101ED00000280BDB0901C9B200F1604000F5614048
:101EE00080F800135DF804FB0023E5E700F00F0025
:101EF0000901C9B2024B1954F4E700BF00ED00E03C
:101F000014ED00E000F01F02400901239340024A53
:101F100042F82030704700BF00E100E000230F2BA3
:101F200000F2E480F0B583B03AE0092200E000223C
:101F3000AA40324302346E4D45F824206D4A14689D
:101F40006FEA0C0224EA0C054E6816F4803F01D0BB
:101F50004CEA0405674C2560646802EA04054E6893
:101F600016F4003F01D04CEA0405624C6560A46899
:101F700002EA04054E6816F4801F01D04CEA0405FD
:101F80005C4CA560E46822404D6815F4001F01D048
:101F90004CEA0402574CE26001330F2B00F2A4809C
:101FA00001229A400C6804EA020C32EA0404F3D1DC
:101FB0004C68022C01D0122C10D1DD08083550F8E5
:101FC000257003F00704A6000F24B44027EA040E8E
:101FD0000C69B44044EA0E0440F8254006684FEA14
:101FE000430E032404FA0EF4E54326EA04064C6883
:101FF00004F0030404FA0EF4344304604C68661ED3
:10200000012E03D9112C01D0122C0FD186682E403D
:10201000CC6804FA0EF434438460446824EA020273
:102020004C68C4F300149C4014434460C2681540DB
:102030008A6802FA0EF22A43C2604A6812F0805F90
:10204000AAD0002201922C4A546C44F48044546477
:10205000526C02F480420192019A9C08A51C244A09
:1020600052F8256003F0030295000F22AA4026EAE9
:102070000206224A90423FF45AAF02F58062904233
:1020800022D002F58062904220D002F58062904218
:102090001ED002F5806290421CD002F58062904210
:1020A0001AD002F58062904218D002F58062904208
:1020B00016D002F58062904214D002F58062904200
:1020C0003FF433AF0A2233E7012231E702222FE740
:1020D00003222DE704222BE7052229E7062227E722
:1020E000072225E7082223E703B0F0BD704700BFB1
:1020F00000380140003C014000380240000002402E
:1021000008B50B4B1A6842F400721A601A6842F460
:1021100080621A601A6842F480721A600320FFF726
:10212000A7FE0F2000F080FA00F05CFB002008BD45
:10213000003C0240034A1168034B1B780B441360B8
:10214000704700BFE004002004000020014B186825
:10215000704700BFE00400202DE9F8430446016801
:102160000A6922F44052C36813430B610168CA68CC
:1021700022F4164222F00C0283680069034360696E
:102180000343E06903431343CB6021684A6922F4A7
:102190004072A36913434B61E369B3F5004F5ED00E
:1021A0002368B54A934200F0108102F580629342A1
:1021B00000F00B81FFF73CFE00EB800000EB80009D
:1021C0006568AD00B0FBF5F5AC4FA7FB05356D09B3
:1021D0002E01FFF72DFE00EB800000EB800065680C
:1021E000AD00B0FBF5F5FFF723FE00EB800000EB40
:1021F000800063689B00B0FBF3F3A7FB03235B093C
:102200004FF0640808FB13531B013233A7FB032371
:102210005B0903F0F003F518FFF70AFE00EB8000FE
:1022200000EB80006668B600B0FBF6F6FFF700FE34
:1022300000EB800000EB800063689B00B0FBF3F0D4
:10224000A7FB0030400908FB106000013230A7FBFB
:102250000037C7F3431723682F449F6009E12368C1
:10226000854A93425AD002F58062934256D0FFF7D6
:10227000DFFD00EB800000EB800065686D00B0FBC7
:10228000F5F57E4FA7FB05356D094FEA0519FFF7F8
:10229000CFFD00EB800000EB800066687600B0FBAD
:1022A000F6F6FFF7C5FD00EB800000EB80006568E7
:1022B0006D00B0FBF5F5A7FB05356D094FF064081F
:1022C00008FB1565ED003235A7FB05356D096D007E
:1022D00005F4F8754D44FFF7ABFD00EB800000EB13
:1022E000800066687600B0FBF6F6FFF7A1FD00EB14
:1022F000800000EB800063685B00B0FBF3F3A7FB9A
:1023000003235B0908FB1363DB003233A7FB0337AE
:10231000C7F3421723682F449F60AAE0FFF798FD98
:1023200000EB800000EB800065686D00B0FBF5F508
:10233000524FA7FB05356D094FEA0519FFF788FDD8
:1023400000EB800000EB800066687600B0FBF6F6DC
:10235000FFF77EFD00EB800000EB800065686D00FC
:10236000B0FBF5F5A7FB05356D094FF0640808FBD8
:102370001565ED003235A7FB05356D096D0005F4D7
:10238000F8754D44FFF764FD00EB800000EB800022
:1023900066687600B0FBF6F6FFF75AFD00EB8000AA
:1023A00000EB800063685B00B0FBF3F3A7FB032343
:1023B0005B0908FB1363DB003233A7FB0337C7F36A
:1023C000421723682F449F6053E0FFF741FD00EB65
:1023D000800000EB80006568AD00B0FBF5F5274F8D
:1023E000A7FB05356D092E01FFF732FD00EB8000DC
:1023F00000EB80006568AD00B0FBF5F5FFF728FD48
:1024000000EB800000EB800063689B00B0FBF3F3FF
:10241000A7FB03235B094FF0640808FB13531B0160
:102420003233A7FB03235B0903F0F003F518FFF732
:102430000FFD00EB800000EB80006668B600B0FB8B
:10244000F6F6FFF705FD00EB800000EB8000636807
:102450009B00B0FBF3F0A7FB0030400908FB1060C5
:1024600000013230A7FB0037C7F3431723682F441E
:102470009F60BDE8F88300BF001001401F85EB514D
:102480002DE9F84305460F4616469946DDF82080AB
:102490002C68246837EA04030CBF4FF0010C4FF09E
:1024A000000CB4451FD1B8F1FF3FF1D0B8F1000FD7
:1024B00005D0FFF74BFEA0EB09004045E8D92A689C
:1024C000D36823F4D073D3602A68536923F00103DF
:1024D0005361202385F8393085F83A30002385F898
:1024E0003830032000E00020BDE8F88358B310B571
:1024F000044690F839300BB3242384F8393022682D
:10250000D36823F40053D3602046FFF725FE2268EA
:10251000136923F4904313612268536923F02A035B
:1025200053612268D36843F40053D3600020E06312
:10253000202384F8393084F83A3010BD80F83830E0
:10254000FEF766FDD8E7012070472DE9F04182B023
:102550001E4690F83930DBB2202B55D104460D468B
:102560009046002954D0002A54D090F83830012BDE
:1025700052D0012380F838300023C363212380F830
:102580003930FFF7E3FD0746A4F82480A4F826803D
:1025900010E000963B46002280212046FFF770FFA6
:1025A00000283BD12B882268C3F3080353602369BA
:1025B000CBB90235E38C9BB2BBB1E28C92B2013A4B
:1025C00092B2E284A368B3F5805FE2D000963B4606
:1025D000002280212046FFF753FF08BB15F8012B8E
:1025E00023685A60E6E70135E4E700963B4600229F
:1025F00040212046FFF744FFA0B9202384F839305A
:10260000002384F8383000E0022002B0BDE8F081F9
:102610000120FAE70120F8E70220F6E70320F4E7BB
:102620000320F2E70320F0E7F0B59BB00446002357
:10263000199301220D9213934FF480330E93444B60
:102640000B930DA8FFF722F918B1012528461BB0FE
:10265000F0BD2023019301A8FEF7DAFE054608B17C
:102660000125F3E73B4B0122C3F83C2E3A4E3B4B8E
:102670003360002777606323B3600923F360376119
:102680007761B7613046FFF760F83168CA234B6263
:1026900053234B628B6823F480738B60CB68DBB26F
:1026A00063F4C073CB601997CB6813F0010F0CD1A2
:1026B000199A531C19932A4B1B682A48A0FB030341
:1026C000B2EB531FF0D10125C0E70123CB618B682A
:1026D00043F480738B608B6843F480538B60224B90
:1026E0001A6842F400321A609A6842F400329A6022
:1026F000194B1868C36813F0400F15D14FF0FF3322
:10270000C36000231993C36813F0400F0CD1199ACA
:10271000531C1993124B1B681249A1FB0313B2EB14
:10272000531FF0D1012591E70022426002600A4B5D
:102730001B68D96821F08001D960FF2159622146C8
:102740002920FFF7A7FB2920FFF7DCFB7EE700BF6E
:102750000003190000004742E40400200028004064
:1027600000000020ABAAAAAA003C014010B582B02C
:10277000044600230193FFF7DDFC2368CA225A6256
:10278000236853225A6223684FF0FF32DA602168CF
:10279000CB6813F0400F0AD1019A531C01930B4BE5
:1027A0001B680B48A0FB0303B2EB531FEFD10023C0
:1027B0004B60226813602268D36823F08003D360E3
:1027C0002368FF225A6202B010BD00BF0000002043
:1027D000ABAAAAAA08B50248FEF750FF08BD00BF81
:1027E000E404002070470000DFF834D0002103E04B
:1027F0000C4B5B58435004310B480C4B42189A4227
:10280000F6D30B4A02E0002342F8043B094B9A42FC
:10281000F9D3FEF7D5FD00F017F8FEF7C9FB7047B6
:10282000000003209458000800000020D801002078
:10283000D801002018050020FEE70000014B1868B1
:10284000704700BF0800002070B50D4D0D4C641B93
:10285000A4100026A64209D10B4D0C4C02F0CCFD71
:10286000641BA4100026A64205D170BD55F8043B98
:1028700098470136EEE755F8043B98470136F2E7F2
:102880008C5800088C5800088C5800089058000894
:102890000A44914200F1FF3300D1704710B511F89E
:1028A000014B03F8014F9142F9D110BD0244034698
:1028B000934200D1704703F8011BF9E72DE9FF4768
:1028C00055EC104B002D0E4619462B46BBBF05F1AB
:1028D00000431D4600232D230B700D9BDDF830A017
:1028E000914623F02008BCBF22461446B8F1460F9B
:1028F00005D0B8F1450F00D10136022100E00321D7
:1029000003AB019302AB009345EC104B53463246A8
:1029100000F01AFEB8F1470F074602D119F0010F77
:1029200022D0B8F1460F07EB060910D13B78302BC7
:102930000AD10022002320462946FEF7D5F818B90F
:10294000C6F10106CAF80060DAF8003099440022A6
:10295000002320462946FEF7C7F808B1CDF80C90B1
:102960003022039B4B4507D3039B0E9ADB1B384653
:10297000136004B0BDE8F087591C03911A70F0E7AA
:10298000F7B503460029B8BF494203F8022BB4BF8C
:102990002D222B22092942702ADD0DF10704A446BD
:1029A0000A27A6460A4691FBF7F607FB16153035AF
:1029B000632A04F1FF340EF8015C3146F1DC30315A
:1029C000AEF1020504F8011C441C294661450AD3F6
:1029D0000DF10902A2EB0E02654588BF00221344E7
:1029E000181A03B0F0BD11F8012B04F8012FEDE720
:1029F000302330318370C170031DF1E72DE9F04FB2
:102A00002DED028B8DB00C46DDF8608016461F461A
:102A1000054601F03FFDD0F800A05046FDF7E8FB69
:102A200000230A9323680593D8F8003094F818B06F
:102A3000073323F0070303F10802C8F80020D3E9A5
:102A40000023C4E91223D4E9128929F00043079333
:102A5000CDF8188008EE100A9F4BDDE906014FF013
:102A6000FF32FEF773F888BBDDE906019A4B4FF0A1
:102A7000FF32FEF74DF848BB00220023404649468E
:102A8000FEF73CF810B12D2384F84330934B944863
:102A9000BBF1470F94BF9846804603232361059BF3
:102AA00023F0040222604FF00009009733460BAA7E
:102AB0002146284600F0D8F9013040F090804FF0D0
:102AC000FF300DB0BDEC028BBDE8F08F42464B46A7
:102AD00040464946FEF73AF840B14B46002BBCBF92
:102AE0002D2384F843307F487F4BD1E763680BF098
:102AF000DF0206925A1C3FD106236360059B616882
:102B000043F48062002303930AABCDE901B309AB20
:102B100049EC108B009322600DF123032846FFF748
:102B2000CDFE069B0999472B804608D1C81C02DBC5
:102B30006368994241DDABF1020B5FFA8BFBBBF19D
:102B4000650F20D801395A4604F150000991FFF76A
:102B500017FF0A9A1318012A8146236102DC2268B2
:102B6000D20701D5013323619DF82330002B9CD07F
:102B70002D2384F8433098E7069A472ABED1002BCC
:102B8000BCD10123B9E7BBF1660F18D100296368F6
:102B90000BDD216113B92268D00702D501330B4444
:102BA0002361A1654FF00009DEE713B92268D2075F
:102BB00001D50233F4E70123F2E74FF0670B0A9BDC
:102BC000994205DB23682161D807EAD54B1CE7E76A
:102BD0000029D4BFC1F1020201221344E0E72368B7
:102BE0005A0507D42369424631462846B847013082
:102BF0002CD164E7BBF1650F40F2E080D4E912010B
:102C000000220023FDF770FF002834D0374A01234B
:102C100031462846B84701303FF451AFDDE909237A
:102C20009A4202DB2368D80710D518EE103A5246B4
:102C300031462846B84701303FF441AF4FF0000815
:102C400004F11A090A9B013B434509DC23689B07F1
:102C500000F10581E0680B9B9842B8BF184630E749
:102C600001234A4631462846B84701303FF427AF92
:102C700008F10108E6E7099B002B39DC1B4A012318
:102C800031462846B84701303FF419AFDDE9092342
:102C9000134302D12368D907D8D518EE103A52460B
:102CA00031462846B84701303FF409AF4FF00009DC
:102CB00004F11A0A099B5B424B4501DC0A9B92E72F
:102CC0000123524631462846B84701303FF4F7AE5B
:102CD00009F10109EEE700BFFFFFEF7F6454000830
:102CE00068540008705400086C54000874540008BC
:102CF0000A9AA36D9A42A8BF1A46002A914637DC69
:102D00004FF0000B29EAE97904F11A02A36D05934B
:102D1000A3EB09035B4533DCDDE909239A423BDB86
:102D20002368DA0738D40A9B059A09999A1AA3EB03
:102D300001099145A8BF9146B9F1000F35DC4FF06C
:102D4000000829EAE97904F11A0ADDE909239B1A46
:102D5000A3EB090343457FF779AF01235246314680
:102D60002846B84701303FF4AAAE08F10108ECE765
:102D70001346314642462846B8470130C0D19EE648
:102D80000123314628460592B84701303FF497AEFB
:102D9000059A0BF1010BB9E718EE103A524631468D
:102DA0002846B8470130BED189E6059A4B464244D1
:102DB00031462846B8470130C1D180E60A9A012A37
:102DC00001DCDB0738D50123424631462846B847A7
:102DD00001303FF474AE18EE103A524631462846A0
:102DE000B84701303FF46BAED4E912010022002352
:102DF000FDF77AFED8B90A9B08F10102013B314682
:102E00002846B84701300ED159E6012352463146D3
:102E10002846B84701303FF452AE08F101080A9B3A
:102E2000013B4345F1DC4B4604F15002DCE64FF038
:102E3000000804F11A0AF2E701234246DFE7012302
:102E40004A4631462846B84701303FF438AE08F1CB
:102E50000108E3680B995B1A4345F0DCFAE64FF092
:102E6000000804F11909F4E72DE9F04716469946E0
:102E70008A680B69DDF820809342B8BF134633603F
:102E800091F8432007460C460AB1013333602368AA
:102E9000990642BF336802333360256815F0060592
:102EA00006D104F1190AE36832689B1AAB4226DCAA
:102EB00094F84320131E226818BF012392062BD4D6
:102EC00004F1430249463846C04701301ED023680A
:102ED000E568326803F00603042B08BFAD1AA36847
:102EE00022690CBF25EAE57500259342C4BF9B1AF1
:102EF000ED1800261A34B5421AD1002008E001234B
:102F0000524649463846C047013003D14FF0FF30A2
:102F1000BDE8F0870135C6E7E1185A1C302081F87A
:102F20004300224494F8451082F843100233C7E767
:102F30000123224649463846C0470130E6D00136D3
:102F4000D9E700002DE9FF470F7E0C9D782F9146B1
:102F500080460C469A4601F1430207D8622F0AD8F0
:102F6000002F00F0D880582F00F0A38004F1420514
:102F700084F842703AE0A7F16303152BF6D801A15B
:102F800051F823F0DD2F0008F12F00086D2F000805
:102F90006D2F00086D2F00086D2F0008F12F00081D
:102FA0006D2F00086D2F00086D2F00086D2F000891
:102FB000FD30000821300008DF3000086D2F0008C8
:102FC0006D2F00081F3100086D2F00082130000808
:102FD0006D2F00086D2F0008E73000082B681A1DC0
:102FE0001B682A6004F1420584F842300123A3E003
:102FF00020682968060601F104030AD50E682B60D3
:10300000002E03DA2D23764284F843305E480A23EB
:1030100019E00E682B6010F0400F18BF36B2EFE7D2
:103020002B682068191D2960010601D51E6802E081
:103030004606FBD51E8854486F2F0CBF08230A2371
:10304000002184F843106568A560002DA2BF2168A7
:1030500021F0040121600EB9002D4DD01546B6FBBC
:10306000F3F103FB1167C75D05F8017D3746BB42ED
:103070000E46F4D9082B0BD12368DE0708D5236947
:1030800061689942DEBF302305F8013C05F1FF3548
:10309000521B2261CDF800A04B4603AA21464046B0
:1030A000FFF7E2FE01304CD14FF0FF3004B0BDE835
:1030B000F087354881F845702968236851F8046B1A
:1030C00029601D0614D5DF0744BF43F020032360A9
:1030D0001EB9236823F0200323601023B0E7236880
:1030E00043F0200323607823284884F84530E3E741
:1030F000590648BFB6B2E6E71546BBE72B68266817
:103100006169181D286035061B6801D5196002E049
:103110007006FBD51980002323611546BAE72B689A
:103120001A1D2A601D68626800212846FDF768F8AC
:1031300008B1401B606063682361002384F843305A
:10314000A8E723692A4649464046D0470130ABD01C
:1031500023689B0713D4E068039B9842B8BF1846C6
:10316000A4E70123324649464046D04701309BD070
:103170000135E36803995B1AAB42F2DCEBE700250B
:1031800004F11906F5E700BF7654000887540008DB
:103190000FB40A4B13B51C6824B1A36913B92046B8
:1031A00001F0DAF805AB049AA1680193204601F01A
:1031B00049FE02B0BDE8104004B07047080000208E
:1031C00070B50E46054618B183690BB901F0C4F815
:1031D000AB69AC6813B9284601F0BEF82C4B9C4291
:1031E00020D16C68636EDB0705D4A389980502D4EF
:1031F000A06D01F054F9A38919071DD52369DBB12E
:10320000013EA36816F8011F013BA36039BB002BE8
:1032100038DA22460A21284600F048F8013011D059
:103220000A2511E01B4B9C4201D1AC68DAE71A4B2E
:103230009C4208BFEC68D5E72146284600F088F894
:103240000028DDD04FF0FF35636EDA0705D4A3897F
:103250009B0502D4A06D01F023F9284670BD002B18
:1032600004DAA2699A4206DC0A2904D023685A1CAF
:1032700022601970C5E72246284600F017F8013091
:10328000BFD1DFE723680A255A1C22601D70DBE7E7
:103290006C5500088C5500084C550008024B01463F
:1032A0001868FFF78DBF00BF08000020F8B50E4674
:1032B0001446054618B183690BB901F04DF8214B4E
:1032C0009C422BD16C68A369A360A3891A072FD5F0
:1032D00023696BB323692068C01A6369F6B283421D
:1032E000374604DC2146284600F0A2FF30BBA36825
:1032F000013BA36023685A1C22601E706369013081
:10330000834204D0A389DB0706D50A2E04D12146C7
:10331000284600F08DFF88B93846F8BD0A4B9C421C
:1033200001D1AC68CFE7094B9C4208BFEC68CAE703
:103330002146284600F00CF80028CBD04FF0FF378C
:10334000EAE700BF6C5500088C5500084C55000892
:10335000324B70B51D6806460C4625B1AB6913B9F2
:10336000284600F0F9FF2E4B9C420FD16C68A389D0
:10337000B4F90C2019072CD4DD0611D409233360CD
:1033800042F04003A3814FF0FF303EE0254B9C42CA
:1033900001D1AC68EBE7244B9C4208BFEC68E6E740
:1033A000580712D5616B41B104F14403994202D030
:1033B000304601F077FC00236363A38923F02403E4
:1033C000A3810023636023692360A38943F008037A
:1033D000A38123694BB9A38903F42073B3F5007F5C
:1033E00003D02146304601F081F8A089B4F90C20C1
:1033F00010F001030AD00023A36063695B42A3615C
:10340000236943B910F08000BAD170BD810758BF5D
:103410006369A360F4E70020F7E700BF080000201D
:103420006C5500088C5500084C5500082DE9F74FE5
:1034300003690C69A3420746C0F28180013C01F197
:10344000140800F1140505EB8403019358F82430A7
:1034500055F8242001339A424FEA840B08EB840983
:10346000B2FBF3F631D34FF0000E4046AC46F246C5
:1034700050F8042B93B206FB03E34FEA134E9BB2C2
:10348000AAEB0303120CDCF800A006FB02E213FA1D
:103490008AF34FEA124E1FFA82FADCF80020CAEBD8
:1034A000124202EB23429BB243EA024381454CF8AD
:1034B000043B4FEA224ADBD255F80B302BB9019B73
:1034C000043B9D421A462ED33C61384601F0D8FA9F
:1034D000002824DB013628464FF0000C58F8042B56
:1034E000D0F800E093B2ACEB0303120C13FA8EF3A6
:1034F000C2EB1E4202EB23429BB243EA0243C145A8
:1035000040F8043B4FEA224CE8D255F8242005EB62
:10351000840322B9043B9D421A460AD33C613046DB
:1035200003B0BDE8F08F1268043B002ACCD1013C07
:10353000C7E71268043B002AF0D1013CEBE700200A
:10354000EEE70000000000002DE9F04F2DED048BA8
:1035500057EC106B93B0456ADDF88080069110EE51
:1035600010AA044609920C93BB4675B9102000F0CE
:10357000FDFF0246606220B9A74BEA21A74801F08F
:10358000F7FDC0E901550560C560636A196851B16E
:103590005A684A60012393408B60204601F02EF860
:1035A000636A00221A603B1EAABF002323F0004B6F
:1035B000C8F800309A4BBCBF0122C8F8002033EA9B
:1035C0000B031BD10C9A42F20F731360CBF313035E
:1035D000334300F09285219B63B9924B22E0924BDA
:1035E00001930833219A1360019813B0BDEC048B4A
:1035F000BDE8F08F8B4B01930333F3E700220023E8
:1036000050465946FDF770FA4BEC19AB804658B15D
:103610000C9A01231360219B002B00F06B858348DB
:103620001860431E0193DFE74BEC10AB10AA11A901
:10363000204601F0CBFACBF30A5508EE100A002D14
:1036400000F0848019EE903AC3F3130343F07F57E0
:10365000564647F44017A5F2FF35CDF83880744B35
:10366000002230463946FCF71FFE65A3D3E900234C
:10367000FCF7D2FF64A3D3E90023FCF717FE06464C
:1036800028460F46FCF75EFF61A3D3E90023FCF751
:10369000C3FF02460B4630463946FCF707FE064696
:1036A0000F46FDF769FA00220090002330463946A4
:1036B000FDF724FA50B10098FCF744FF32463B4630
:1036C000FDF712FA10B9009B013B0093009B162BEB
:1036D0005AD8009A574B03EBC203D3E9002351ECAD
:1036E000190BFDF70BFA002850D0009B013B00930B
:1036F00000230B93109B5D1B6B1E059345BFC5F10B
:1037000001030493002300234CBF05930493009B03
:10371000002B3DDB059B009A0A921344059300237E
:103720000793069B092B00F28980052BC4BF043B3D
:103730000693069BA3F10203CCBF00250125032BB2
:1037400000F28780DFE803F02D3A3859DDE91053A5
:103750001D4405F23243202BC1BFC3F1400305F2E3
:1037600012400BFA03F326FA00F0DABFC3F120038C
:1037700006FA03F01843FCF7D5FE01230646A1F133
:10378000F877013D0E936AE70123B2E70B90B1E7AA
:10379000049B009A9B1A04935342079300230A93B5
:1037A000BFE700230893099B002B55DC0123CDE9DB
:1037B00002331A4609920CE00123F3E70023099A29
:1037C0000893009B134402930133012B0393B8BF6A
:1037D0000123606A00224260042202F114069E4224
:1037E00041683DD9204600F0C9FE019000283BD138
:1037F000114B02464FF4D571C0E60123DFE700BF4D
:1038000061436F63A787D23FB3C8608B288AC63FE6
:10381000FB799F501344D33FA5540008BC540008C3
:103820000000F07FA1540008985400087554000867
:103830000000F83F585600083955000801250023BC
:10384000069308954FF0FF33CDE90233002212238F
:10385000B0E701230893F5E7099BCDE90233B8E708
:10386000013141605200B8E7636A019A1A60039B14
:103870000E2B00F29D80002D00F09A80009B002B03
:1038800032DDB74A03F00F0302EBC303D3E900892B
:10389000009BD8054FEA231716D5B24B51EC190BF4
:1038A000D3E90823FCF7E2FF07F00F0782468B46B7
:1038B0000325AC4E57B942464B4650465946FCF795
:1038C000D5FF82468B4628E00225F2E7F90708D5A6
:1038D00040464946D6E90023FCF79EFE0135804666
:1038E00089467F100836E5E700F09B80009B9D4FDE
:1038F0005E429B4B06F00F0203EBC203D3E90023A9
:1039000051EC190BFCF788FE361182468B460023DA
:103910000225002E7AD1002BD3D10B9B002B00F077
:103920008280914B002250465946FDF7E7F8002867
:1039300079D0039B002B76D0029B002B36DD009BB9
:10394000504659465F1E0022884BFCF765FE029EDA
:1039500082468B4601352846FCF7F4FD52465B460D
:10396000FCF75AFE824B0022FCF7A0FCD046D94659
:103970008246A1F1507B002E58D17E4B002240465A
:103980004946FCF791FC52465B4680468946FDF766
:10399000D3F8002840F0958252460BF10043404690
:1039A0004946FDF7ABF8002840F089825BEC19AB83
:1039B000119B002BC0F24881009A0E2A00F344812B
:1039C000674B03EBC203D3E90089099B002B80F20C
:1039D000D580039B002B00F3D18040F06F82654BB4
:1039E000002240464946FCF717FE52465B46FDF76B
:1039F00099F8039E3746002840F04582019D312307
:103A000005F8013B009B0133009340E2F20705D526
:103A1000D7E90023FCF700FE0135012376100837B3
:103A200077E7022579E7009F039E94E701994C4BC5
:103A300031440D91089903EBC60353E90223002991
:103A400043D04D490020FCF711FF52465B46FCF77E
:103A50002BFC019D82468B4649464046FDF78CF87B
:103A60000646FCF76FFD02460B4640464946FCF70A
:103A70001BFC303605F8016B52465B468046894692
:103A8000FDF73CF8002863D142464B4636490020FA
:103A9000FCF70AFC52465B46FDF730F8002840F080
:103AA000B5800D9B9D4281D0304B00225046594637
:103AB000FCF7B2FD2D4B82468B464046494600221C
:103AC000FCF7AAFD80468946C6E750465946FCF7F2
:103AD000A3FD0D9B019D0F9382468B4649464046B0
:103AE000FDF74AF80646FCF72DFD303602460B4638
:103AF00040464946FCF7D8FB05F8016B0D9B9D42FB
:103B0000804689464FF0000224D11B4B504659464F
:103B1000FCF7CCFB02460B4640464946FDF70CF845
:103B2000002873D152465B4613490020FCF7BCFBCA
:103B300002460B4640464946FCF7E0FF00283FF4AA
:103B400035AF0F9D6B1E0F9315F8013C302BF8D04D
:103B5000009749E0054BFCF75FFD80468946BDE7CD
:103B600058560008305600080000F03F000024407E
:103B700000001C40000014400000E03F019D56463C
:103B80005F4642464B4630463946FCF76FFEFCF72F
:103B9000F3FF8246FCF7D6FC42464B46FCF73CFD61
:103BA00002460B46304639460AF13006FCF77CFBEC
:103BB00005F8016B019E039FAE1BB74202460B4600
:103BC00035D1FCF773FB42464B4606460F46FCF7E1
:103BD000B3FFD0B942464B4630463946FCF784FF26
:103BE00010B11AF0010F10D1204618EE101A00F093
:103BF00005FD002300982B700C9B01301860219B61
:103C0000002B3FF4F1AC1D60EEE4009F2B461D46F7
:103C100013F8012D392A06D1019A9A42F7D1019958
:103C2000302201370A701A7801321A7090E7A64BD9
:103C30000022FCF7F1FC0022002306460F46FCF7A9
:103C400053FF00289DD0CFE7089A002A00F0D780C4
:103C5000069A012A00F3BA800E9A002A00F0B28078
:103C600003F23343079E049D049A1A440492059A72
:103C700001211A442046059200F078FD0746002DE8
:103C80000CDD059B002B09DDAB42049AA8BF2B4637
:103C9000D21A0492059AED1AD31A0593079B1BB307
:103CA000089B002B00F0AF80002E13DD3946324612
:103CB000204600F01BFE18EE102A0146074620465B
:103CC00000F06AFD18EE101A8046204600F096FCBF
:103CD00008EE108A079B9A1B06D018EE101A204691
:103CE00000F004FE08EE100A0121204600F03EFD1F
:103CF0000A9B002B064640F388801A460146204660
:103D000000F0F4FD069B012B064640F381804FF046
:103D10000008336906EB8303186900F0D7FCC0F193
:103D20002000059B184410F01F0000F09280C0F1A5
:103D30002003042B40F38A80C0F11C00049B034441
:103D40000493059B034405440593049B002B07DD66
:103D500018EE101A1A46204600F022FE08EE100A4D
:103D6000059B002B05DD31461A46204600F018FE63
:103D700006460B9B002B6ED018EE100A314600F061
:103D80007FFE002867DA009B013B18EE101A0093B3
:103D90000A220023204600F053FC089B08EE100A7C
:103DA000002B00F0B181002339460A22204600F0A2
:103DB00047FC029B002B074600F38E80069B022BDC
:103DC00051DC89E0109BC3F136034BE7039B5E1E79
:103DD000079BB342BFBF079B0796F21A0A9BB6BF69
:103DE0009B189E1B0A93039BB8BF0026002BB7BFEE
:103DF000DDE90323DDE903359D1A002334E7079E3F
:103E0000049D089F3BE7079A67E7069B012B18DC98
:103E1000BAF1000F15D1CBF3130393B92BF0004384
:103E20001B0D1B0583B1049B01330493059B0133D8
:103E300005934FF001080A9B002B7FF46AAF012025
:103E40006FE74FF00008F6E79846F4E73FF47DAFE0
:103E500018461C3072E7039B002B37DC069B022BB5
:103E600034DD039B0293029B6BB931460522204649
:103E700000F0E6FB0146064618EE100A00F000FED0
:103E800000283FF7BBAD099B019DDB4300934FF03A
:103E900000083146204600F0B1FB002F3FF4A4AEED
:103EA000B8F1000F05D0B84503D04146204600F0D8
:103EB000A5FB3946204600F0A1FB95E600263746D3
:103EC000E1E70097374699E500002440089B002B66
:103ED00000F0CA80039B0293002D05DD39462A4677
:103EE000204600F05DFD0746B8F1000F5BD0796811
:103EF000204600F043FB054628B9874B024640F2B6
:103F0000EA21FFF73BBB3A690232920007F10C014C
:103F10000C30FEF7BDFC01222946204600F040FD92
:103F2000019B03F10109DDE90123134405930AF024
:103F30000103B84604930746314618EE100AFFF70E
:103F400075FA4146029000F1300A18EE100A00F0AE
:103F500097FD3A4603903146204600F0ADFDC26819
:103F600009F1FF3B054602BB014618EE100A00F0BE
:103F700087FD024629462046079200F03FFBDDE917
:103F8000063243EA0201049B0B434D460FD1BAF1BE
:103F9000390F2AD0039B002B02DD029B03F1310A6B
:103FA0008BF800A075E73846BAE70122E2E7039BE9
:103FB000002B04DB06990B4304990B4322D1002A02
:103FC000EEDD18EE101A0122204600F0E9FC314621
:103FD00008EE100A00F054FD002803DCE0D11AF0CE
:103FE000010FDDD0BAF1390FD7D139238BF800306A
:103FF0002B461D46013B15F8012C392A71D00132A0
:104000001A7046E7002A07DDBAF1390FEDD00AF140
:1040100001038BF800303CE7059B09F801AC99459A
:1040200047D018EE101A00230A22204600F008FBA1
:10403000B84508EE100A4FF000034FF00A0241465F
:10404000204606D100F0FCFA8046074609F1010936
:1040500072E700F0F5FA3946804600230A2220462E
:1040600000F0EEFA0746F1E7039B0293019D18EE7C
:10407000100A3146FFF7DAF900F1300A019B05F822
:1040800001ABEA1A029B934209DD18EE101A0023D5
:104090000A22204600F0D4FA08EE100AE7E7029B55
:1040A000002BC8BF1D46019BD8BF01251D444FF002
:1040B000000818EE101A0122204600F071FC31466B
:1040C00008EE100A00F0DCFC002891DC02D11AF0A6
:1040D000010F8DD12B461D4613F8012D302AFAD041
:1040E000D7E6019A9A4284D1009B01330093312391
:1040F0001370CEE6094BFFF795BA219B002B7FF496
:104100006EAA074BFFF78EBA029B002BAEDC069B14
:10411000022B3FF7A8AEA9E73955000874540008F0
:10412000985400088A892DE9F041054610070C468D
:1041300058D44B68002B05DC0B6C002B02DC0020F4
:10414000BDE8F081E66A002EF9D0002312F4805217
:104150002F682B6032D0606DA3895A0705D563683C
:10416000C01A636B0BB1236CC01A00230246E66AC7
:10417000216A2846B047431CA38906D129681D2916
:104180002CD82A4ACA40D60728D500226260D90412
:104190002269226004D5421C01D12B6803B96065F5
:1041A000616B2F600029CAD004F14403994202D008
:1041B000284600F077FD00206063C1E7216A0123F3
:1041C0002846B047411CC7D12B68002BC4D01D2BFB
:1041D00001D0162B01D12F60B1E7A38943F0400332
:1041E000A381ADE70F69002FA9D093070E6808BF20
:1041F0004B690F6018BF0023A6EB07088B60B8F16E
:10420000000F9CDD216AA66A43463A462846B0471D
:10421000002806DCA38943F04003A3814FF0FF3060
:104220008EE70744A8EB0008E9E700BF0100402043
:1042300038B50B6905460C4613B90025284638BD2C
:1042400018B183690BB900F087F8144B9C421BD15D
:104250006C68B4F90C30002BEFD0626ED00704D438
:10426000990502D4A06D00F01AF928462146FFF7FF
:1042700059FF636EDA070546E0D4A3899B05DDD4B8
:10428000A06D00F00DF9D9E7054B9C4201D1AC6857
:10429000DFE7044B9C4208BFEC68DAE76C55000886
:1042A0008C5500084C550008002310B50446C0E9A1
:1042B0000033C0E90433836081814366C281836136
:1042C000194608225C30FEF7F1FA054B6362054B94
:1042D000A362054BE362054B2462236310BD00BF5C
:1042E000C5500008E75000081F510008435100085E
:1042F000014900F0AFB800BF3142000870B5682234
:104300004D1E55430E4605F1740100F017FD04469D
:1043100040B10021C0E900160C30A06005F1680230
:10432000FEF7C4FA204670BD014800F0B8B800BFDF
:1043300005050020014800F0B3B800BF05050020C6
:10434000014800F0ACB800BF06050020014800F0AD
:10435000A7B800BF0605002010B50446FFF7F0FF20
:10436000A3691BB1BDE81040FFF7F0BFC4E91233E9
:104370002365134B134A1B68A262A34204BF0123A7
:10438000A361204600F020F86060204600F01CF891
:10439000A060204600F018F80022E0600421606868
:1043A000FFF782FFA06801220921FFF77DFFE06887
:1043B00002221221FFF778FF0123A361D2E700BF99
:1043C00060540008F1420008F8B50746FFF7ACFF5B
:1043D0001E4B1E68B36913B93046FFF7BDFF483660
:1043E000D6E90134013B03D533680BB33668F7E7F0
:1043F000B4F90C50D5B9164BE36004F1580065666A
:1044000000F04CF8FFF796FFC4E90155C4E90455E4
:104410002560A5610822294604F15C00FEF746FAF2
:10442000C4E90D55C4E912552046F8BD6834D9E7F2
:1044300004213846FFF762FF044630600028D5D1DA
:10444000FFF778FF0C233B60EEE700BF60540008E5
:104450000100FFFF2DE9F8430646884600F14804B5
:104460000027D4E90195B9F1010905D52468002C8C
:10447000F7D13846BDE8F883AB89012B07D9B5F9E8
:104480000E30013303D029463046C0470743683514
:10449000E9E70000004870475C0100207047704762
:1044A000704770B50E46B1F90E10002996B014464B
:1044B0001D4608DAB6F90C3000222A601A0610D41C
:1044C0004FF480630EE06A4600F092FE0028F1DBB4
:1044D000019A02F47042A2F500535A425A412A60EE
:1044E000EEE740230020236016B070BD8B8973B5C2
:1044F0009D0706460C4607D504F147032360236158
:104500000123636102B070BD01AB6A46FFF7C9FFCA
:1045100000990546304600F011FC48B9B4F90C305A
:104520009A05EFD423F0030343F00203A381E3E7EA
:104530000D4BB362A389206043F08003A381009BED
:104540006361019B20615BB1B4F90E10304600F04D
:1045500061FE28B1A38923F0030343F00103A38183
:10456000A0890543A581CDE7F1420008024B014631
:10457000186800F0E3BB00BF0800002070B5466A71
:1045800004460D4676B91020FFF7F0FF0246606240
:1045900020B9184B1848662100F0EAFDC0E9016611
:1045A0000660C660666AF36883B1636ADB6853F8C5
:1045B0002500B8B9012101FA05F6721D92002046C6
:1045C00000F060FB60B1C0E901560EE02122042139
:1045D000204600F057FB636AF060DB68002BE4D1F3
:1045E000002070BD026843F825200023C0E9033392
:1045F000F7E700BFA5540008AC55000870B5466A3F
:1046000005460C4676B91020FFF7B0FF02466862F7
:1046100020B9094B09488A2100F0AAFDC0E90166CA
:104620000660C6603CB16B6A6268DB6853F82210B2
:10463000216043F8224070BDA5540008AC55000825
:104640002DE9F0410D6907460C461E4601F1140C98
:104650000020DCF8003099B202FB01611E0C0B0C4B
:1046600002FB063389B2013001EB034185424CF86D
:10467000041B4FEA1346ECDC0EB3A368AB4219DC13
:10468000616838460131FFF779FF804628B9024654
:104690000C4B0D48B52100F06BFD2269023204F18C
:1046A0000C0192000C30FEF7F3F821463846FFF774
:1046B000A5FF444604EB850301355E612561204674
:1046C000BDE8F08139550008AC550008030C1B0407
:1046D000D3B90004102310F07F4F04BF0002083349
:1046E00010F0704F04BF0001043310F0404F04BFBE
:1046F00080000233002805DB10F0804F03F1010336
:1047000008BF2023184670470023E4E7036813F02E
:10471000070201460BD0DA0723D4980749BF5B088C
:104720009B0801200B605CBF0B600220704798B2B1
:10473000A8B91B0C1020DAB20AB908301B0A1A07F4
:1047400004BF1B0904309A0704BF9B080230DA0734
:1047500003D45B0800F1010005D00B6070471046E0
:10476000E9E70020704720207047000010B50C4694
:104770000121FFF703FF024628B9054B05484FF416
:10478000A07100F0F5FC01234461036110BD00BF7E
:1047900039550008AC5500082DE9F04F91460A69DB
:1047A000D9F810309A42B8BF0B460C46BCBF4C46F5
:1047B00099462769D9F810A0A368616807EB0A0633
:1047C000B34285B0B8BF0131FFF7D8FE30B9024619
:1047D000444B454840F25D1100F0CAFC00F114055D
:1047E00005EB86082B460022434521D304F1140330
:1047F00003EB870709F1140303EB8A0202923A1BC9
:10480000153A22F00302043204F115018F4238BF39
:1048100004220192029A03939A420CD8002E03DDDF
:1048200058F8043D002B5AD0066105B0BDE8F08F62
:1048300043F8042BD8E7B3F800A0BAF1000F24D056
:1048400004F1140EA9464FF0000C5EF8042BD9F8C1
:1048500000101FFA82FB89B20AFB0B114FEA124BC0
:10486000D9F8002061444FEA124C0AFB0BC202EB5C
:10487000114289B241EA0241774549F8041B4FEAE7
:10488000124CE2D8019A45F802C0039AB2F802909D
:104890000433B9F1000F20D0296804F1140CAE469E
:1048A0004FF0000ABCF800B0BEF8022009FB0B2252
:1048B000924489B241EA0A414EF8041B5CF8042B89
:1048C000BEF80010120C09FB021101EB1A416745FA
:1048D0004FEA114AE6D8019AA95004359AE7013EF9
:1048E0009CE700BF39550008AC5500082DE9F84396
:1048F000154612F0030206460F4607D0254C013A32
:10490000002354F82220FFF79BFE0746AD103DD050
:10491000746A7CB91020FFF729FE0246706228B93C
:104920001D4B1E484FF4D77100F022FCC0E9014432
:104930000460C460D6F82480D8F808404CB940F22E
:1049400071213046FFF712FF0023C8F80800044623
:1049500003604FF00009EB070AD53946224630467E
:10496000FFF71AFF394680463046FFF747FE4746B5
:104970006D100BD0206838B9224621463046FFF72B
:104980000BFF2060C0F800900446E4E73846BDE81D
:10499000F88300BF20570008A5540008AC55000854
:1049A0002DE9F0470C464968236903EB6218A368B8
:1049B000074691464FEA621A08F10106B3420BDB43
:1049C0003846FFF7DBFD054648B902462A4B2B481F
:1049D00040F2D91100F0CCFB01315B00EEE700237F
:1049E00000F1140100F110021846534537DB20692D
:1049F0002AEAEA7A04F1140319F01F0901EB8A018B
:104A000003EB80002FD0C9F1200E8A464FF0000C36
:104A10001A6802FA09F242EA0C024AF8042B53F827
:104A2000042B984222FA0EFCF2D8031B153B23F00C
:104A30000303043304F11502904238BF042341F804
:104A400003C0BCF1000F01D008F10206013E384658
:104A50002E612146FFF7D2FD2846BDE8F08742F8D7
:104A6000040F0133C1E7043953F8042B41F8042F34
:104A70009842F9D8EAE700BF39550008AC5500085C
:104A800030B502690C69121B0ED100F11403143108
:104A900003EB840001EB840150F8045D51F8044DF0
:104AA000A54203D005D30122104630BD8342F3D383
:104AB000FAE74FF0FF32F7E72DE9F84F0C460646CC
:104AC000114620469046FFF7DBFF051E10D1294610
:104AD0003046FFF753FD30B93A4B024640F23221DF
:104AE000394800F045FB0123C0E90435BDE8F88FE3
:104AF000A4BF4346A0463046D8F80410A6BF1C46C3
:104B000000250125FFF73AFD20B92E4B02464FF450
:104B10001071E5E7D8F810702669C56004F1140932
:104B200008F1140500F1140E05EB870C09EB86065D
:104B300008F11002F246002159F8043B52F804BF74
:104B40001FFA83F811FA8BF11B0CA1EB0808C3EBD9
:104B50001B4303EB28431FFA88F819144E4548EA13
:104B600003434AF8043BE7D8331B153B23F0030308
:104B700004331534A64238BF04231D4473449E46B3
:104B80002E4666450ED30CF10302521B22F003029F
:104B9000033DAC4538BF00221A4452F8043D7BB1B6
:104BA0000761A3E756F8048B11FA88F2141404EB9A
:104BB000184492B242EA04424EF8042B2114E0E772
:104BC000013FEAE739550008AC5500082DE9F743E5
:104BD0008946012157EC106B9046FFF7CFFC044645
:104BE00030B90246254B264840F20A3100F0C0FA9F
:104BF000C7F30A55C7F3130335BB002E019328D022
:104C000068460096FFF782FD009900B3019AC0F153
:104C1000200302FA03F30B43C24063610192019B3C
:104C2000A361002B14BF022201222261D5B1A5F29B
:104C300033450544C9F80050C0F13500C8F80000FC
:104C4000204603B0BDE8F08343F48013D5E76161EB
:104C5000E5E701A8FFF75AFD019B6361012222618C
:104C60002030E3E704EB8203A0F23240C9F80000F1
:104C70001869FFF72BFDC0EB4210DFE7395500083C
:104C8000AC55000813B54A431146019200F056F89E
:104C9000044618B1019A0021FDF708FE204602B033
:104CA00010BD000037B5002944D051F8043C0190F4
:104CB000002BA1F10404B8BFE41800F0DFFA1E4A8B
:104CC0000198136833B96360146003B0BDE83040E5
:104CD00000F0DABAA34208D9256861198B4201BFF6
:104CE00019685B6849192160EDE71A465B680BB1EA
:104CF000A342FAD911685518A5420BD12468214462
:104D00005418A3421160E0D11C685B6853602144D1
:104D10001160DAE702D90C230360D6E72568611930
:104D20008B4204BF19685B68636004BF4919216046
:104D30005460CAE703B030BD08050020F8B5CD1CAB
:104D400025F0030508350C2D38BF0C25002D06462F
:104D500001DBA94203D90C2333600020F8BD00F029
:104D60008DFA21490A6814469CB9204F3B6823B943
:104D70002146304600F096F938602946304600F06A
:104D800091F9431C23D10C233360304600F07CFAA8
:104D9000E3E723685B1B17D40B2B03D923601C4468
:104DA000256004E06368A2420CBF0B60536030468C
:104DB00000F06AFA04F10B00231D20F00700C21A6C
:104DC000CCD01B1AA350C9E722466468CCE7C41CA8
:104DD00024F00304A042E3D0211A304600F062F927
:104DE0000130DDD1CFE700BF080500200C05002011
:104DF0009368013B002B10B4936008DA9469A342D6
:104E000001DB0A2903D15DF8044BFEF74FBA1368A2
:104E1000581C1060197008465DF8044B7047F8B5CF
:104E200006460F461446D518AC4201D1002007E0D3
:104E300014F8011B3A463046FFF7DAFF431CF3D162
:104E4000F8BD00002DE9F04F0D469DB01446984680
:104E5000064618B183690BB9FFF77EFA894B9D426C
:104E60001BD175686B6ED90705D4AB899A0502D43E
:104E7000A86DFFF714FBAB891B0701D52B69EBB9B4
:104E800029463046FEF764FAC0B16B6EDC070ED5DA
:104E90004FF0FF301DB0BDE8F08F7B4B9D4201D13C
:104EA000B568DFE7794B9D4208BFF568DAE7AB8963
:104EB0009805EDD4A86DFFF7F3FAE9E7002309930D
:104EC00020238DF82930CDF80C803023DFF8C08105
:104ED0008DF82A304FF0010923469A4613F8012B2A
:104EE0000AB1252AF9D1BAEB040B0BD05B46224656
:104EF00029463046FFF793FF013000F0AA80099A57
:104F00005A4409929AF80030002B00F0A280002346
:104F10004FF0FF32CDE905230AF1010A049307930C
:104F20008DF853301A935446052214F8011B584843
:104F3000FBF766F9049AD8B9D10644BF20238DF84F
:104F40005330130744BF2B238DF853309AF80030A9
:104F50002A2B15D0079A544600204FF00A0C214600
:104F600011F8013B303B092B4ED9B0B1079214E048
:104F7000A0EB080309FA03F313430493A246D2E714
:104F8000039B191D1B680391002BBBBF5B4242F0C2
:104F9000020207930793B8BF049223782E2B0CD1FB
:104FA00063782A2B35D1039B1A1D1B680392002BB3
:104FB000B8BF4FF0FF3302340593DFF8E4A0217847
:104FC00003225046FBF71CF940B14023A0EB0A0036
:104FD00003FA00F0049B03430134049314F8011B0B
:104FE0002C488DF828100622FBF70AF900283FD03C
:104FF000294B1BBB039B073323F0070308330393A1
:10500000099B3B44099367E70CFB02320C460120E5
:10501000A5E700230134059319464FF00A0C2046FA
:1050200010F8012B303A092A03D9002BC5D005917D
:10503000C3E70CFB012104460123F0E703AB009317
:105040002A46164B04A93046FDF7D8FC0746781CC3
:10505000D6D16B6ED90705D4AB899A0502D4A86D59
:10506000FFF71EFAAB895B063FF512AF099811E70F
:1050700003AB00932A46094B04A93046FDF762FFB3
:10508000E4E700BF6C5500088C5500084C5500083B
:105090002C57000836570008FD2900081F4E00084D
:1050A0003257000838B5064D0023044608462B60E9
:1050B00000F092F9431C02D12B6803B1236038BD84
:1050C0001005002010B50C46B1F90E1000F0E2F802
:1050D0000028ABBF636DA3891B1823F48053ACBFBA
:1050E0006365A38110BD2DE9F0411F468B89DB0567
:1050F00005460C46164605D5B1F90E1002230022CE
:1051000000F098F8A389B4F90E1023F48053A3811A
:1051100032463B462846BDE8F04100F017B810B5CE
:105120000C46B1F90E1000F085F8431CA38915BF99
:10513000606523F4805343F48053A38118BFA38197
:1051400010BDB1F90E1000F031B8000038B5074DB0
:1051500004460846114600222A601A46FBF798FFCB
:10516000431C02D12B6803B1236038BD1005002019
:105170001FB514461A46094B1B680546D8684CB142
:10518000074B0091CDE9013406492B4600F01EF88B
:1051900000F09FF8044B1C46F3E700BF0800002016
:1051A0003D5700084A5700087857000838B5064DA3
:1051B0000023044608462B6000F0D6F8431C02D1B9
:1051C0002B6803B1236038BD100500200EB403B571
:1051D000014603AB054853F8042B00680193FFF721
:1051E00031FE02B05DF804EB03B070470800002008
:1051F00038B5074D00230446084611462B6000F0E1
:10520000BBF8431C02D12B6803B1236038BD00BF3B
:105210001005002038B5064D0023044608462B60D3
:1052200000F0BAF8431C02D12B6803B1236038BDEB
:105230001005002038B5074D0446084611460022E7
:105240002A601A4600F0B8F8431C02D12B6803B15B
:10525000236038BD1005002082B001B901A942B118
:105260004BB113780B601278101E18BF012002B0EA
:1052700070471046FBE76FF00100F8E70148FFF7C1
:105280000EB900BF040500200148FFF709B900BFAF
:105290000405002038B5074D044608461146002293
:1052A0002A601A4600F090F8431C02D12B6803B123
:1052B000236038BD1005002049B1FF2A85BF8A232D
:1052C00003600A704FF0FF3098BF01207047084616
:1052D000704708B5062000F02BF8012000F08AF88E
:1052E0001F2938B504460D4604D9162303604FF034
:1052F000FF3038BD426C12B152F821304BB9204614
:1053000000F030F82A4601462046BDE8384000F05B
:1053100017B8012B0AD0591C03D1162303600120B2
:10532000E7E7002442F82540284698470020E0E7B8
:10533000024B01461868FFF7D3BF00BF08000020EA
:1053400038B5074D00230446084611462B6000F08F
:105350002BF8431C02D12B6803B1236038BD00BF7A
:105360001005002000F010B8024B58221A604FF0D0
:10537000FF30704710050020024B58221A604FF092
:10538000FF30704710050020024B58221A604FF082
:10539000FF30704710050020024B58221A60002091
:1053A000704700BF10050020024B58221A604FF0D2
:1053B000FF30704710050020024B58221A604FF052
:1053C000FF30704710050020024B58221A604FF042
:1053D000FF30704710050020044A05491368002B70
:1053E00008BF0B461844106018467047140500208B
:1053F00018050020FEE700BFF8B500BFF8BC08BCE8
:105400009E467047F8B500BFF8BC08BC9E46704782
:105410004672656552746F7320C4A3B0E500000046
:105420002E2F4672656552746F732F7372632F74DB
:1054300061736B732E6300004572726F723A25734D
:105440002C25640D0A000000000000000000000090
:10545000010203040607080900000000010203041A
:105460000C000020494E4600696E66004E414E0019
:105470006E616E00300030313233343536373839B2
:1054800041424344454600303132333435363738B3
:105490003961626364656600496E66696E69747934
:1054A000004E614E005245454E54206D616C6C6F4C
:1054B0006320737563636565646564002F6D6E7446
:1054C0002F776F726B73706163652F776F726B7379
:1054D000706163652F4743432D31302D70697065CE
:1054E0006C696E652F6A656E6B696E732D474343F9
:1054F0002D31302D706970656C696E652D34385FA3
:1055000032303230313132345F313630363138304A
:105510003634312F7372632F6E65776C69622F6E2C
:1055200065776C69622F6C6962632F7374646C6950
:10553000622F64746F612E630042616C6C6F632034
:1055400073756363656564656400000000000000B6
:10555000000000000000000000000000000000004B
:10556000000000000000000000000000000000003B
:10557000000000000000000000000000000000002B
:10558000000000000000000000000000000000001B
:10559000000000000000000000000000000000000B
:1055A0000000000000000000000000002F6D6E747D
:1055B0002F776F726B73706163652F776F726B7388
:1055C000706163652F4743432D31302D70697065DD
:1055D0006C696E652F6A656E6B696E732D47434308
:1055E0002D31302D706970656C696E652D34385FB2
:1055F00032303230313132345F313630363138305A
:105600003634312F7372632F6E65776C69622F6E3B
:1056100065776C69622F6C6962632F7374646C695F
:10562000622F6D707265632E630000000000000041
:105630000080E03779C34143176E05B5B5B893468E
:10564000F5F93FE9034F384D321D30F94877825A5A
:105650003CBF737FDD4F1575000000000000F03F78
:10566000000000000000244000000000000059403D
:105670000000000000408F40000000000088C34090
:1056800000000000006AF8400000000080842E4105
:1056900000000000D01263410000000084D7974151
:1056A0000000000065CDCD41000000205FA0024257
:1056B000000000E876483742000000A2941A6D42CC
:1056C000000040E59C30A2420000901EC4BCD642BF
:1056D00000003426F56B0C430080E03779C341436A
:1056E00000A0D8855734764300C84E676DC1AB43E0
:1056F000003D9160E458E143408CB5781DAF1544FE
:1057000050EFE2D6E41A4B4492D54D06CFF08044D8
:10571000F64AE1C7022DB544B49DD9794378EA44ED
:1057200005000000190000007D000000232D302B33
:105730002000686C4C00656667454647002C206673
:10574000756E6374696F6E3A20006173736572746D
:10575000696F6E2022257322206661696C65643A48
:105760002066696C6520222573222C206C696E6589
:10577000202564257325730A004300504F53495870
:10578000002E000020202020202020202028282853
:1057900028282020202020202020202020202020F9
:1057A0002020202088101010101010101010101041
:1057B0001010101004040404040404040404101061
:1057C00010101010104141414141410101010101FE
:1057D00001010101010101010101010101010110AA
:1057E00010101010104242424242420202020202D3
:1057F000020202020202020202020202020202107B
:105800001010102000000000000000000000000048
:105810000000000000000000000000000000000088
:105820000000000000000000000000000000000078
:105830000000000000000000000000000000000068
:105840000000000000000000000000000000000058
:105850000000000000000000000000000000000048
:105860000000000000000000000000000000000038
:105870000000000000000000000000000000000028
:045880000000000024
:0858840074B3FF7F0100000076
:04588C00D50100083A
:04589000B10100085A
:105894000024F400010000000C00002000000000BF
:1058A4006C5500088C5500084C5500080000000099
:1058B40000000000000000000000000000000000E4
:1058C40000000000000000000000000000000000D4
:1058D40000000000000000000000000000000000C4
:1058E40000000000000000000000000000000000B4
:1058F4000000000000000000000000004300000061
:105904000000000000000000000000000000000093
:105914000000000000000000000000004300000040
:105924000000000000000000000000000000000073
:105934000000000000000000000000004300000020
:105944000000000000000000000000000000000053
:105954000000000000000000000000004300000000
:105964000000000000000000000000000000000033
:1059740000000000000000000000000043000000E0
:105984000000000000000000000000000000000013
:1059940000000000000000000000000043000000C0
:1059A40000000000000000000000000000000000F3
:1059B40000000000000000000000000043000000A0
:1059C40000000000000000000000000000000000D3
:1059D400000000000000000000000000B9520008B0
:1059E400595200080000000083570008815700083E
:1059F4007857000878570008785700087857000847
:105A04007857000878570008785700087857000836
:105A140078570008FFFFFFFFFFFFFFFFFFFFFFFFB7
:105A2400FFFF00000100415343494900000000000A
:105A34000000000000000000000000000000000062
:105A440000000000000041534349490000000000E9
:105A54000000000000000000000000000000000042
:085A640000000000000000003A
:04000005080027E9DF
:00000001FF
