:020000040800F2
:1000000000000120C5520008E10C0008D1020008E0
:10001000ED0C0008F30C0008F90C000800000000CB
:10002000000000000000000000000000FF0C0008BD
:100030000B0D00080000000057020008850E0008A4
:100040000D5300080D5300080D5300080D53000810
:100050000D5300080D5300080D5300080D53000800
:100060000D5300080D5300080D5300080D530008F0
:100070000D5300080D5300080D5300080D530008E0
:100080000D5300080D5300080D5300080D530008D0
:100090000D5300080D5300080D5300080D530008C0
:1000A0000D5300080D5300080D5300080D530008B0
:1000B0000D5300080D5300080D5300080D530008A0
:1000C0000D5300080D5300080D5300080D53000890
:1000D0000D5300080D5300080D5300080D53000880
:1000E0000D5300080D5300080D5300080D53000870
:1000F0000D5300080D5300080D5300080D53000860
:100100000D5300080D5300080D5300080D5300084F
:100110000D5300080D5300080D5300080D5300083F
:100120000D5300080D5300080D5300080D5300082F
:1001300000000000000000000000000000000000BF
:1001400000000000000000000000000000000000AF
:10015000000000000000000000000000000000009F
:10016000000000000000000000000000000000008F
:10017000000000000000000000000000000000007F
:10018000000000000000000000000000000000006F
:10019000000000000000000000000000000000005F
:1001A000000000000000000000000000000000004F
:1001B000000000000000000000000000000000003F
:1001C000000000000000000000000000000000002F
:1001D000000000000000000000000000000000001F
:0401E0005FF8E0F1F3
:1001E80010B5054C237833B9044B13B10448AFF369
:1001F80000800123237010BD2802002000000000A9
:10020800E401000808B5034B1BB103490348AFF3E9
:10021800008008BD000000002C020020E401000856
:10022800EFF3108072B6704780F310887047354A34
:100238001368012B04D04FF001031360324A106099
:10024800324A116032484FF0805101607047EFF335
:10025800108272B62B48016891B14FF0000101601D
:100268002948016829B1EFF3098121E9F00F0068F5
:100278000160264909680968B1E8F00F81F3098827
:1002880082F310884EF0040E7047204908601E491A
:100298004FF0000008601B494FF0010008601D483E
:1002A8001D49D0F8002041EA0201016018484FF0CA
:1002B8008051016019480068006800BF80F3088811
:1002C80061B662B6704700BFEFF308801EF0040FF6
:1002D80001D0EFF3098020E9F00F40F804ED1EF09B
:1002E800040F02D080F3098801E080F3088800B584
:1002F80002F062FD5DF804EB4EF0040E7047EFF378
:1003080005807047EC120020E4120020E81200205B
:1003180004ED00E020ED00E00000FFFF08ED00E044
:10032800034613F8012B002AFBD1181A013870472D
:1003380081F0004102E000BF83F0004330B54FEA8E
:1003480041044FEA430594EA050F08BF90EA020FFB
:100358001FBF54EA000C55EA020C7FEA645C7FEA8E
:10036800655C00F0E2804FEA5454D4EB5555B8BFB1
:100378006D420CDD2C4480EA020281EA030382EA22
:10038800000083EA010180EA020281EA0303362DB4
:1003980088BF30BD11F0004F4FEA01314FF4801C87
:1003A8004CEA113102D0404261EB410113F0004F99
:1003B8004FEA03334CEA133302D0524263EB430350
:1003C80094EA050F00F0A780A4F10104D5F1200EEE
:1003D8000DDB02FA0EFC22FA05F2801841F1000149
:1003E80003FA0EF2801843FA05F359410EE0A5F11D
:1003F80020050EF1200E012A03FA0EFC28BF4CF04E
:10040800020C43FA05F3C01851EBE37101F0004503
:1004180007D54FF0000EDCF1000C7EEB00006EEB10
:100428000101B1F5801F1BD3B1F5001F0CD349089A
:100438005FEA30004FEA3C0C04F101044FEA4452F1
:1004480012F5800F80F09A80BCF1004F08BF5FEA78
:10045800500C50F1000041EB045141EA050130BD58
:100468005FEA4C0C404141EB0101013C28BFB1F56A
:10047800801FE9D291F0000F04BF01460020B1FAB5
:1004880081F308BF2033A3F10B03B3F120020CDA88
:100498000C3208DD02F1140CC2F10C0201FA0CF066
:1004A80021FA02F10CE002F11402D8BFC2F1200CCB
:1004B80001FA02F120FA0CFCDCBF41EA0C01904081
:1004C800E41AA2BF01EB0451294330BD6FEA0404CA
:1004D8001F3C1CDA0C340EDC04F11404C4F12002B5
:1004E80020FA04F001FA02F340EA030021FA04F3C7
:1004F80045EA030130BDC4F10C04C4F1200220FA1E
:1005080002F001FA04F340EA0300294630BD21FA5B
:1005180004F0294630BD94F0000F83F4801306BF21
:1005280081F480110134013D4EE77FEA645C18BF15
:100538007FEA655C29D094EA050F08BF90EA020FAC
:1005480005D054EA000C04BF1946104630BD91EAA4
:10055800030F1EBF0021002030BD5FEA545C05D1A7
:100568004000494128BF41F0004130BD14F58004E6
:100578003CBF01F5801130BD01F0004545F0FE415A
:1005880041F470014FF0000030BD7FEA645C1ABF8F
:10059800194610467FEA655C1CBF0B46024650EAC6
:1005A800013406BF52EA033591EA030F41F40021F2
:1005B80030BD00BF90F0000F04BF0021704730B578
:1005C8004FF4806404F132044FF000054FF000014D
:1005D80050E700BF90F0000F04BF0021704730B50E
:1005E8004FF4806404F1320410F0004548BF4042E3
:1005F8004FF000013EE700BF42004FEAE2014FEA38
:1006080031014FEA02701FBF12F07F4393F07F4F12
:1006180081F06051704732F07F4208BF704793F015
:100628007F4F04BF41F40021704730B54FF4607428
:1006380001F0004521F000411CE700BF50EA01022B
:1006480008BF704730B54FF000050AE050EA0102D4
:1006580008BF704730B511F0004502D5404261EB44
:1006680041014FF4806404F132045FEA915C3FF485
:10067800D8AE4FF003025FEADC0C18BF03325FEA22
:10068800DC0C18BF033202EBDC02C2F1200300FAD3
:1006980003FC20FA02F001FA03FE40EA0E0021FAF8
:1006A80002F11444BDE600BF70B54FF0FF0C4CF4E6
:1006B800E06C1CEA11541DBF1CEA135594EA0C0F98
:1006C80095EA0C0F00F0DEF82C4481EA030621EAD3
:1006D8004C5123EA4C5350EA013518BF52EA03350E
:1006E80041F4801143F4801338D0A0FB02CE4FF0C0
:1006F8000005E1FB02E506F00042E0FB03E54FF0F0
:100708000006E1FB03569CF0000F18BF4EF0010EE7
:10071800A4F1FF04B6F5007F64F5407404D25FEAE3
:100728004E0E6D4146EB060642EAC62141EA555196
:100738004FEAC52040EA5E504FEACE2EB4F1FD0CD8
:1007480088BFBCF5E06F1ED8BEF1004F08BF5FEA56
:10075800500E50F1000041EB045170BD06F0004608
:1007680046EA010140EA020081EA0301B4EB5C04B5
:10077800C2BFD4EB0C0541EA045170BD41F48011AD
:100788004FF0000E013C00F3AB8014F1360FDEBFD2
:10079800002001F0004170BDC4F10004203C35DAAE
:1007A8000C341BDC04F11404C4F1200500FA05F331
:1007B80020FA04F001FA05F240EA020001F00042D2
:1007C80021F0004110EBD37021FA04F642EB060148
:1007D8005EEA430E08BF20EAD37070BDC4F10C0472
:1007E800C4F1200500FA04F320FA05F001FA04F236
:1007F80040EA020001F0004110EBD37041F1000122
:100808005EEA430E08BF20EAD37070BDC4F120052C
:1008180000FA05F24EEA020E20FA04F301FA05F294
:1008280043EA020321FA04F001F0004121FA04F23C
:1008380020EA020000EBD3705EEA430E08BF20EA0C
:10084800D37070BD94F0000F0FD101F00046400046
:1008580041EB010111F4801F08BF013CF7D041EAC8
:10086800060195F0000F18BF704703F000465200CC
:1008780043EB030313F4801F08BF013DF7D043EA9D
:100888000603704794EA0C0F0CEA135518BF95EA53
:100898000C0F0CD050EA410618BF52EA4306D1D1DA
:1008A80081EA030101F000414FF0000070BD50EAF9
:1008B800410606BF1046194652EA430619D094EA83
:1008C8000C0F02D150EA013613D195EA0C0F05D16D
:1008D80052EA03361CBF104619460AD181EA0301C1
:1008E80001F0004141F0FE4141F470014FF0000079
:1008F80070BD41F0FE4141F4780170BD70B54FF014
:10090800FF0C4CF4E06C1CEA11541DBF1CEA135593
:1009180094EA0C0F95EA0C0F00F0A7F8A4EB050475
:1009280081EA030E52EA03354FEA013100F088806C
:100938004FEA03334FF0805545EA131343EA126335
:100948004FEA022245EA111545EA10654FEA0026EA
:100958000EF000419D4208BF964244F1FD0404F5A3
:10096800407402D25B084FEA3202B61A65EB0305FF
:100978005B084FEA32024FF480104FF4002CB6EBBC
:10098800020E75EB030E22BFB61A754640EA0C003C
:100998005B084FEA3202B6EB020E75EB030E22BF7C
:1009A800B61A754640EA5C005B084FEA3202B6EBBD
:1009B800020E75EB030E22BFB61A754640EA9C007C
:1009C8005B084FEA3202B6EB020E75EB030E22BF4C
:1009D800B61A754640EADC0055EA060E18D04FEA0A
:1009E800051545EA16754FEA06164FEAC30343EAAA
:1009F80052734FEAC2025FEA1C1CC0D111F4801F77
:100A08000BD141EA00014FF000004FF0004CB6E76F
:100A180011F4801F04BF01430020B4F1FD0C88BF0E
:100A2800BCF5E06F3FF6AFAEB5EB030C04BFB6EB19
:100A3800020C5FEA500C50F1000041EB045170BD0C
:100A48000EF0004E4EEA113114EB5C04C2BFD4EB39
:100A58000C0541EA045170BD41F480114FF0000EBD
:100A6800013C90E645EA060E8DE60CEA135594EA39
:100A78000C0F08BF95EA0C0F3FF43BAF94EA0C0F3C
:100A88000AD150EA01347FF434AF95EA0C0F7FF4B1
:100A980025AF104619462CE795EA0C0F06D152EA05
:100AA80003353FF4FDAE1046194622E750EA4106E9
:100AB80018BF52EA43067FF4C5AE50EA41047FF4FA
:100AC8000DAF52EA43057FF4EBAE12E74FF0FF3C5F
:100AD80006E000BF4FF0010C02E000BF4FF0010C30
:100AE8004DF804CD4FEA410C7FEA6C5C4FEA430CA9
:100AF80018BF7FEA6C5C1BD001B050EA410C0CBFF8
:100B080052EA430C91EA030F02BF90EA020F002059
:100B1800704710F1000F91EA030F58BF994208BFC0
:100B280090422CBFD8176FEAE37040F0010070477D
:100B38004FEA410C7FEA6C5C02D150EA013C07D1D4
:100B48004FEA430C7FEA6C5CD6D152EA033CD3D01F
:100B58005DF8040B704700BF8446104662468C4619
:100B68001946634600E000BF01B5FFF7B7FF00284C
:100B780048BF10F1000F01BD4DF808EDFFF7F4FF75
:100B88000CBF012000205DF808FB00BF4DF808ED00
:100B9800FFF7EAFF34BF012000205DF808FB00BF23
:100BA8004DF808EDFFF7E0FF94BF012000205DF845
:100BB80008FB00BF4DF808EDFFF7CEFF94BF0120FA
:100BC80000205DF808FB00BF4DF808EDFFF7C4FFF3
:100BD80034BF012000205DF808FB00BF4FEA410C3C
:100BE8007FEA6C5C02D150EA013C0AD14FEA430C1F
:100BF8007FEA6C5C02D152EA033C02D14FF000005C
:100C080070474FF0010070474FEA410212F5001299
:100C180015D211D56FF47873B3EB625212D94FEA3B
:100C2800C12343F0004343EA505311F0004F23FA25
:100C380002F018BF404270474FF00000704750EA7A
:100C4800013005D111F0004008BF6FF00040704737
:100C58004FF00000704700BF80B582B002AF142388
:100C68000193032300934FF4007300220B490C48AF
:100C780003F070FF03460B4A13600A4B1B68002BF6
:100C880006D0084B1B68184603F03EFF002301E01E
:100C98004FF0FF331846BD4680BD00BFB10C0008B9
:100CA800647E00084402002080B582B000AF7860FE
:100CB8000121084800F0E4FA4FF4FA7003F0E4FF69
:100CC8000121044800F0EAFA4FF4FA7003F0DCFF5F
:100CD800EEE700BF000C014080B400AF00BFBD4686
:100CE80080BC704780B400AFFEE780B400AFFEE779
:100CF80080B400AFFEE780B400AF00BFBD4680BC43
:100D0800704780B400AF00BFBD4680BC704700008C
:100D180080B483B000AF03463960FB7197F90730A0
:100D2800002B0BDA3B68DAB20C49FB7903F00F03AE
:100D3800043B1201D2B20B441A7609E03B68DAB2DE
:100D4800074997F907301201D2B20B4483F8002300
:100D580000BF0C37BD4680BC704700BF00ED00E007
:100D680000E100E080B582B000AF78607B68B3F145
:100D7800807F01D3012311E07B6823F07F43094A78
:100D8800013B53600F214FF0FF30FFF7C1FF054BC8
:100D980000229A60034B07221A600023184608377E
:100DA800BD4680BD10E000E080B400AF024B18469D
:100DB800BD4680BC704700BF4802002080B400AF29
:100DC800024B1846BD4680BC704700BF4812002041
:100DD80098B500AF0D4B1B680D4AA2FB03239B0976
:100DE8001846FFF7BFFF00F053F800F069F802F06B
:100DF8001BF9FFF7D9FF0446FFF7E0FF0346194642
:100E0800204603F0B1F800BF98BD00BF00000020E5
:100E1800D34D621080B582B000AF786003F0FEFC5D
:100E280020E07B681B780A2B0BD10D21124800F0BB
:100E3800F0FB00BF8021104800F00BFC0346002B9C
:100E4800F8D07B685A1C7A601B789BB219460A480E
:100E580000F0DFFB00BF8021074800F0FAFB0346E3
:100E6800002BF8D07B681B78002BDAD103F0ECFC60
:100E780000BF0837BD4680BD0038014080B500AFCF
:100E880002F00CFB02F056F802F01EFB00BF80BD1A
:100E980080B582B000AF0121082000F0C3FA012319
:100EA800BB801023FB710323BB713B1D194603480C
:100EB80000F02AF900BF0837BD4680BD000C01408C
:100EC80080B586B000AF0121042000F0ABFA012103
:100ED8004FF4804000F0A6FA4FF40073BB82182349
:100EE800FB750323BB7507F114031946134800F07B
:100EF8000BF94FF48063BB820423FB7507F11403DD
:100F080019460E4800F000F94FF4E1337B600023E6
:100F18003B8100237B810023BB8100233B820C2380
:100F2800FB813B1D1946064800F09AFA0121044846
:100F380000F050FB00BF1837BD4680BD00080140D7
:100F48000038014080B487B000AFF860B9607A60BB
:100F580000237B6111E000BF0D4B1B889BB203F09F
:100F68004003002BF8D07B69BA6813441A78084B01
:100F780092B29A807B6901337B617A697B689A4275
:100F8800E9DB7B6818461C37BD4680BC704700BF4C
:100F98000038014080B500AF154B1B68144A43F078
:100FA80001031360124B5A681149124B13404B60EE
:100FB8000F4B1B680E4A23F0847323F480331360AD
:100FC8000B4B1B680A4A23F480231360084B5B68A9
:100FD800074A23F4FE035360054B4FF41F029A603F
:100FE80000F00CF8044B4FF000629A6000BF80BD1F
:100FF800001002400000FFF800ED00E080B500AFEF
:1010080000F002F800BF80BD80B483B000AF0023B9
:101018007B6000233B603A4B1B68394A43F48033BA
:101028001360374B1B6803F400333B607B68013364
:101038007B603B68002B03D17B68B3F5A06FF0D1D0
:101048002F4B1B6803F40033002B02D001233B60B5
:1010580001E000233B603B68012B4BD1294B1B6807
:10106800284A43F010031360264B1B68254A23F0D7
:1010780003031360234B1B68224A43F002031360E7
:101088001F4B1F4A5B6853601D4B1D4A5B685360CA
:101098001B4B5B681A4A43F480635360184B5B68C8
:1010A800174A23F47C135360154B5B68144A43F4C6
:1010B800E8135360124B1B68114A43F080731360A6
:1010C80000BF0F4B1B6803F00073002BF9D00C4BCB
:1010D8005B680B4A23F003035360094B5B68084ABB
:1010E80043F00203536000BF054B5B6803F00C0339
:1010F800082BF9D100BF0C37BD4680BC704700BF34
:10110800001002400020024080B489B000AF78602F
:1011180039600023FB6100233B610023BB6100238E
:10112800FB6000237B610023BB603B68DB7803F036
:101138000F03FB613B68DB7803F01003002B05D03D
:101148003B689B781A46FB691343FB613B681B8825
:10115800DBB2002B44D07B681B687B610023BB613A
:1011680038E00122BB6902FA03F3FB603B681B8885
:101178001A46FB6813403B613A69FB689A4226D1DC
:10118800BB699B00FB600F22FB6802FA03F3BB609C
:10119800BB68DB437A6913407B61FA69FB6802FA32
:1011A80003F37A6913437B613B68DB78282B05D10D
:1011B8000122BB699A407B685A6108E03B68DB788A
:1011C800482B04D10122BB699A407B681A61BB692C
:1011D8000133BB61BB69072BC3D97B687A691A6085
:1011E8003B681B88FF2B46D97B685B687B610023C3
:1011F800BB613AE0BB690833012202FA03F3FB60E2
:101208003B681B881A46FB6813403B613A69FB68D8
:101218009A4227D1BB699B00FB600F22FB6802FA48
:1012280003F3BB60BB68DB437A6913407B61FA69EF
:10123800FB6802FA03F37A6913437B613B68DB7846
:10124800282B05D1BB69083301229A407B685A6173
:101258003B68DB78482B05D1BB69083301229A40EB
:101268007B681A61BB690133BB61BB69072BC1D9B4
:101278007B687A695A6000BF2437BD4680BC7047D6
:1012880080B483B000AF78600B467B807A887B6837
:101298001A6100BF0C37BD4680BC704780B483B06C
:1012A80000AF78600B467B807A887B685A6100BF04
:1012B8000C37BD4680BC704780B487B000AF7860FB
:1012C80000237B6100233B610023FB600023BB609C
:1012D8004F4B5B6803F00C037B617B69082B11D0D3
:1012E8007B69082B3AD87B69002B03D07B69042BD8
:1012F80004D033E07B68474A1A6033E07B68454A8C
:101308001A602FE0424B5B6803F470133B61404B5B
:101318005B6803F48033FB603B699B0C02333B61E1
:10132800FB68002B06D13B693B4A03FB02F27B6852
:101338001A6017E0364B5B6803F40033002B06D0C5
:101348003B69354A03FB02F27B681A600AE03B6995
:10135800304A03FB02F27B681A6003E07B682D4A7F
:101368001A6000BF2A4B5B6803F0F0037B617B695E
:101378001B097B61294A7B6913441B78DBB2BB607C
:101388007B681A68BB68DA407B685A60204B5B68E8
:1013980003F4E0637B617B691B0A7B611F4A7B69FD
:1013A80013441B78DBB2BB607B685A68BB68DA40C1
:1013B8007B689A60164B5B6803F460537B617B69BA
:1013C800DB0A7B61154A7B6913441B78DBB2BB607F
:1013D8007B685A68BB68DA407B68DA600C4B5B68EC
:1013E80003F440437B617B699B0B7B610C4A7B69FF
:1013F80013441B78DBB2BB607B68DA68BB68B2FB5E
:10140800F3F27B681A6100BF1C37BD4680BC704789
:101418000010024000127A0000093D00040000207C
:101428001400002080B483B000AF78600B46FB70D6
:10143800FB78002B06D0094B9A6908497B6813434F
:101448008B6106E0054B9A697B68DB4303491340CF
:101458008B6100BF0C37BD4680BC7047001002404E
:1014680080B58CB000AF786039600023FB62002340
:10147800BB6200237B6200233B620023FB617B6825
:10148800FB617B681B8A9BB2FB62FA6A4CF6FF73AE
:101498001340FB623B68DB881A46FB6A1343FB6216
:1014A800FB6A9AB27B681A827B689B899BB2FB6253
:1014B800FA6A4EF6F3131340FB623B689A883B685E
:1014C8001B8913439AB23B685B8913439BB21A4644
:1014D800FB6A1343FB62FB6A9AB27B689A817B685A
:1014E8009B8A9BB2FB62FA6A4FF6FF431340FB628A
:1014F8003B689B891A46FB6A1343FB62FB6A9AB2F4
:101508007B689A8207F108031846FFF7D5FEFB6946
:101518002E4A934202D17B69BB6201E03B69BB6200
:101528007B689B899BB21BB2002B0CDABA6A134604
:101538009B0013449A001A443B681B685B00B2FB8B
:10154800F3F37B620BE0BA6A13469B0013449A00DC
:101558001A443B681B689B00B2FBF3F37B627B6A0F
:101568001B4AA2FB03235B091B01FB62FB6A1B09E5
:10157800642202FB03F37A6AD31A3B627B689B8975
:101588009BB21BB2002B0CDA3B6ADB003233104AE9
:10159800A2FB03235B0903F00703FA6A1343FB6208
:1015A8000BE03B6A1B013233094AA2FB03235B09A8
:1015B80003F00F03FA6A1343FB62FB6A9AB27B6873
:1015C8001A8100BF3037BD4680BD00BF00380140DA
:1015D8001F85EB5180B483B000AF78600B46FB7079
:1015E800FB78002B08D07B689B899BB243F400539F
:1015F8009AB27B689A8107E07B689B899BB223F447
:1016080000539AB27B689A8100BF0C37BD4680BCF4
:10161800704780B483B000AF78600B467B807B88CE
:10162800C3F308039AB27B689A8000BF0C37BD46A3
:1016380080BC704780B483B000AF78607B689B88BB
:101648009BB2C3F308039BB218460C37BD4680BC57
:10165800704780B485B000AF78600B467B8000236C
:10166800FB737B681B889AB27B8813409BB2002B64
:1016780002D00123FB7301E00023FB73FB7B1846B8
:101688001437BD4680BC704780B483B000AF786023
:101698000B467B807B88DB439AB27B681A8000BF4D
:1016A8000C37BD4680BC704780B483B000AF78600B
:1016B8007B681B687A689A420CBF01230023DBB25F
:1016C80018460C37BD4680BC704780B485B000AF63
:1016D80078600023FB607B68BB6005E0BB681B6823
:1016E800BB60FB680133FB60BB681B687A689A4281
:1016F800F4D1FB6818461437BD4680BC704700001B
:1017080080B500AF024802F079FB0023184680BD7F
:101718006C7E000880B500AF01F0B8FF00231846C2
:1017280080BD000080B582B000AF786002E0064856
:1017380002F064FB7B685A1E7A60002BF7D100BF69
:1017480000BF0837BD4680BD807E000880B586B0E2
:1017580000AFF8607A603B600B46FB72FB7A184674
:1017680002F02EFE78617B6904333B61FB683A69BD
:101778001A60FB68FA7A1A72FB687A685A60FB6822
:101788003A68DA60FB6800221A6100BF1837BD4664
:1017980080BD80B58AB000AF7860396000237B6275
:1017A8003B6800221A613B68DB68002B03D03B686A
:1017B8001B7A002B01D100234AE03B681B687B6140
:1017C8007B68002B04D17B693B6201237B6201E0CB
:1017D8007B683B62FEF724FD03463B617B6A002B76
:1017E80010D13B6A0C3BFB60FB681B7A23F080033B
:1017F8003A68127A934205D03B691846FEF714FD01
:10180800002325E00023BB613B685B68FB613B6A02
:101818001B683B623A6A7B699A4202D100233B62A9
:101828000EE0BB690133BB61FB691A1DFA613A6AB4
:101838001A603B68DB68BA699A4200D0E7E700BFE4
:101848003B691846FEF7F0FC3B68BA691A613B6AC7
:1018580018462837BD4680BD90B5B7B002AF002303
:10186800C7F8CC30744BC7F8C03007F1780207F1DD
:10187800980008230121FFF769FF0823C7F8BC3047
:10188800D7F8C020D7F8BC106C4802F0B7FAD7F8E0
:10189800BC00FFF747FF6A4802F0B0FA07F1980367
:1018A8001946D7F8CC00FFF774FFC7F8CC0000231F
:1018B800C7F8C830AEE0D7F8C8309B00D0333B44F7
:1018C80053F8583C0C3BC7F8B830FEF7A9FC034660
:1018D800C7F8B430D7F8B8301B7A23F0800397F8EC
:1018E800A020934205D0D7F8B4301846FEF79CFCE8
:1018F8008BE03B467822D7F8B810184603F028FD4D
:10190800D7F8B4301846FEF78FFCD7F8B830C7F8C8
:10191800B030D7F8B020D7F8B03093F8353000930E
:1019280013460822D7F8BC10464802F067FAD7F8E1
:10193800B03093F8343003F00F0387F8AF3097F8DE
:10194800AF30012B03D1404802F058FA1EE097F857
:10195800AF30022B03D13D4802F050FA16E097F859
:10196800AF30002B03D13A4802F048FA0EE097F85E
:10197800AF30042B03D1374802F040FA06E097F85D
:10198800AF30032B02D1344802F038FAD7F8B03020
:101998009B6AC7F8C43004E0D7F8C4300133C7F8ED
:1019A800C430D7F8C4301B78232BF5D0D7F8B03023
:1019B800DA6AD7F8B0309B6A1946D7F8B030DB69D5
:1019C800CB1AD118D7F8B030D86AD7F8B030DA6A5D
:1019D800D7F8B0309B6A1C46D7F8C430E31A1344D2
:1019E800642203FB02F2D7F8B030DB6AB2FBF3F4EF
:1019F800D7F8B0301B6CD7F8B020126B0192009367
:101A080023460246154802F0F9F9D7F8C8300133E1
:101A1800C7F8C830D7F8A830D7F8C8209A42FFF6D8
:101A28004AAFD7F8CC30002B7FF438AF00231846E4
:101A3800D437BD4690BD00BF847E00088C7E000868
:101A4800D07E0008107F00081C7F0008287F00084F
:101A5800347F0008407F00084C7F0008587F00084A
:101A680080B584B000AF78607B681B68FB6012E0CB
:101A7800FB68143BBB60BB6819460B4802F0BEF913
:101A8800FB681B687A689A4202D0084802F0B6F9E7
:101A9800FB681B68FB60FA687B689A42E8D100BF64
:101AA80000BF1037BD4680BD807F0008847F0008D6
:101AB800B0B596B002AF0023FB64414B7B643A4655
:101AC80007F1200008230221FFF740FE08233B64AA
:101AD8007A6C396C3B4802F091F9386CFFF722FEBA
:101AE800394802F08BF907F120031946F86CFFF723
:101AF80050FEF8640023BB6456E0BB6C9B00503377
:101B08003B4453F8503C0C3BFB63FEF789FB034610
:101B1800BB63FB6B1B7A23F0800397F82820934262
:101B280004D0BB6B1846FEF77FFB3AE0BB6B184648
:101B3800FEF77AFBFB6B7B637B6B14331846FFF76E
:101B4800B3FD0346002B1AD17C6B7B6B9B8B1D4628
:101B58007B6B14331846FFF7B8FD034601930095D5
:101B680023460822396C194802F048F97B6B143374
:101B78001846FFF775FF164802F040F911E07C6B34
:101B88007B6B9B8B1D467B6B14331846FFF79DFDC3
:101B980003460193009523460822396C0D4802F04C
:101BA8002DF9BB6C0133BB643B6BBA6C9A42A4DB66
:101BB800FB6C002B97D1002318465037BD46B0BDAB
:101BC800887F0008947F0008B07F0008C87F00085D
:101BD800D87F0008DC7F0008F0B599B004AF002377
:101BE800FB64454B7B643A4607F120000823052136
:101BF800FFF7ACFD08233B647A6C396C3F4802F070
:101C0800FDF8386CFFF78EFD3D4802F0F7F807F154
:101C180020031946F86CFFF7BCFDF8640023BB6489
:101C28005EE0BB6C9B0050333B4453F8503C0C3B8C
:101C3800FB63FEF7F5FA0346BB63FB6B1B7A23F0E5
:101C4800800397F82820934204D0BB6B1846FEF710
:101C5800EBFA42E0BB6B1846FEF7E6FAFB6B7B63D8
:101C68007B6B14331846FFF71FFD0346002B1ED16C
:101C78007C6B7B6B5B8C1D467B6B1B8C1E467B6B6E
:101C880014331846FFF721FD034602930196009589
:101C980023460822396C1B4802F0B0F87B6B1433DA
:101CA8001846FFF7DDFE184802F0A8F815E07C6B2F
:101CB8007B6B5B8C1D467B6B1B8C1E467B6B1433CE
:101CC8001846FFF702FD0346029301960095234646
:101CD8000822396C0D4802F091F8BB6C0133BB64E3
:101CE8003B6BBA6C9A429CDBFB6C002B8FD10023B8
:101CF80018465437BD46F0BDEC7F0008F47F000855
:101D08001880000834800008D87F00084C8000083C
:101D180080B596B002AF0023FB64374B7B643A462C
:101D280007F1200008230A21FFF710FD08233B6470
:101D38007A6C396C314802F061F8386CFFF7F2FCC4
:101D48002F4802F05BF807F120031946F86CFFF7FB
:101D580020FDF8640023BB643BE0BB6C9B00503360
:101D68003B4453F8503C0C3BFB63FEF759FA0346DF
:101D7800BB63FB6B1B7A23F0800397F82820934200
:101D880004D0BB6B1846FEF74FFA1FE0BB6B184632
:101D9800FEF74AFAFB6B7B63796B7B6B5B6A7A6B4A
:101DA800926A019200930B460822396C154802F09A
:101DB80025F87B6B5B7A03F00103002B03D01248F4
:101DC80002F01CF802E0114802F018F8BB6C01336D
:101DD800BB643B6BBA6C9A42BFDBFB6C002BB2D185
:101DE80001F09EF803461946094802F007F8002357
:101DF80018465037BD4680BD648000086C800008D6
:101E080094800008B8800008D0800008DC800008B2
:101E1800EC80000880B582B000AF144801F0EEFFF6
:101E2800134B1B687B6016E07B681B680222114914
:101E3800184603F003FF0346002B08D07B68196897
:101E48007B685B681A460C4801F0D8FF00E000BFC9
:101E58007B680C337B60094B1B687A689A42E3D332
:101E6800002318460837BD4680BD00BF048100081E
:101E780048120020188100081C8100084C1200201C
:101E880080B582B000AF4FF0FF337B60202112484D
:101E9800FFF7DFFB0346002B09D00F48FFF7CAFB0B
:101EA80003467B6020210C48FFF7EEFB0DE008217C
:101EB8000948FFF7CEFB0346002B03D0082106484C
:101EC800FFF7E2FB0A2002F0EBFE7B68DBB2184664
:101ED8000837BD4680BD00BF0038014080B400AF60
:101EE80001231846BD4680BC7047000080B584B009
:101EF80000AF78603960164801F080FF154B1B6809
:101F0800FB6017E0FB681B6806221349184603F0BC
:101F180095FE0346002B09D1FB681B68991DFB68D9
:101F28005B681A460D4801F069FF00E000BFFB68D6
:101F38000C33FB600A4B1B68FA689A42E2D30948E3
:101F480001F05CFF002318461037BD4680BD00BF76
:101F58002C810008481200204881000850810008A0
:101F68004C1200205C81000880B582B000AF786018
:101F78003960FFF771FC002318460837BD4680BD5D
:101F880080B582B000AF7860396002F0C5F90023EF
:101F980018460837BD4680BD80B588B000AFF860E8
:101FA800B9607A60FB68FB610023BB6100237B6139
:101FB80094E0FB6900221A70FB690133FB61BB697D
:101FC8000133BB61FB691B78202B03D0FB691B78AD
:101FD800092B03D1BA69BB689A42EAD37B69072BFC
:101FE80019D9464801F00AFF00233B610BE03B6921
:101FF8009B007A6813441B681946414801F0FEFEAD
:102008003B6901333B613A697B699A42EFD33D48AA
:1020180001F0F4FE6DE0BA69BB689A4264D2FB69CC
:102028001B78222B3AD1FB690133FB61BB69013371
:10203800BB617B699B007A681344FA691A607B6903
:1020480001337B6114E0FB691B785C2B0AD1FB69C7
:1020580001331B78222B05D1FB690133FB61BB6976
:102068000133BB61FB690133FB61BB690133BB61B0
:10207800FB691B78222B03D0BA69BB689A42E2D36A
:10208800BA69BB689A4231D2FB6900221A70FB69AF
:102098000133FB61BB690133BB611FE07B699B00B6
:1020A8007A681344FA691A607B6901337B6105E039
:1020B800FB690133FB61BB690133BB61FB691B78B9
:1020C800202B07D0FB691B78092B03D0BA69BB68A2
:1020D8009A42EDD3BA69BB689A4209D2BA69BB6819
:1020E8009A42FFF46FAF04E000BF02E000BF00E0D7
:1020F80000BF7B6918462037BD4680BD6081000857
:10210800808100085C81000880B584B000AF7860E9
:1021180039600023BB60194B1B68FB6024E0FB6837
:102128001B6806221649184603F088FD0346002B53
:1021380016D1FB681B6806333A687968184603F0BD
:102148007DFD0346002B0CD1FB681B683A680632FC
:1021580013441B78002B04D1FB689B68BB6008E024
:1021680000BFFB680C33FB60064B1B68FA689A4299
:10217800D5D3BB6818461037BD4680BD481200202D
:10218800488100084C12002080B590B000AFF8607C
:10219800B9607A600023FB6302E0FB6B0133FB63E9
:1021A800FA68FB6B13441B78202B09D0FA68FB6B89
:1021B80013441B78092B03D0FA6BBB689A42ECD303
:1021C800FB6B002B02D14FF0FF332AE0FB6B194663
:1021D800F868FFF799FFB863BB6B002B02D14FF08B
:1021E800FF331EE007F1140320220021184603F0F4
:1021F800BDF807F114031A46B968F868FFF7CCFE72
:1022080078637B6B002B02D14FF0FF3309E007F1B5
:102218001402BB6B1146786B984702467B681A60BC
:10222800002318464037BD4680BD000080B584B005
:1022380000AF7860396005E07B6801337B603B68FC
:10224800013B3B603B68002B07D07B681B78202B49
:10225800F2D07B681B78092BEED03B68002B01D1AC
:10226800002322E007F108031A4639687868FFF767
:102278008BFF0346002B01D1BB6816E07B68FB602F
:1022880002E0FB680133FB60FB681B78202B03D05E
:10229800FB681B78002BF4D1FB6800221A70796860
:1022A800044801F0ABFD4FF0FF3318461037BD4628
:1022B80080BD00BF8481000880B485B000AF78601D
:1022C80039607B68FB6005E0FB680133FB603B68B5
:1022D80001333B60FB681B78002B09D03B681B78F7
:1022E800002B05D0FB681A783B681B789A42EBD024
:1022F800FA687B68D31A18461437BD4680BC704705
:1023080080B588B000AF78600023FB610023BB6113
:102318007B681B78002B04D100210020FFF7E6FD25
:102328004AE0274B1B687B6137E07B691B68062204
:102338002449184603F082FC0346002B29D17B6907
:102348001B6806333B617868FDF7EAFF03461A46C7
:102358003969786803F072FC0346002B1AD1FB69CF
:10236800002B06D13B69BB61B869FDF7D9FF03466D
:10237800FB613969B869FFF79FFFF860FA68FB6984
:102388009A4201DAFB68FB6139690F4801F036FDB2
:1023980000E000BF7B690C337B610C4B1B687A69DA
:1023A8009A42C2D3BB69002B05D0FB691A46B969AA
:1023B800786801F039F900BF2037BD4680BD00BFFD
:1023C80048120020488100089C8100084C12002017
:1023D80080B500AF204B1B6893F8213003F002034F
:1023E800DBB2002B04D11D4B00221A701B4B30E0CE
:1023F8001B4B1B68002B08D0194B1B688022194601
:10240800164803F02FFC154B23E0FFF767FD034642
:10241800002B07D0114B134A92E8030018600433CD
:10242800197009E00D4B104A92E803001860043354
:10243800198002330A0C1A700848FDF771FF034629
:102448001A46064B134409491A460B461B88138043
:10245800024B184680BD00BF5812002060120020B1
:102468005C120020A0810008A8810008B081000843
:1024780080B483B000AF7860084B1A687B6803F0BB
:102488000103D9B292F8213061F3410382F8213077
:1024980000BF0C37BD4680BC704700BF58120020F3
:1024A80080B500AFFFF7ECFC0346184680BD00007E
:1024B80080B582B000AF78600B4801F09FFCFFF751
:1024C8000DFD0346012B02D17868FFF719FFFFF7CE
:1024D8007FFF03467A681946044801F08FFC00BF65
:1024E8000837BD4680BD00BFB4810008B881000828
:1024F80080B586B000AF78609B4B1A6892F821309F
:1025080043F0010382F82130FFF762FF03461846C3
:1025180001F074FCFFF7C4FFB860BB68002BC0F281
:102528001382BB681B2B05D18F4B1B68012283F8D4
:10253800202016E28C4B1B6893F82030012B0ED11B
:10254800BB685B2B05D1884B1B68022283F82020CF
:1025580007E2854B1B68002283F820204CE0824B61
:102568001B6893F82030022B46D17F4B1B68002252
:1025780083F82020BB68412B00F0E881BB68422B20
:1025880000F0E681BB68442B12D1774B1B68B3F887
:102598007430002B00F0DE81744801F02FFC724B80
:1025A8001B68B3F87420013A92B2A3F87420D1E101
:1025B800BB68432B20D16C4B1B68B3F874206A4B63
:1025C8001B68B3F872309A4280F0C681664B1B686C
:1025D800654A1268B2F87420134493F822301946F9
:1025E800634801F00BFC604B1B68B3F874200132A0
:1025F80092B2A3F87420AFE1BB68002B00F0AE8163
:10260800BB68FF2B00F0AA81BB68092B29D10023E6
:102618007B6105E0554801F0F1FB7B6901337B6183
:10262800514B1B68B3F874301A467B699342F1DB4F
:102638004D4B1B6822331846FFF73AFF4A4B1B687D
:1026480022331846FDF76CFE0246474B1B6892B2D0
:10265800A3F87220444A1268B3F87230A2F87430B2
:102668007FE1BB687F2B03D0BB68082B40F08680D6
:102678003D4B1B68B3F87430002B00F071813A4B66
:102688001B68B3F87220013A92B2A3F87220364B55
:102698001B68B3F87420013A92B2A3F87420324B45
:1026A8001B68B3F87220304B1B68B3F874309A4239
:1026B8004BD92D4B1A682C4B1B68B3F87430203358
:1026C8001344981C284B1A68274B1B68B3F87430BE
:1026D800013320331344991C234B1B68B3F8723021
:1026E8001A46214B1B68B3F87430D31A1A4600F007
:1026F8005BFF1D4B1B681C4A1268B2F8722013441A
:10270800002283F82220184B1A68174B1B68B3F86D
:1027180074302033134402331946164801F06EFB17
:10272800114B1B68B3F874303B6105E00F4801F0AA
:1027380065FB3B6901333B610B4B1B68B3F8723097
:102748001A463B699342F1DD0BE10B4801F056FB59
:10275800054B1B68044A1268B2F872201344002221
:1027680083F82220FDE000BF58120020C081000835
:10277800C4810008C8810008D0810008BB680D2BFF
:1027880002D0BB680A2B36D1FFF7A8FB0346012B02
:1027980017D1744B1B6893F8213003F00103DBB2A7
:1027A800002B02D0704801F029FB6E4B1B6803F127
:1027B80022026C4B1B68B3F8723019461046FFF7BB
:1027C80035FDFFF705FE0346184601F017FB654B7C
:1027D8001B68223350220021184602F0C7FD614BC6
:1027E8001B680022A3F872205E4A1268B3F87230A0
:1027F800A2F87430B5E05B4B1B68B3F872304F2B0E
:1028080004D9584B1B680022A3F87220554B1B684B
:10281800B3F87420534B1B68B3F872309A4256D2FF
:10282800504B1A684F4B1B68B3F874300133203390
:102838001344981C4B4B1A684A4B1B68B3F8743006
:1028480020331344991C474B1B68B3F872301A465F
:10285800444B1B68B3F87430D31A1A4600F0A4FE30
:10286800404B1B683F4A1268B2F874201146BA6898
:10287800D2B20B4483F822203A4B1B6893F82130DC
:1028880003F00103DBB2002B0CD0364B1A68354B32
:102898001B68B3F8743020331344023319463348A5
:1028A80001F0ACFA2F4B1B68B3F87430FB6005E0FD
:1028B8002F4801F0A3FAFB680133FB60294B1B6822
:1028C800B3F872301A46FB689342F1DB18E0254BE7
:1028D8001B68244A1268B2F872201146BA68D2B24C
:1028E8000B4483F822201F4B1B6893F8213003F018
:1028F8000103DBB2002B03D0B9681E4801F07EFA51
:102908000023BB60174B1B68B3F87220013292B2E8
:10291800A3F87220134B1B68B3F87420013292B2EB
:10292800A3F874200F4B1B68B3F872304F2B7FF657
:10293800F1AD0C4B1B680022A3F87220094B1B68F1
:102948000022A3F87420E5E500BFE3E500BFE1E558
:1029580000BFDFE500BFDDE500BFDBE500BFD9E56F
:1029680000BFD7E558120020B4810008D4810008C0
:10297800C0810008C481000880B483B000AF7860CB
:102988003960054A7B681360044A3B68136000BFDE
:102998000C37BD4680BC7047481200204C120020FE
:1029A80080B483B000AF78603960054A7B681360F3
:1029B800044A3B68136000BF0C37BD4680BC7047B3
:1029C800501200205412002080B584B002AF0023BA
:1029D8007B601F491F48FFF7CFFF1F491F48FFF7BC
:1029E800DFFF7821012001F013FC03461C4A136025
:1029F8001B4B1B68002B05D11A4801F0FFF94FF05B
:102A0800FF3320E00A230193152300934FF400635A
:102A180000221549154802F09DF83860104B1B68D4
:102A2800184600230022124900F096FC0120FFF707
:102A38001FFD3B68002B05D07B68002B02D138684E
:102A480002F062F8002318460837BD4680BD00BF73
:102A5800CC8E00080C8E0008CC8E0008CC8E0008A6
:102A680058120020D8810008F9240008F0810008D5
:102A7800F881000880B489B000AFF860B9607A6066
:102A88003B607B680433BB61BB6923F00703BB6110
:102A9800BB69403BBB61BB697B610023FB6108E00C
:102AA800FB699B007A691344134A1A60FB69013376
:102AB800FB61FB690F2BF3D9BA687B691A627B69E2
:102AC80000225A627B6900229A627B690022DA62DC
:102AD8007B6900221A633A687B695A63FA687B69E2
:102AE8009A637B694FF08072DA63BB6918462437B2
:102AF800BD4680BC704700BFEFBEADDE80B500AFFD
:102B0800254801F07BF9254B1B889BB219462448C0
:102B180001F074F9214B1B889BB203F00103002BD1
:102B280002D0204801F06AF91C4B1B889BB203F0C5
:102B38000203002B02D01C4801F060F9174B1B88D8
:102B48009BB203F00403002B02D0184801F056F999
:102B5800124B1B889BB203F00803002B02D01448C9
:102B680001F04CF90D4B1B889BB203F48073002BCA
:102B780002D0104801F042F9084B1B889BB203F4BD
:102B88000073002B02D00C4801F038F90B4801F013
:102B980035F900BF80BD00BF008200082AED00E0C3
:102BA8001082000828820008348200084082000849
:102BB80048820008508200085C8200086882000889
:102BC80080B500AF264801F019F9264B1B78DBB217
:102BD8001946254801F012F9224B1B78DBB203F0A5
:102BE8000103002B02D0214801F008F91D4B1B7886
:102BF800DBB203F00203002B02D01D4801F0FEF8FF
:102C0800184B1B78DBB203F00403002B02D01948E1
:102C180001F0F4F8134B1B78DBB203F00803002B28
:102C280002D0154801F0EAF80E4B1B78DBB203F02E
:102C38001003002B02D0114801F0E0F8094B1B7873
:102C4800DBB25BB2002B06DA0D4B1B6819460D4848
:102C580001F0D4F802E00C4801F0D0F800BF80BDC4
:102C68006C82000829ED00E0788200089082000854
:102C78009C820008A8820008B8820008C482000864
:102C880038ED00E0CC8200086882000880B500AF0B
:102C9800214801F0B3F8214B1B78DBB219462048D4
:102CA80001F0ACF81D4B1B78DBB203F00103002BDD
:102CB80002D01C4801F0A2F8184B1B78DBB203F0D5
:102CC8000203002B02D0184801F098F8134B1B7828
:102CD800DBB203F00803002B02D0144801F08EF891
:102CE8000E4B1B78DBB203F01003002B02D0104808
:102CF80001F084F8094B1B78DBB25BB2002B06DAD3
:102D08000C4B1B6819460C4801F078F802E00B4898
:102D180001F074F800BF80BDDC82000828ED00E0F7
:102D2800F082000808830008148300082083000844
:102D38002C83000834ED00E038830008688200081E
:102D480080B500AF164B1B6803F00203002B02D0BE
:102D5800144801F053F8124B1B6803F08043002B12
:102D680014D0114B1B78DBB2002B01D0FFF728FFE2
:102D78000E4B1B78DBB2002B01D0FFF787FF0C4B03
:102D88001B889BB2002B01D0FFF7B8FE044B1B68D1
:102D9800002B02DA074801F031F800BF80BD00BF00
:102DA8002CED00E04883000829ED00E028ED00E064
:102DB8002AED00E06083000880B584B000AF786039
:102DC8007B680433FB60434B1B68002B07D0414BE7
:102DD8001B6878689847B860BB68002B75D0FB689B
:102DE800DB6B19463C4801F009F8FB681B6A194679
:102DF8003A4801F003F8FB685B6A1946384800F066
:102E0800FDFFFB689B6A1946364800F0F7FFFB6830
:102E1800DB6A1946344800F0F1FFFB681B68194665
:102E2800324800F0EBFFFB685B681946304800F059
:102E3800E5FFFB689B6819462E4800F0DFFFFB683A
:102E4800DB6819462C4800F0D9FFFB681B69194656
:102E58002A4800F0D3FFFB685B691946284800F050
:102E6800CDFFFB689B691946264800F0C7FFFB6841
:102E7800DB691946244800F0C1FFFB681B6B194643
:102E8800224800F0BBFFFB685B6B1946204800F046
:102E9800B5FFFB689B6B19461E4800F0AFFF7B68C7
:102EA8001B6803F00403002B09D001F023FE03463E
:102EB8001946194800F0A2FFFEF7CEFC02E01748B9
:102EC80000F09CFFFFF73CFFFEE700BF1037BD4650
:102ED80080BD00BFF01200207083000880830008C6
:102EE80090830008A0830008B0830008C08300080E
:102EF800D0830008E0830008F083000800840008FD
:102F080010840008208400083084000840840008E9
:102F180050840008608400087084000890840008C9
:102F280080B400AF024B1B681846BD4680BC704792
:102F3800F412002080B582B000AF0E4B1B6801333D
:102F48000C4A136001F0D6FD78607B681B6C5A1E32
:102F58007B681A647B681B6C002B05D17B68DA6B75
:102F68007B681A6401F028FE02F018F900BF0837E0
:102F7800BD4680BDF412002080B485B000AF7860F3
:102F88007B68002B03DA4FF0FF33FB6027E07B6898
:102F9800164A82FB03129211DB17D31A4FF47A7286
:102FA80002FB03F3FB607A68104B83FB0213991151
:102FB800D317CB1A4FF47A7101FB03F3D31A4FF4EA
:102FC8007A7202FB03F303F2E733084A82FB031227
:102FD8009211DB17D31A1A46FB681344FB60FB688F
:102FE80018461437BD4680BC704700BFD34D6210E9
:102FF80080B400AF00231846BD4680BC704780B43B
:1030080000AF00231846BD4680BC704780B400AFAF
:1030180000231846BD4680BC704780B400AF00232B
:103028001846BD4680BC704780B582B000AF094BDA
:103038007B6005E07B681B6898477B6804337B608E
:103048007B68054A9342F5D300BF00BF0837BD46E9
:1030580080BD00BFD08E0008D48E000880B582B035
:1030680000AF094B7B6005E07B681B6898477B686D
:1030780004337B607B68054A9342F5D300BF00BFE9
:103088000837BD4680BD00BFD48E0008DC8E00081E
:1030980080B500AF00F02AF80023184680BD80B53F
:1030A80082B000AF7860FFF7D9FFFDF7D5FD00BF0C
:1030B8000837BD4680BD000080B584B002AF142338
:1030C8000193022300934FF4007300220549064838
:1030D80001F040FD7860786801F016FD00BF083700
:1030E800BD4680BDA7300008BC84000880B500AF8D
:1030F800FDF796F8FDF76CFE00F0C8FA02F0BEF88E
:1031080001F090FAFFF7D8FF02F0D2F800F066F865
:1031180001F0B2FA0023184680BD80B483B000AF36
:1031280078607B681B687A6852685A607B685B685D
:103138007A6812681A607B687A685A607B685A688D
:103148007B681A6000BF0C37BD4680BC7047000022
:1031580080B483B000AF074B7B607B681B687A68DC
:103168009A4214BF01230023DBB218460C37BD4630
:1031780080BC70477C15002080B582B000AFFDF799
:103188004FF87860FFF7E4FF0346002B03D1786817
:10319800FDF74AF814E00C4B1B68143B3B603B6896
:1031A80014331846FFF7B9FF3B689B6A184601F0CD
:1031B8004DF8386801F0B9F97868FDF735F8DEE7B9
:1031C80000BF0837BD4680BD7C15002080B582B0A1
:1031D80000AF7860FFF7D0FFFCE7000080B584B04F
:1031E80004AF20230393072302934FF480730193C2
:1031F800064B00930023064A0649074801F05AFC8B
:10320800054801F081FC00BFBD4680BD7013002059
:10321800D5310008C4840008F812002080B483B0B7
:1032280000AF78607B687A685A607B685A687B6808
:103238001A6000BF0C37BD4680BC704780B483B0AD
:1032480000AF786039607B685B683A681A607B68B1
:103258005A683B685A607B683A685A603B687A6883
:103268001A6000BF0C37BD4680BC704780B483B07D
:1032780000AF78607B681B687A689A420CBF0123AC
:103288000023DBB218460C37BD4680BC704780B5BA
:1032980082B000AF78607B6814331846FFF7BEFF32
:1032A800002318460837BD4680BD80B586B000AFFC
:1032B800F860B9601346FB71B86801F001FDFB794D
:1032C800002B02D0012B07D031E0BB68143319461C
:1032D800F868FFF7B3FF2AE0FB681B687B6117E01B
:1032E8007B69143B3B61BB6893F835203B6993F8D5
:1032F80035309A4209D23B6903F11402BB68143392
:1033080019461046FFF79AFF06E07B691B687B6148
:103318007A69FB689A42E3D17A69FB689A4205D1D7
:10332800BB6814331946F868FFF788FF00BF00230D
:1033380018461837BD4680BD80B584B000AF7860A8
:103348007B681B68143BFB60F86801F0E8FC00230D
:1033580018461037BD4680BD80B584B000AFF86010
:10336800B9607A60FB70FB68BA680221184601F000
:103378004BF8FB681846FFF78AFF7B689AB2FB6830
:103388009A83FB68FA785A72002318461037BD46AC
:1033980080BD90B585B000AF78603960FCF740FF1C
:1033A80004467B689B8B002B09D07B689B8B013B79
:1033B8009AB27B689A832046FCF736FF32E03B6876
:1033C800002B05D12046FCF72FFF6FF001032AE000
:1033D80001F090FBF860FB6800221A637B6803F138
:1033E80014007B685B7A1A46F968FFF75EFF3B6852
:1033F800002B0BDDFB6844333A460021184601F0E8
:1034080081FEFB684433184601F09EFD2046FCF718
:103418000BFF01F04FF9FB681B6B002B02D0FB6818
:103428001B6B00E0002318461437BD4690BDB0B5AD
:1034380082B000AF78600025FCF7F2FE04467B6896
:1034480014331846FFF712FF0346002B06D17B689A
:1034580014331846FFF770FF012512E07B689B8B39
:103468004FF6FF72934206D07B689B8B01339AB26A
:103478007B689A8305E02046FCF7D6FE6FF00203CE
:1034880007E02046FCF7D0FE012D01D101F012F92A
:10349800002318460837BD46B0BD000080B582B08D
:1034A80000AFFCF7BDFE7860064B1B78DBB201333A
:1034B800DAB2044B1A707868FCF7B6FE00BF08371A
:1034C800BD4680BD7014002080B582B000AFFCF707
:1034D800A7FE7860064B1B78DBB2013BDAB2044BDF
:1034E8001A707868FCF7A0FE00BF0837BD4680BD9B
:1034F8007014002080B489B000AFF860B9607A60B9
:10350800FB68FB61BB68DBB27B617B68032B40D93E
:10351800FB6803F00303002B3BD1FB68BB617B69AD
:103528001B027A6913433B613B691B043A691343E5
:103538003B6116E0BB691A1DBA613A691A60BB693A
:103548001A1DBA613A691A60BB691A1DBA613A69EB
:103558001A60BB691A1DBA613A691A607B68103B28
:103568007B607B680F2BE5D807E0BB691A1DBA6141
:103578003A691A607B68043B7B607B68032BF4D84C
:10358800BB69FB6105E0FB695A1CFA617A69D2B232
:103598001A707B685A1E7A60002BF4D1FB681846B3
:1035A8002437BD4680BC704780B487B000AFF86050
:1035B800B9607A60FB687B61BB683B613A697B698B
:1035C8009A4226D23A697B6813447A699A4220D291
:1035D8007A697B6813447B613A697B6813443B6171
:1035E80009E03B69013B3B617B69013B7B613B69CE
:1035F8001A787B691A707B685A1E7A60002BF0D1A2
:103608000CE03A69531C3B617B69591C796112785B
:103618001A707B685A1E7A60002BF2D1FB68184634
:103628001C37BD4680BC704780B487B000AFF860D7
:10363800B9607A607B68002B21D0FB687B61BB682E
:103648003B613A69531C3B617B69591C796112786B
:103658001A701B78002B0CD104E07B695A1C7A6124
:1036680000221A707B68013B7B607B68002BF4D1D9
:1036780005E07B68013B7B607B68002BE1D1FB6840
:1036880018461C37BD4680BC7047000080B582B024
:1036980002AF0A4800F0B2FB094800F0AFFB094B43
:1036A8000093052301220321074800F0A7FB0748E0
:1036B80000F0A4FB00BFBD4680BD00BFCC8400085D
:1036C800D88400081C850008FC84000828850008A8
:1036D80080B485B000AF786039603B680A2B17D199
:1036E8007B681B681946134BA3FB0123DA081346B2
:1036F8009B0013445B00CA1AFA607B681B681A4671
:103708000C4BA3FB0223DB081A467B681A600AE00D
:103718007B681B6803F00F03FB607B681B681B0951
:103728001A467B681A60FB6818461437BD4680BC89
:10373800704700BFCDCCCCCC90B482B000AF7860DD
:1037480000240DE023469B0023445B0018467B6859
:103758001B68591C7A6811601B780344A3F1300474
:103768007B681B681B78303B092BEBD9234618462E
:103778000837BD4690BC7047B0B58CB000AFF86054
:10378800B9607A603B607B6CBB623C6CBB6C03F0DD
:103798004003002B01D06C4B00E06C4B7B62BB6C90
:1037A80003F01003002B03D0BB6C23F00103BB64B0
:1037B800BB6C03F00103002B01D0302300E0202371
:1037C80087F82330002387F82F30BB6C03F00203FF
:1037D800002B1AD07B68002B06DA2D2387F82F30B0
:1037E8007B685B427B6010E0BB6C03F00403002B3A
:1037F80003D02B2387F82F3007E0BB6C03F00803B6
:10380800002B02D0202387F82F3000257B68002B5F
:1038180017D12B465D1C30333B44302203F8202C53
:1038280012E03B1D39681846FFF752FF03461A4657
:103838007B6A1A442B465D1C127830333B4403F8EC
:10384800202C7B68002BECD17B6C9D4200DD7D64D5
:103858007B6CE41ABB6C03F01103002B15D197F8AD
:103868002F30002B0DD0002C0BDD013C09E0FA684D
:10387800BB689A4202D2FB6820221A70FB680133A7
:10388800FB6023465C1E002BF1DC97F82F30002BE1
:103898000BD0FA68BB689A4203D2FB6897F82F20CE
:1038A8001A70013CFB680133FB60BB6C03F010032A
:1038B800002B1AD10AE0FA68BB689A4203D2FB6867
:1038C80097F823201A70FB680133FB6023465C1EBF
:1038D800002BF0DC09E0FA68BB689A4202D2FB6868
:1038E80030221A70FB680133FB607B6C5A1E7A64C5
:1038F8009D42F0DB0DE0FA68BB689A4206D205F1FA
:1039080030033B4413F8202CFB681A70FB68013322
:10391800FB602B465D1E002B0DDDBB6A002BEAD138
:1039280009E0FA68BB689A4202D2FB6820221A7042
:10393800FB680133FB6023465C1E002BF1DCFB684F
:1039480018463037BD46B0BD808900089489000804
:1039580080B592B004AFF860B9607A603B60FB68EC
:10396800BB62FA68BB6813447B627A6AFB689A4256
:1039780080F026824FF0FF337B627A6AFB68D31AA5
:10398800BB601DE27B681B78252B0BD0BA6A7B6A6B
:103998009A4203D27B681A78BB6A1A70BB6A0133F1
:1039A800BB620AE20023BB777B6801337B607B68DC
:1039B8001B782D2B04D1BB7F43F01003BB77F3E7B3
:1039C8007B681B782B2B04D1BB7F43F00403BB77A8
:1039D800EAE77B681B78202B04D1BB7F43F0080300
:1039E800BB77E1E77B681B78232B04D1BB7F43F0CF
:1039F8002003BB77D8E77B681B78302B04D1BB7FCB
:103A080043F00103BB77CFE700BF4FF0FF33BB6143
:103A18007B681B78303B092B05D83B1D1846FFF700
:103A28008BFEB86115E07B681B782A2B11D17B6867
:103A380001337B603B681A1D3A601B68BB61BB6938
:103A4800002B06DABB695B42BB61BB7F43F0100306
:103A5800BB774FF0FF337B617B681B782E2B1ED121
:103A68007B6801337B607B681B78303B092B05D86A
:103A78003B1D1846FFF760FE78610BE07B681B78FA
:103A88002A2B07D17B6801337B603B681A1D3A609B
:103A98001B687B617B69002B01DA00237B610023B3
:103AA8007B777B681B78682B03D07B681B786C2B33
:103AB80005D17B681B787B777B6801337B600A23A1
:103AC800FB777B681B78252B00F00881252BC0F23B
:103AD8001F81782B00F31C81582BC0F21981583BA9
:103AE800202B00F2158101A252F823F0013D0008B5
:103AF800193D0008193D0008193D0008193D000846
:103B0800193D0008193D0008193D0008193D000835
:103B1800193D0008193D0008793B00080F3D0008D1
:103B2800193D0008193D0008193D0008193D000815
:103B38000F3D0008193D0008193D0008193D00080F
:103B4800193D0008193D0008FB3C0008AD3C000881
:103B5800193D0008193D0008E73B0008193D000819
:103B6800553D0008193D0008193D0008093D0008A9
:103B7800BB7F03F01003002B10D109E0BA6A7B6AFF
:103B88009A4202D2BB6A20221A70BB6A0133BB6216
:103B9800BB69013BBB61BB69002BEFDC3B681A1DAD
:103BA8003A601B68FB74BA6A7B6A9A4202D2BB6AA3
:103BB800FA7C1A70BB6A0133BB6209E0BA6A7B6A95
:103BC8009A4202D2BB6A20221A70BB6A0133BB62D6
:103BD800BB69013BBB61BB69002BEFDCEDE03B68D7
:103BE8001A1D3A601B683B623B6A002B01D1824B6D
:103BF8003B620023FB6202E0FB6A0133FB62FA6A64
:103C0800BB699A4205D0FB6A3A6A13441B78002BB9
:103C1800F2D17B69002B05DDFA6A7B699A4201DDE6
:103C28007B69FB62BB7F03F01003002B10D109E016
:103C3800BA6A7B6A9A4202D2BB6A20221A70BB6AAD
:103C48000133BB62BB695A1EBA61FA6A9A42EFDB5A
:103C580000233B6310E0BA6A7B6A9A4203D23B6A4C
:103C68001A78BB6A1A70BB6A0133BB623B6A0133BC
:103C78003B623B6B01333B633A6BFB6A9A42EADB7C
:103C880009E0BA6A7B6A9A4202D2BB6A20221A7099
:103C9800BB6A0133BB62BB695A1EBA61FA6A9A42AF
:103CA800EFDB8AE0BB69B3F1FF3F05D10823BB61B5
:103CB800BB7F43F00103BB773B681A1D3A601B6862
:103CC8001A46BB7F02937B690193BB69009310235B
:103CD800796AB86AFFF750FDB8626EE0BA6A7B6A23
:103CE8009A4202D2BB6A25221A70BB6A0133BB62B0
:103CF80063E00823FB772AE0BB7F43F04003BB77F0
:103D08001023FB7723E0BB7F43F00203BB771DE062
:103D1800BA6A7B6A9A4202D2BB6A25221A70BB6AC7
:103D28000133BB627B681B78002B0BD0BA6A7B6AB5
:103D38009A4203D27B681A78BB6A1A70BB6A01334D
:103D4800BB623AE07B68013B7B6036E000BF7B7F6B
:103D58006C2B09D13B681A1D3A601B687B63BB7FDB
:103D680003F00203002B1AE07B7F682B0ED13B681F
:103D78001A1D3A601B689BB27B63BB7F03F002038A
:103D8800002B0CD07B6B1BB27B6308E03B681A1DD1
:103D98003A601B687B63BB7F03F00203002B7A6BDE
:103DA800F97FBB7F02937B690193BB6900930B4644
:103DB800796AB86AFFF7E0FCB8627B6801337B6018
:103DC8007B681B78002B7FF4DDADBB68002B0BD024
:103DD800BA6A7B6A9A4203D2BB6A00221A7003E06D
:103DE8007B6A013B00221A70BA6AFB68D31A18462C
:103DF8003837BD4680BD00BF548500080FB480B574
:103E080082B000AF07F114033B603B683A697F2139
:103E18000948FFF79DFD03467B607B687F2B01D92E
:103E28007F237B600448FCF7F5FF00BF0837BD46D9
:103E3800BDE8804004B070477414002080B483B09B
:103E480000AF78607B68002B01D1002326E07B68F7
:103E5800DBB2002B05D07B68DBB2134AD35C01339D
:103E68001CE07B6803F47F43002B06D07B681B12A1
:103E7800DBB20D4AD35C093310E07B6803F47F039F
:103E8800002B06D07B681B14DBB2074AD35C1133C6
:103E980004E07B681B0E044AD35C193318460C37C0
:103EA800BD4680BC704700BF8088000880B485B0DC
:103EB80000AF7860294B1A687B685B681344FB6025
:103EC8007A68FB689A421FD0FB685B88002B1BD17D
:103ED800234B1B68FA689A4216D0224B1B68FA6873
:103EE8009A4202D11F4A7B681360FB685A687B6854
:103EF8005A601A4B1B687A68D11A184B1A68FB6803
:103F08005B6813440A469A60144B1A687B689B687E
:103F18001344BB60BA687B689A421AD0BB685B8856
:103F2800002B16D10F4B1B687A689A4202D10D4AB2
:103F3800BB6813607B685A68BB685A60074B1B688C
:103F4800BA68D11A054B1A687B685B6813440A463D
:103F58009A6000BF1437BD4680BC7047F414002037
:103F6800F8140020FC14002080B586B000AF7860FB
:103F780039607B68033323F003037B613B6823F0DC
:103F880003033B613B69182B47D93B69183B7A69A6
:103F98009A4242D83A697B69D31A183B244A13607B
:103FA8007B69244A1360234B1B68FB60FB684FF452
:103FB800F5521A801E4B1B6803F10C02FB685A600D
:103FC800FB6800229A60FB6800225A80194B1A6825
:103FD800FB685B681344184A1360174B1B684FF45F
:103FE800F5521A80144B1B6801225A80104B1A682C
:103FF800114B1B680C325A600D4B1A680E4B1B682C
:104008000C329A60002301220C490D48FFF7A4F9ED
:10401800084B1B680B4A136006E07B683A68194630
:104028000948FFF7EBFE00BF1837BD4680BD00BF4B
:1040380020150020F4140020F81400205C850008E6
:1040480000150020FC1400206485000880B586B0A7
:1040580000AF78607B68002B01D10023C5E07B6846
:10406800033323F003037B60624B1B687A689A4230
:1040780001D90023B9E07B680B2B01D80C237B60A6
:104088004FF0FF315C48FFF784F95C4B1A685C4BD2
:104098001B68D31A7B619CE0594B1A687B691344EF
:1040A8003B613B695B88002B40F08D803B695A6817
:1040B8007B69D31A0C3B7A689A4200F284803B6988
:1040C8005A687B69D31AA3F10C027B6818339A42A9
:1040D8003DD37A697B6813440C33FB60484B1A68FC
:1040E800FB681344BB60BB684FF4F5521A80BB6889
:1040F80000225A803B695A68BB685A60BB687A6973
:104108009A603B69FA685A603B6901225A80BB6829
:104118005A68384B1B680C339A4206D0384B1A68D9
:10412800BB685B681344FA689A60364B1A687B6808
:1041380013440C33334A1360334B1A68314B1B68F2
:104148009A421DD22F4B1B682F4A136018E03B6917
:1041580001225A803B695B68294A126839698A1AC0
:104168009A1A284B1B681344264A1360264B1A6870
:10417800244B1B689A4203D2224B1B68224A1360C5
:104188003B694FF4F5521A801C4B1B683A699A42F6
:1041980013D107E01A4B1A68184B1B685B68134465
:1041A800164A1360154B1B685B88002B05D0134B10
:1041B8001A68164B1B689A42ECD10F48FFF737F97B
:1041C8003B690C3311E00E4B1A687B6913445B683A
:1041D8007B61084B1A687B68D31A7A699A42FFF4A4
:1041E8005BAF0548FFF723F9002318461837BD468B
:1041F80080BD00BF2015002000150020FC14002001
:10420800F41400202415002028150020F81400209C
:1042180080B584B000AF786039607B683A6802FB8B
:1042280003F31846FFF712FFF860FB68002B08D06D
:104238007B683A6802FB03F31A460021F868FFF727
:1042480059F9FB6818461037BD4680BD80B584B063
:1042580000AF78607B68002B49D0284B1B687A68D0
:104268009A4246D3264B1B687A689A4241D27B68A9
:104278000C3BFB604FF0FF312248FFF78AF8FB68E0
:104288005B88002B04D0FB681B88B3F5F55F0BD067
:104298001D48FFF7B3FDFB685B881A46FB681B885F
:1042A800F9681A48FFF7AAFDFB6800225A80FB68E4
:1042B8004FF4F5521A80164B1B68FA689A4202D2DC
:1042C800134AFB6813600D4B1B68FA68D31A1A4629
:1042D800FB685B68D21A0F4B1B6813440D4A1360C6
:1042E800F868FFF7E3FD0748FFF7A1F802E000BF11
:1042F80000E000BF1037BD4680BD00BFF4140020A9
:10430800F814002000150020A0850008BC850008CE
:10431800FC1400202415002080B500AF094B1B6851
:1043280019460948FFF76AFD084B1B6819460848F3
:10433800FFF764FD074B1B6819460748FFF75EFD4A
:1043480000BF80BD20150020EC8500082415002042
:1043580000860008281500201486000880B483B061
:1043680000AF786039607B681B683A685A607B6880
:104378001A683B681A607B683A681A603B687A6812
:104388005A6000BF0C37BD4680BC704780B483B00C
:1043980000AF78607B681B687A6852685A607B68EF
:1043A8005B687A6812681A607B687A685A607B680A
:1043B8005A687B681A6000BF0C37BD4680BC7047DE
:1043C80080B485B000AF0346FB710023FB600FE0AB
:1043D8000C4AFB681B0113441B78FA799A4204D1F2
:1043E800FB681B01074A134406E0FB680133FB60C6
:1043F800FB68032BECDD002318461437BD4680BC50
:10440800704700BF1800002090B589B000AFF86071
:104418000B467A60FB720023FB61FB7A1846FFF7B4
:10442800CFFFB86100F0FAF9BB695B68FB6105E092
:10443800FB690C3B7B61FB691B68FB61BB6904334F
:10444800FA699A42F4D100F0FFF9FB7A63F07F032E
:10445800DAB2FB681A72FB68082279681846FFF717
:10446800E3F8FBF7DDFE0446BB691A1DFB680C3355
:1044780019461046FFF772FF2046FBF7D5FE00BF2E
:104488002437BD4690BD90B583B000AF78607B6897
:1044980000221A72FBF7C4FE04467B680C331846E8
:1044A800FFF774FF2046FBF7BFFE00BF0C37BD4681
:1044B80090BD90B585B000AF03463960FB71FB79BC
:1044C8001846FFF77DFFF860FB68DB681846FFF7C2
:1044D800BDFDB860BB68002B01D1002321E0FB685B
:1044E800DB681A460021B868FFF704F8BB68FA7958
:1044F8001A72BB6800225A72BB68082239681846CB
:10450800FFF792F8FBF78CFE0446FB681A1DBB68A0
:104518000C3319461046FFF721FF2046FBF784FEAF
:10452800BB6818461437BD4690BD90B583B000AF40
:1045380078607B6800221A72FBF772FE04467B687B
:104548000C331846FFF722FF2046FBF76DFE78680C
:10455800FFF77CFE00BF0C37BD4690BD80B483B02A
:1045680000AF78607B681B7A5BB2002B01DA01230D
:1045780000E0002318460C37BD4680BC704780B465
:1045880083B000AF78607B687A685A607B685A6845
:104598007B681A6000BF0C37BD4680BC704780B48A
:1045A80083B000AF786039607B685B683A681A60EE
:1045B8007B685A683B685A607B683A685A603B680F
:1045C8007A681A6000BF0C37BD4680BC704780B45B
:1045D80083B000AF78607B681B687A6852685A605D
:1045E8007B685B687A6812681A607B687A685A60C8
:1045F8007B685A687B681A6000BF0C37BD4680BC70
:10460800704780B483B000AF78607B681B687A68B5
:104618009A420CBF01230023DBB218460C37BD4673
:1046280080BC704798B500AF0D4B00221A8000245B
:1046380006E0E3000B4A13441846FFF7A0FF0134D5
:10464800072CF6DD084B07221A70084B00221A6067
:10465800074B00221A600748FFF791FF00BF98BD7B
:10466800701500202C1500207815002074150020E6
:104678006C1500207C15002098B500AF0A4B1B680C
:104688001846FFF7DBFB0346013B1C46074B53F874
:104698003430A3F11404064B1C6004F11C031846C3
:1046A800FBF7F3FD00BF98BD6C1500202C1500200A
:1046B8007415002090B585B000AFFBF7B1FDF86028
:1046C800204BB3F90030002B35D11F4B1B6818461F
:1046D800FFF7B4FB0346013B1C461C4B53F8343030
:1046E800143BBB601A4B1B68BA689A4223D0E2B2EB
:1046F800184B1A70164B1B687B60154ABB68136011
:10470800154B1B78DBB2002B0CD17B681C331A4687
:10471800BB681C3319461046FBF789FDF868FBF7A0
:1047280083FD0BE07B681C331A46BB681C331946B3
:104738001046FBF77CFDF868FBF776FD1437BD469D
:1047480090BD00BF701500206C1500202C150020AE
:1047580074150020781500207014002090B583B0DF
:1047680000AF7860FBF75CFD04467B6893F8343053
:104778005BB223F00F035BB243F001035BB2DAB222
:104788007B6883F834207B6893F83530DB000B4A6C
:104798001A447B68143319461046FFF700FF7B68FC
:1047A8009A6B074B1B681343054A13602046FBF7B7
:1047B8003BFD00BF0C37BD4690BD00BF2C15002047
:1047C8006C15002090B583B000AF7860FBF728FD2A
:1047D80004467B6814331846FFF7F9FE7B6893F8A4
:1047E8003530DB000B4A13441846FFF70AFF03462F
:1047F800002B07D07B689B6BDA43074B1B68134081
:10480800054A13602046FBF70FFD00BF0C37BD4675
:1048180090BD00BF2C1500206C15002098B500AF86
:10482800FBF7FEFC0446074BB3F900309BB201339B
:104838009BB21AB2034B1A802046FBF7F5FC00BF67
:1048480098BD00BF7015002098B500AFFBF7E8FCD5
:104858000446104BB3F900309BB2013B9BB21AB22D
:104868000C4B1A800B4BB3F90030002B0CDC094BB6
:1048780000221A802046FBF7D7FC074B1B68002B49
:1048880005D0FFF717FF02E02046FBF7CDFC00BF7D
:1048980098BD00BF701500207415002080B483B047
:1048A80000AF78607B687A685A607B685A687B6872
:1048B8001A6000BF0C37BD4680BC704780B483B017
:1048C80000AF786039607B681B683A685A607B681B
:1048D8001A683B681A607B683A681A603B687A68AD
:1048E8005A6000BF0C37BD4680BC704780B483B0A7
:1048F80000AF786039607B685B683A681A607B68EB
:104908005A683B685A607B683A685A603B687A68BC
:104918001A6000BF0C37BD4680BC704780B483B0B6
:1049280000AF78607B681B687A6852685A607B6859
:104938005B687A6812681A607B687A685A607B6874
:104948005A687B681A6000BF0C37BD4680BC704748
:1049580090B583B000AF7860FBF762FC04467B68D3
:104968001B6F002B03D07B681B6F78689847204625
:10497800FBF75AFC00BF0C37BD4690BD90B583B01D
:1049880000AF174B1B687B60FBF74AFC044678684E
:10499800FFF7DEFF7868FFF715FF7B68042283F8CE
:1049A80034207B684433184600F0B2FA7868FFF781
:1049B800D5FD0346012B03D17868FFF764FD05E0B8
:1049C8007B68143319460748FFF778FFFFF772FE34
:1049D8002046FBF729FC00BF0C37BD4690BD00BF41
:1049E800741500207C15002080B586B002AFF860F1
:1049F800B9607A603B60FB6814331846FFF74EFFD6
:104A0800FB687A681A62FB683A685A62FB68BA6996
:104A18009A62FB68FA69DA62FB68986AFB68DB6A83
:104A28001A462321FEF766FDFB68186AFB68596A77
:104A3800FB689A6AFB68DB6A043B1A441B4BFEF767
:104A480019F80246FB68DA61FB6897F8202083F8BA
:104A58003620FB6897F8202083F83520FB68002271
:104A68009A63FB687A6ADA63FB687A6A1A64FB6895
:104A780000221A63FB68002283F83420FB680022B6
:104A88001A67FB6800225A67FB6803F14400F9685B
:104A98000023019300230093FB68054A00F020FAE5
:104AA800002318461037BD4680BD00BF8549000861
:104AB800734D000880B588B004AFF860B9607A60BB
:104AC8003B60BA680121F868FFF79EFC7B6A039394
:104AD80097F820300293FB690193BB6900933B6808
:104AE8007A68B968F868FFF77FFF034618461037F9
:104AF800BD4680BD80B400AF024B1B681846BD465A
:104B080080BC70477415002080B582B000AF786013
:104B18007B6893F836207B6883F835207B6893F8A8
:104B280035301A46012393401A467B689A637B689E
:104B3800022283F83420786800F0F1F8FFF7DAFFF2
:104B48000346002B01D0FFF7B5FD002318460837B0
:104B5800BD4680BD80B58AB004AFF860B9607A60A0
:104B68003B60F9680120FFF7A4FC78617B69002BA2
:104B780001D100231BE03868FFF768FA38613B6908
:104B8800002B04D17869FFF7D0FC00230FE07B6A83
:104B9800039397F8203002933B6801933B69009395
:104BA8007B68BA68F9687869FFF71EFF7B69184661
:104BB8001837BD4680BD000090B583B000AFFBF745
:104BC8002FFB0446174B1B687B607B6893F83430D7
:104BD80003F00F03012B1DD17B685A697B689B6921
:104BE8009A4217D07B6814331846FFF797FE7B6804
:104BF80093F83530DB000C4A1A447B6814331946A5
:104C08001046FFF773FE2046FBF70EFBFFF752FD39
:104C1800002303E02046FBF707FB002318460C3768
:104C2800BD4690BD741500202C15002090B585B0A8
:104C380000AF7860FBF7F4FA0446124B1B68FB6080
:104C4800F86800F03DF8FB6844333A1D0021184627
:104C580000F058FAFB684433184600F075F920460E
:104C6800FBF7E2FAFFF726FDFB681B6B13F1020F57
:104C780002D1FB6800221A63002318461437BD4688
:104C880090BD00BF7415002080B582B000AF786079
:104C98007868FFF7CBFF034618460837BD4680BD46
:104CA80080B584B000AF78607868FEF765F9F86081
:104CB800F868FFF7BBFF034618461037BD4680BDAE
:104CC80090B583B000AF78607B6893F8343003F018
:104CD8000F03012B02D04FF0FF331CE0FBF7A0FAC3
:104CE80004467868FFF76EFD7B6893F834305BB252
:104CF80023F00F035BB243F002035BB2DAB27B68C6
:104D080083F834207B684433184600F0D9F92046EC
:104D1800FBF78AFA002318460C37BD4690BD90B5BC
:104D280083B000AF78607B6893F8343003F00F03EA
:104D3800022B02D04FF0FF3313E0FBF771FA044661
:104D48007B6814331846FFF7E9FD7B68443318463F
:104D580000F0B6F92046FBF767FA7868FFF7FEFC23
:104D6800002318460C37BD4690BD80B584B000AF0F
:104D780078607B68FB60FB686FF001021A63FB6870
:104D880014331846FFF7CAFDF868FFF7E7FCFFF78A
:104D980091FC00BF1037BD4680BD80B483B000AF22
:104DA80078607B687A685A607B685A687B681A60A2
:104DB80000BF0C37BD4680BC704780B483B000AFDD
:104DC800786039607B681B683A685A607B681A6843
:104DD8003B681A607B683A681A603B687A685A6070
:104DE80000BF0C37BD4680BC704780B483B000AFAD
:104DF80078607B681B687A6852685A607B685B6871
:104E08007A6812681A607B687A685A607B685A68A0
:104E18007B681A6000BF0C37BD4680BC704780B401
:104E280083B000AF78607B681B687A689A420CBFD1
:104E380001230023DBB218460C37BD4680BC7047FF
:104E480080B586B000AFF860B9607A603B60FB68F7
:104E580097F820205A72FB685B7A23F00103DAB2D4
:104E6800FB685A72FB68BA68DA61FB687A681A628A
:104E7800FB6800229A62FB683A685A6200237B61E9
:104E88000BE07B690233DB00FA68134404331846ED
:104E9800FFF783FF7B6901337B617B69002BF0DDC2
:104EA80000BF00BF1837BD4680BD80B584B000AFD5
:104EB80078600023FB600BE0FB680233DB007A6854
:104EC800134404331846FFF790FFFB680133FB6077
:104ED800FB68002BF0DD00BF00BF1037BD4680BD6A
:104EE80080B586B002AFF860B9607A603B60BA6896
:104EF8000A21F868FFF788FA3B7F0093BB693A6894
:104F08007968F868FFF79CFF00BF1037BD4680BD81
:104F180090B583B000AF7860FBF782F904467868F3
:104F2800FFF7C3FF7B685B7A23F00103DAB27B6883
:104F38005A722046FBF778F97868FFF7A4FA00233D
:104F480018460C37BD4690BD90B589B000AF786063
:104F5800FBF766F904467868FFF7A7FF7B685B7A7A
:104F680023F00103DAB27B685A72FDF7D9FF0246D3
:104F78007B685B6A1A447B689A624F4B7B617B69EA
:104F8800BB600023FB614FE0FB699B0020333B447F
:104F980053F8183C1B683B61FB69DB0014335B4228
:104FA8003A691344FB60FB689A6A7B689B6A9A4279
:104FB80009D0FB689A6A7B689B6AD31A6FF0004233
:104FC80093421CD300E000BFFB699B0020333B44A5
:104FD80053F8183C1A68FB699B0020333B4443F89C
:104FE800182CFB699B0020333B4453F8182CFB69B1
:104FF800DB0079690B445B689A42C5D100E000BFC9
:10500800FB69002B0DD0FB699B0020333B4453F810
:10501800182CFB69013308329B0020333B4443F8CA
:10502800182CFB690133FB61FB69002BD9D0234B9A
:105038001B680133214A1360204B1B68BB61BA68A7
:105048007B68143319461046FFF7B7FE0223FB614D
:105058001DE0BB6903F00303002B1CD1FB69C3F1FE
:1050680001039B0020333B4453F8180CFB69C3F140
:1050780001030233DB007A68134404331946FFF74F
:105088009CFEBB699B08BB61FB690133FB61FB6943
:10509800012BDED900E000BF7B685B7A43F0010397
:1050A800DAB27B685A722046FBF7BEF8002318462E
:1050B8002437BD4690BD00BF841500208C15002004
:1050C80090B583B000AF78607B685B7A03F001032A
:1050D800002B02D14FF0FF3310E0FBF7A1F8044694
:1050E8007868FFF7E2FE7B685B7A23F00103DAB2A7
:1050F8007B685A722046FBF797F8002318460C374E
:10510800BD4690BD90B585B000AFF860B9607A60D3
:10511800FBF786F80446BB68042B35D801A252F881
:1051280023F000BF4B5100084151000855510008B9
:105138006551000875510008FB685A6A7B681A6057
:1051480023E07B681A68FB685A621EE0FB685B7A9A
:1051580023F00203DAB2FB685A7216E0FB685B7A46
:1051680043F00203DAB2FB685A720EE0FB685B7A1E
:1051780003F00103002B03D07B6801221A6004E0CE
:105188007B6800221A6000E000BF2046FBF74CF85D
:10519800002318461437BD4690BD00BF90B585B0B2
:1051A80000AF3B461846FFF7F8FDFDF7B9FEF8607B
:1051B800FBF736F804464FE02F4B1B68143BBB60E7
:1051C800BB689B6AFA68D31A6FF0004293424AD2CE
:1051D800B868FFF76AFEBB685B7A03F00203002B2E
:1051E80006D1BB685B7A23F00103DAB2BB685A7256
:1051F800BB6803F114023B4611461846FFF7DDFD74
:10520800BB68DB69BA68126A10469847FDF788FEE2
:10521800F8603B461846FFF702FE0346002B00D015
:105228001AE0BB6814331846FFF7DFFDBB685B7AEA
:1052380003F00203002B0FD0BB685B7A03F0010375
:10524800002B09D0BB685B7A23F00103DAB2BB6894
:105258005A72B868FFF778FE0748FFF7E0FD034683
:10526800002BA9D000E000BF2046FAF7DDFF00BF01
:105278001437BD4690BD00BF8415002080B582B0AC
:1052880000AF00237B6009E07B68DB00074A13441A
:105298001846FFF782FD7B6801337B607B68002B33
:1052A800F2D000BF00BF0837BD4680BD841500207E
:1052B80080B400AF00BFBD4680BC7047002103E04A
:1052C8000B4B5B58435004310A480B4B42189A4227
:1052D800F6D30A4A02E0002342F8043B084B9A42FC
:1052E800F9D3FBF757FE00F00FF8FDF7D1FE704732
:1052F800E88E000800000020280200202802002074
:10530800A4150020FEE7000070B500260C4D0D4CDA
:10531800641BA410A64209D103F068FD00260A4DBB
:105328000A4C641BA410A64205D170BD55F8043B75
:1053380098470136EEE755F8043B98470136F2E7FF
:10534800E48E0008E48E0008E48E0008E48E00086D
:105358000A44914200F1FF3300D1704710B511F8AB
:10536800014B914203F8014FF9D110BD03460244A5
:10537800934200D1704703F8011BF9E7002B2DE990
:10538800F0471F46BBBF03F100431F4600232D23F0
:1053980088B01446129A109D1370149BDDF84CA027
:1053A80023F02008B8F1460F05D0B8F1450F00D119
:1053B8000135022300E0032307AA049206AACDE9D7
:1053C80002A2CDE9003522463B4600F0EDFCB8F1DB
:1053D800470F064602D1119BDB0722D5B8F1460FCD
:1053E80006EB050910D13378302B0AD100220023AF
:1053F80020463946FBF7C0FB18B9C5F10105CAF8C4
:105408000050DAF80030994400220023204639463B
:10541800FBF7B2FB08B1CDF81C903022079B4B4537
:1054280007D33046079B159A9B1B136008B0BDE84D
:10543800F087591C07911A70F0E70346F7B5002961
:1054480003F8022BB6BF2D222B22494209294270AC
:105458002BDD0DF10704A4460A2791FBF7F60A464F
:10546800A64607FB1615632A05F13005314604F1F7
:10547800FF340EF8015CF0DC3031AEF1020504F8BF
:10548800011C2946441C61450AD30DF10902A2EB0F
:105498000E02654588BF00221344181A03B0F0BDF8
:1054A80011F8012B04F8012FEDE730233031837018
:1054B800C170031DF1E700002DE9F04F91B00C46D3
:1054C800DDF8688016461F46054601F05BFA03685A
:1054D80018460993FAF724FF00230E93D8F80030F2
:1054E8000A90073323F0070303F1080294F8189091
:1054F800D4F800B0C8F80020D3E90023C4E9122387
:10550800D4E9128A2AF000430B934FF0FF32404649
:105518009C4B0B99FBF762FB70BB4FF0FF32404688
:10552800984B0B99FBF73CFB30BB0022002340460D
:105538005146FBF72BFB10B12D2384F84330924BD7
:105548009248B9F1470F94BF9846804603234FF01D
:10555800000A23612BF004032360334621462846C2
:1055680000970FAA00F0D4F9013040F090804FF076
:10557800FF3011B0BDE8F08F4246534640465146D1
:10558800FBF72CFB48B1BAF1000FB8BF2D238048B8
:10559800B8BF84F843307F4BD3E7636809F0DF0175
:1055A8005A1C42D106236360002206920EAACDE956
:1055B80004920DAA4BF4806303920DF13302CDE9F6
:1055C80001322360636842460093284653460B9194
:1055D800FFF7D4FE0B99804647290D9908D1C81CBE
:1055E80002DB6368994240DDA9F102095FFA89F993
:1055F800B9F1650F1FD84A46013904F150000D91E1
:10560800FFF71BFF0E9A82461318012A236102DC5A
:105618002268D20701D5013323619DF83330002B6E
:105628009BD02D2384F8433097E74729BCD1002B22
:10563800BAD10123B7E7B9F1660F18D10029636819
:105648000BDD216113B92268D00702D501330B4461
:1056580023614FF0000AA165DFE713B92268D2077A
:1056680001D50233F4E70123F2E74FF067090E9BF7
:10567800994205DB23682161D807EAD54B1CE7E787
:105688000029CCBF0122C1F102021344E0E72368DC
:105698005A0507D42369424631462846B84701309F
:1056A8002BD164E7B9F1650F40F2DD80D4E912012E
:1056B80000220023FBF760FA002833D0012331468B
:1056C8002846354AB84701303FF451AFDDE90D238C
:1056D8009A4202DB2368D8070FD5DDE90923314652
:1056E8002846B84701303FF442AF4FF0000804F1B4
:1056F8001A090E9B013B434509DC23689B0700F10F
:105708000281E0680F9B9842B8BF184631E7012331
:105718004A4631462846B84701303FF428AF08F1D9
:105728000108E6E70D9B002B38DC012331462846AB
:10573800194AB84701303FF41AAFDDE90D23134386
:1057480002D12368D907D8D5DDE90923314628468F
:10575800B84701303FF40BAF4FF0000904F11A0AC3
:105768000D9B5B424B4501DC0E9B94E7012352469F
:1057780031462846B84701303FF4F9AE09F101092E
:10578800EEE700BFFFFFEF7FD8890008DC8900083B
:10579800E4890008E0890008E88900080E9AA36DEA
:1057A8009A42A8BF1A46002A914637DC4FF0000BF0
:1057B80029EAE97904F11A02D4F858A0AAEB0903F6
:1057C8005B4533DCDDE90D239A423BDB2368DA07CE
:1057D80038D40E9B0D99A3EB0A02A3EB010991455E
:1057E800A8BF9146B9F1000F34DC4FF0000829EA50
:1057F800E97904F11A0ADDE90D239B1AA3EB0903E1
:1058080043457FF77AAF0123524631462846B847C9
:1058180001303FF4ACAE08F10108ECE7134631461D
:1058280042462846B8470130C0D1A0E60123314698
:1058380028460B92B84701303FF499AE0B9A0BF10A
:10584800010BB9E73146DDE909232846B84701309D
:10585800BFD18CE64B463146284608EB0A02B847CA
:105868000130C2D183E60E9A012A01DCDB0737D565
:105878000123424631462846B84701303FF477AE07
:10588800DDE9092331462846B84701303FF46FAEB9
:10589800D4E9120100220023FBF76EF9D8B90E9B58
:1058A80008F10102013B31462846B84701300ED1C4
:1058B8005DE601234A4631462846B84701303FF4A1
:1058C80056AE08F101080E9B013B4345F1DC5346F7
:1058D80004F15002E0E64FF0000804F11A09F2E77B
:1058E80001234246DFE701234A4631462846B847A6
:1058F80001303FF43CAE08F10108E3680F995B1AE8
:105908004345F0DCFDE64FF0000804F11909F4E71F
:105918002DE9F047164699468A680B69074693426F
:10592800B8BF1346336091F843200C46DDF8208059
:105938000AB1013333602368990642BF33680233E2
:105948003360256815F0060506D104F1190AE368E5
:1059580032689B1AAB4228DC94F84320131E226855
:1059680018BF012392062DD44946384604F1430254
:10597800C047013020D02368E56803F00603042BF4
:1059880018BF002532684FF00006A36808BFAD1A9B
:10599800226908BF25EAE5759342C4BF9B1AED1832
:1059A8001A34B5421AD1002008E00123524649466C
:1059B8003846C047013003D14FF0FF30BDE8F087CB
:1059C8000135C4E73020E11881F843005A1C94F8E7
:1059D80045102244023382F84310C5E701232246CA
:1059E80049463846C0470130E6D00136D9E70000BD
:1059F8002DE9FF470F7E9146782F80460C469A4640
:105A08000C9D01F1430207D8622F0AD8002F00F03D
:105A1800D980582F00F0A48004F1420584F8427020
:105A28003AE0A7F16303152BF6D801A151F823F04A
:105A3800915A0008A55A0008215A0008215A00085E
:105A4800215A0008215A0008A55A0008215A0008BE
:105A5800215A0008215A0008215A0008B35B00089F
:105A6800D55A0008955B0008215A0008215A0008F9
:105A7800D55B0008215A0008D55A0008215A0008A9
:105A8800215A00089D5B00082B681A1D1B682A60B4
:105A980004F1420584F842300123A4E02068296813
:105AA800060601F104030AD50E682B60002E03DAFE
:105AB8002D23764284F843300A235E4819E00E68A5
:105AC80010F0400F2B6018BF36B2EFE72B68206844
